:020000040800F2
:10000000C8060020E9380008C5060008C706000831
:1000100000000000000000000000000000000000E0
:10002000000000000000000000000000C9060008F9
:100030000000000000000000CB060008CD0600080C
:1000400019390008000000001939000819390008A2
:100050001939000819390008193900081939000838
:100060000000000019390008193900081939000882
:100070001939000819390008193900080000000072
:100080007D09000800000000000000001939000888
:1000900019390008193900081939000819390008F8
:1000A000193900081939000819390008F90700083A
:1000B000193900080348854603F060FF00480047EF
:1000C00019010008C80600207CB50121480402F08F
:1000D000D2FB0120C00200900125694609260D715E
:1000E0000324F6064C71304602F019F9E80300903B
:1000F0000020694608714C71304602F010F910205A
:10010000009069460D714C71304602F008F91021DB
:10011000304602F066F97CBD0EB5FFF7D5FF01222F
:100120000920D102C00602F05EF900F0D1FAC82021
:1001300000F0F6FA4B20C00100F019FBFEA003F01E
:100140006BFF00F073FB2F213B2000F0E7FB01F079
:1001500089F801F020FA002001F0DEFAFB4CFA48A1
:10016000206001F0ADFEFA4E0025266020232A46CD
:1001700008213420009501F01FFD202301220821D1
:100180004820009501F018FD2023022208215C2060
:10019000009501F011FD2023032208217020009515
:1001A00001F00AFD01F066FEEA4801F0BEFE0421FE
:1001B000022000F08AFB0146E7A003F02DFFEA4889
:1001C000206002200090802358223821002001F076
:1001D00087FD04229A21872001F07AFB03229A21CD
:1001E000872001F075FB02229A21872001F070FB25
:1001F00001229A21872001F06BFB00229A2187209F
:1002000001F066FB01278023082238218C2000970B
:1002100001F066FD04225821D02001F059FB032291
:100220005821D02001F054FB302300224E21D6204B
:10023000009501F048FC3F2040012060022030235F
:1002400000903722BE21184601F06DFD0322E12106
:10025000662001F03DFB0222E121662001F038FB1F
:100260000122E121662001F033FB0022E12166201A
:1002700001F02EFB30230522BE216C20009701F0F7
:1002800052FD0322CD218A2001F022FB0222CD2142
:100290008A2001F01DFB30230022BE218E20009514
:1002A00001F011FC09203902C00602F098F8AF48AD
:1002B00000F036FAF0231A46BE210020009501F026
:1002C0003FFAB823F02238210020009501F038FAD7
:1002D00026608E233C2282210A20009601F072FAC9
:1002E0008E23782282214620009601F06BFA0022AC
:1002F0009821892001F0ECFA01229821892001F04F
:10030000E7FA02229821892001F0E2FA03229821DB
:10031000892001F0DDFA04229821892001F0D8FA21
:1003200005229821892001F0D3FA8E23C822822148
:100330009620009601F046FA04224621CD2001F0D5
:10034000C7FA03224621CD2001F0C2FA3023002251
:100350004621D220009501F0B6FB002600F06BFB91
:1003600000F023FF00F0E8FC014681A08AE10124AF
:100370000927E403FF062146384602F01EF800284C
:1003800057D0002E7BD07D480188142977D905806D
:100390000026B823F02238213046009501F0D0F92C
:1003A0006A486B4C04608E233C2282210A20009410
:1003B00001F008FA8E23782282214620009401F071
:1003C00001FA00229821892001F082FA0122982165
:1003D000892001F07DFA02229821892001F078FA23
:1003E00003229821892001F073FA042298218920A0
:1003F00001F06EFA05229821892001F069FA8E2316
:10040000C82282219620009401F0DCF904224621C2
:10041000CD2001F05DFA03224621CD2001F058FAEB
:1004200001200090302300224621D22001F04BFB16
:100430009DE7642000F074F92146384601F0BDFFC5
:10044000002894D14D480126058000F01CFE04468A
:1004500001464BA003F0E0FD4C482718384603F056
:100460001BFC4B4903F0BFFA4A4903F07FFA4A49A3
:1004700003F07CFA019003F021FC014600E004E166
:1004800046A003F0C9FD48480024A1004158B942E4
:1004900003D8641CE4B26F2CF7D32046FF30403001
:1004A0000146029041A003F0B7FD3B4F0198B842CE
:1004B00040DDB823F02238210020009501F040F9FA
:1004C00022492348086000908E233C2282210A2082
:1004D00001F078F91E4800908E2378228221462070
:1004E00001F070F900229821892001F0F1F9012230
:1004F0009821892001F0ECF902229821892001F04D
:10050000E7F903229821892001F0E2F904229821D9
:10051000892001F0DDF905229821892001F0D8F920
:100520000B4800908E23C8228221962001F04AF9C0
:10053000042243E052E00000557361727420546558
:100540007374204F4B0D0A00FF07000020000020AD
:10055000FFFF0000D9040000424154414456616C41
:1005600075653D25640A00001FF80000881300002F
:1005700054656D70693D25640A0000000C00002080
:10058000414456616C75653D25640A003C76000067
:10059000FEFFFF4A00004C4100007A44566F746130
:1005A00067653D25640A0000D8430008546F626AFD
:1005B00054656D703D25640A000000004621CD2081
:1005C00001F086F903224621CD2001F081F9302384
:1005D00000224621D220009501F075FA002C21D08E
:1005E0006F2C02D20198B84235DD2E4803210180DC
:1005F000B823F02238210020009501F0A1F83F2017
:1006000029494001086080230B22382133200095BE
:1006100001F0FDF980230C22009538217D2001F0A6
:10062000F6F91BE01F4903200880B823F022382187
:100630000020009501F084F83F201B49400108602C
:1006400080230D2238213320009501F0E0F980232A
:100650000E220095E1E7029801F0CAFC0421084649
:1006600000F033F91149124A4843010B002083007E
:10067000D3588B4203D3401CC0B21E28F7D3093095
:10068000C1B20CA003F0C8FC71E60D480188C8296E
:10069000FAD9058001210022C902384601F0A3FEE3
:1006A00065E600001000002020000020C20C0000C1
:1006B000604300084E544354656D703D25640A0044
:1006C0000C0000207047FEE770477047704700003D
:1006D00010B50420C04302F0ADFB1D481B49006863
:1006E00003F02EF91B49C0B27D220870D20050439E
:1006F000488010BD174909784843174948610022CE
:100700008A6108690123184308610869C30701D099
:10071000C003FAD508694008400008618A61704743
:100720000C49498848430C49486100228A6108699C
:100730000123184308610869C30701D0C003FAD533
:1007400008694008400008618A61704700127A0019
:10075000B40200200000002000E000E070473149B2
:10076000CA691206FCD52F49203108817047F1B5BE
:1007700001218AB0480402F07EF80121880302F0CA
:1007800083F80921CF060122384601F034FE012208
:100790000A21384601F02FFE032040020090022576
:1007A0006846057103214171002484710126C671D8
:1007B0006946384601F0B3FD0A98089404940594FC
:1007C000069403900C20174C079003A9204602F0D2
:1007D000F0F801221449204602F0B0FA0121204627
:1007E00002F050F91B21684601724572867202A818
:1007F00002F0F4FA0BB0F0BD10B50A4C0A492046DD
:1008000002F0CBFA00280CD0204602F0CAF90146CB
:10081000204602F0C2F98021204602F0B5FA0028F5
:10082000F9D010BD003801400501050030B50121A7
:1008300089B0480402F01FF80121480202F024F8B0
:100840000120000601F0F6FE06200690032168460E
:1008500001770024C477092006A9C00601F05FFDD6
:100860002D4D284601F018FC684601F036FC68461C
:10087000009404710420059002946946049428466B
:1008800001F018FC284601F0BCFC0121284601F0CB
:100890002CFC0121284601F0F2FC0028F9D009B017
:1008A00030BD10B51C4C01460722204601F084FCE7
:1008B000204601F0C2FC0421204601F0E0FC0028A3
:1008C000F9D0204601F0BEFC10BDF3B5002481B084
:1008D0000F4626462546009414E00198FFF7E1FFF5
:1008E000002D03D0A04203D2044605E0044602E0F6
:1008F0000099884200D9009036180220FFF710FFB7
:100900006D1CEDB2BD42E8D30098B91E301A001B31
:1009100003F016F880B2FEBD0024014013B584B088
:100920000121022001F0B9FF102168460173002463
:1009300044730121817303A802F050FA2F482E4915
:10094000006802F0FDFF2E49401E48806846008A7C
:1009500001906846818A018004814480294C69465F
:10096000204602F0CFFA01221146204602F03CFE5A
:100970000121204602F037FB06B010BD70B5214CB6
:100980000121204602F044FE002832D001212046F9
:1009900002F04AFE1A4C1C49E0880926401C80B22D
:1009A0000025F606E080884211D9E580A088401C29
:1009B000A080208900281CD0401E0004000C20814B
:1009C00008D1257000221021304601F00CFD20894D
:1009D00000280ED02078401CC0B22070022801D21E
:1009E000012202E0042805D200221021304601F045
:1009F000FAFC70BD257070BD808D5B00B4020020D4
:100A000008000020000400408206000070B50124A8
:100A1000FF4DE40200222146284601F0E4FC0A20B2
:100A2000FFF768FE01222146284601F0DCFCC820C1
:100A3000FFF760FE70BDFEB501210025880401F0BE
:100A40001AFFF34C01210C260022C902204601F0B6
:100A5000CAFC7D27FF0001218902204601F0ADFC80
:100A600002900120FFF75CFE6D1CADB2BD420DD9B6
:100A70000122D102204601F0B6FC0122910220465B
:100A800001F0B1FCE3A003F0C7FAFEBD0298012813
:100A9000E1D000250127FF0201223946204601F05E
:100AA000A2FC1E20FFF726FE00223946204601F058
:100AB0009AFC1E20FFF71EFE6D1CEDB2182DEBD325
:100AC0000122D5022946204601F08DFC1E20FFF7A9
:100AD00011FE00222946204601F085FC1E20FFF76A
:100AE00009FE01222946204601F07DFC1E20FFF769
:100AF00001FE00222946204601F075FC1E20FFF76A
:100B0000F9FD01222946204601F06DFC1E20FFF769
:100B1000F1FD00222946204601F065FC1E20FFF76A
:100B2000E9FD01222946204601F05DFC1E20FFF769
:100B3000E1FD00222946204601F055FC1E20FFF76A
:100B4000D9FD01222946204601F04DFC1E20FFF769
:100B5000D1FD00222946204601F045FC1E20FFF76A
:100B6000C9FD6F1001206946009708710020C87107
:100B7000204601F0D4FB01222946204601F033FC37
:100B80001E20FFF7B7FD01223946204601F02BFC5D
:100B900000222946204601F026FC1E20FFF7AAFD70
:100BA00001222946204601F01EFC1E20FFF7A2FD6F
:100BB00001223946204601F016FC00222946204633
:100BC00001F011FC1E20FFF795FD01222946204669
:100BD00001F009FC1E20FFF78DFD0022394620465A
:100BE00001F001FC00222946204601F0FCFB1E20FA
:100BF000FFF780FD01222946204601F0F4FB1E206C
:100C0000FFF778FD00223946204601F0ECFB002278
:100C10002946204601F0E7FB1E20FFF76BFD01226D
:100C20002946204601F0DFFB1E20FFF763FD01226D
:100C30003946204601F0D7FB00222946204601F024
:100C4000D2FB1E20FFF756FD01222946204601F067
:100C5000CAFB1E20FFF74EFD00223946204601F058
:100C6000C2FB00222946204601F0BDFB1E20FFF7F3
:100C700041FD01222946204601F0B5FB1E20FFF769
:100C800039FD01223946204601F0ADFB00222946FC
:100C9000204601F0A8FB1E20FFF72CFD012229466B
:100CA000204601F0A0FB1E20FFF724FD002229466C
:100CB000204601F098FB1E20FFF71CFD00257F0059
:100CC00001223946204601F08EFB1E20FFF712FD5F
:100CD000300601D5012200E00022012189022046D0
:100CE00001F081FB7006060E00223946204601F015
:100CF0007AFB1E20FFF7FEFC6D1CEDB2082DDFD342
:100D000001223946204601F06EFB1E20FFF7F2FC5F
:100D100000223946204601F066FB1E20FFF7EAFC60
:100D20000120800200900020694608710120C871EE
:100D3000204601F0F4FAFEBDFEB50121002588042D
:100D400001F099FD0127324CFF020022394620466E
:100D500001F049FB7D26F60001218902204601F0C1
:100D60002CFB02900120FFF7DBFC6D1CADB2B542FD
:100D70000ED901223946204601F035FB01229102AD
:100D8000204601F030FB29A003F046F90120FEBD0A
:100D900002980128E0D000263D460122294620463F
:100DA00001F021FB1E20FFF7A5FC0022294620466A
:100DB00001F019FB1E20FFF79DFC761CF6B2182EE1
:100DC000EBD301222946204601F00DFB1E20FFF740
:100DD00091FC00222946204601F005FB1E20FFF76A
:100DE00089FC01222946204601F0FDFA1E20FFF76A
:100DF00081FC00222946204601F0F5FA1E20FFF76B
:100E000079FC01222946204601F0EDFA1E2019E066
:100E100000040048436F6E66696720526567697316
:100E2000746572206572726F720D0A00526561649A
:100E3000205265676973746572206572726F720DF6
:100E40000A000000FFF756FC00222946204601F068
:100E5000CAFA1E20FFF74EFC01222946204601F067
:100E6000C2FA1E20FFF746FC00222946204601F068
:100E7000BAFA1E20FFF73EFC01222946204601F067
:100E8000B2FA1E20FFF736FC00222946204601F068
:100E9000AAFA1E20FFF72EFC0126B602012768469B
:100EA000009607710021C1716946204601F037FAAA
:100EB00001222946204601F096FA1E20FFF71AFC6F
:100EC00001223146204601F08EFA002229462046B2
:100ED00001F089FA1E20FFF70DFC01222946204669
:100EE00001F081FA1E20FFF705FC00223146204662
:100EF00001F079FA00222946204601F074FA1E20FA
:100F0000FFF7F8FB01222946204601F06CFA1E206B
:100F1000FFF7F0FB01223146204601F064FA00227F
:100F20002946204601F05FFA1E20FFF7E3FB01226D
:100F30002946204601F057FA1E20FFF7DBFB00226E
:100F40003146204601F04FFA00222946204601F0A2
:100F50004AFA1E20FFF7CEFB01222946204601F067
:100F600042FA1E20FFF7C6FB01223146204601F05F
:100F70003AFA00222946204601F035FA1E20FFF7F2
:100F8000B9FB01222946204601F02DFA1E20FFF769
:100F9000B1FB01223146204601F025FA0022294604
:100FA000204601F020FA1E20FFF7A4FB012229466B
:100FB000204601F018FA1E20FFF79CFB0022314664
:100FC000204601F010FA00222946204601F00BFAD3
:100FD0001E20FFF78FFB01222946204601F003FA6D
:100FE0001E20FFF787FB00222946204601F0FBF96F
:100FF0001E20FFF77FFB0021684600960171C77134
:101000006946204601F08BF9002637460122294621
:10101000204601F0E8F91E20FFF76CFB002229466C
:10102000204601F0E0F91E20FFF764FB7006060E73
:1010300001218902204601F0C0F9012801D1761C66
:10104000F6B27F1CFFB2082FE0D3012229462046CA
:1010500001F0C9F91E20FFF74DFB0022294620466A
:1010600001F0C1F91E20FFF745FB0120800200902E
:101070000021684601710121C1716946204601F0D5
:101080004EF93046FEBDFEB501210025880401F071
:10109000F2FB0127BF020021684600970171012180
:1010A000C171844C6946204601F039F9002279006B
:1010B000204601F098F91DE001218902204601F047
:1010C0007CF906460120FFF72BFB6D1C7D20ADB29D
:1010D000C00085420ED90122D102204601F083F9D9
:1010E00001229102204601F07EF973A002F094FFE4
:1010F0000120FEBD012EDFD0002601253746ED027E
:1011000001222946204601F06EF91E20FFF7F2FA6F
:1011100000222946204601F066F91E20FFF7EAFA70
:101120001E20FFF7E7FA012176008902204601F030
:1011300044F9012800D1761C1E20FFF7DBFA7F1C42
:10114000FFB2182FDCD3002701222946204601F0E8
:101150004AF91E20FFF7CEFA00222946204601F068
:1011600042F91E20FFF7C6FA7F1CFFB2162FEBD301
:1011700001222946204601F036F91E20FFF7BAFA6F
:1011800000222946204601F02EF91E20FFF7B2FA70
:101190000120800200900020694608710120C8717A
:1011A000204601F0BCF83046FEBD10B5FFF743FC09
:1011B000FFF7C2FD0C2802D043A002F02DFF10BDA6
:1011C000F0B5464E85B0306802F071FD0546FFF778
:1011D0005AFF02F06CFD04466800000E22D0204643
:1011E00002F080FD3E4A3F4B0391029002F0ECFC7E
:1011F00007462846049102F075FD3A460191009099
:10120000049B02F083FD0CD3374A384B03990298B4
:1012100002F0DAFC02460B460199009802F08AFDC2
:1012200000D22C466000000E1AD0204602F05AFD73
:101230002F4A304B02F0C8FC04460F46284602F005
:1012400051FD2D4A2D4B02F0BFFC22463B4602F0D9
:1012500009FC02F083FD02F031FD306005B0F0BD05
:101260003068FBE77CB50121880401F004FB012014
:10127000C0020090012469460E4E0C710025CD710C
:10128000304601F04CF8A002009069460D71CC7117
:10129000304601F044F87CBDC1430902090A491CEB
:1012A000000202D50120C007014308460121C905FB
:1012B000884370470004004852656164204144201F
:1012C0006572726F720D0A00496E69745F43533123
:1012D000323337206572726F720D0A0014000020DD
:1012E0009A9999999999E93F333333333333F33FDB
:1012F000AE47E17A14AEEF3F7B14AE47E17A843F0C
:1013000070B50446FE4DC00701D0012200E0002266
:101310000121284601F067F86008C00701D00122CA
:1013200000E000220221284601F05DF8A008C00775
:1013300001D0012200E000220421284601F053F8E8
:10134000E008C00701D0012200E000220821284661
:1013500001F049F82009C00701D0012200E0002275
:101360001021284601F03FF86009C00701D0012292
:1013700000E000222021284601F035F8A009C0072E
:1013800001D0012200E000224021284601F02BF884
:10139000E00901D0012200E000228021284601F06E
:1013A00022F870BD70B50126D54D044676030022A3
:1013B0003146284601F017F8A88A000A00022043A7
:1013C000A882D04C00223146204601F00CF80122C0
:1013D0003146204601F007F801223146284601F047
:1013E00002F870BD70B50122C54D04465603314662
:1013F000284600F0F8FFA88A000A00022043A882CD
:10140000C04C00223146204600F0EDFF012231465B
:10141000204600F0E8FF70BDF8B50122B84C054643
:1014200056033146204600F0DEFFA08AE9B2000AEA
:1014300000020843A082B34F00223146384600F034
:10144000D2FF01223146384600F0CDFF012231465D
:10145000204600F0C8FFA08A290A000A00020843BB
:10146000A08200223146384600F0BDFF01223146FD
:10147000384600F0B8FFF8BDF8B507461C461546DB
:101480000E462A20FFF78EFF3804000EFFF7AAFF52
:10149000F8B2FFF7A7FF2804000EFFF7A3FFE8B29A
:1014A000FFF7A0FF2B20FFF77DFF3004000EFFF7B2
:1014B00099FFF0B2FFF796FF2004000EFFF792FFAE
:1014C000E0B2FFF78FFF2C20FFF76CFFF8BD70B57F
:1014D00001228C4D94032146284600F084FF012010
:1014E000FFF71EF900222146284600F07CFF0A2063
:1014F000FFF716F901222146284600F074FF7820F4
:10150000FFF70EF970BDFEB50121480401F0B3F9F3
:101510000121880401F0AFF901217B4801F0ABF90A
:10152000002001F00EF803256D03002168460095A8
:1015300041710124734E04716946304600F0EFFE9C
:101540002946304600F04DFF660368460096047158
:1015500003256B4F45716946384600F0E0FE314681
:10156000384600F03EFF2002009068460471457145
:1015700009206946C00600F0D2FEFF2000906846B0
:10158000047145716946384600F0C9FEFF213846AE
:1015900000F027FFFEBD10B5FFF7B5FFFFF797FF7F
:1015A0003620FFF7FFFE0020FFF71CFF3A20FFF771
:1015B000F9FE0520FFF716FFB220FFF7F3FE0C201F
:1015C000FFF710FF0C20FFF70DFF0020FFF70AFFC9
:1015D0003320FFF707FF3320FFF704FFB720FFF7A3
:1015E000E1FE3520FFF7FEFEBB20FFF7DBFE1920F2
:1015F000FFF7F8FEC020FFF7D5FE2C20FFF7F2FE24
:10160000C220FFF7CFFE0120FFF7ECFEC320FFF75B
:10161000C9FE1220FFF7E6FEC420FFF7C3FE20201C
:10162000FFF7E0FEC620FFF7BDFE0F20FFF7DAFE52
:10163000D020FFF7B7FEA420FFF7D4FEA120FFF7CC
:10164000D1FEE020FFF7AEFED020FFF7CBFE042056
:10165000FFF7C8FE0D20FFF7C5FE1120FFF7C2FE01
:101660001320FFF7BFFE2B20FFF7BCFE3F20FFF744
:10167000B9FE5420FFF7B6FE4C20FFF7B3FE18204A
:10168000FFF7B0FE0D20FFF7ADFE0B20FFF7AAFE1F
:101690001F20FFF7A7FE2320FFF7A4FEE120FFF79E
:1016A00081FED020FFF79EFE0420FFF79BFE0C205A
:1016B000FFF798FE1120FFF795FE1320FFF792FE2B
:1016C0002C20FFF78FFE3F20FFF78CFE4420FFF712
:1016D00089FE5120FFF786FE2F20FFF783FE1F2093
:1016E000FFF780FE1F20FFF77DFE2020FFF77AFE28
:1016F0002320FFF777FE2120FFF754FE112005E09D
:10170000000400480008004802000800FFF74AFEF5
:101710002920FFF747FE10BD70B50646EF230021D4
:101720001A460846FFF7A8FE002400253046FFF7BA
:1017300073FE6D1CF02DF9D3641CF02CF5D370BD35
:10174000F8B51E4617465B1E521EFFF795FE002594
:1017500008E0002403E00698FFF75EFE641CB44234
:10176000F9D36D1CBD42F4D3F8BDF8B515460B4650
:101770000246F74C1F331F32FFF77EFEE8010619C1
:1017800000250127002430783946A1400842F1485D
:1017900001D0806800E04068FFF73EFE641CE4B2C0
:1017A000082CF0D36D1CEDB2761C802DEAD3F8BD69
:1017B00010B50B460246FFF75FFEE6488068FFF76C
:1017C0002BFE10BDFFB581B01F4616460C46019892
:1017D000FFF752FE08E0019D03E00A98FFF71CFEA8
:1017E0006D1CB542F9D9641CBC42F4D905B0F0BDFA
:1017F00008B5D84A4B1D92680092421D401F491FF0
:10180000FFF7E0FF08BDF0B58BB00024161A069074
:101810005D1A601E274604940591002E01DD01210A
:1018200008E0002E05D076420990002D04DD01204D
:101830000BE000210991F8E7002D05D06D420890DA
:10184000AE4204DD344603E000200890F8E72C4661
:1018500000200790601C0A90079819E005990698E7
:10186000FFF7A6FF04987F1980190490A04205DDB8
:10187000001B04900999069840180690A74204DDC1
:10188000089905983F1B401805900798401C079041
:101890000A998842E2D90BB0F0BDF8B51C4615464E
:1018A0000E4607460B46FFF7AEFF3A462346314643
:1018B0001046FFF7A8FF23462A4619463846FFF789
:1018C000A2FF2A46234631461046FFF79CFFF8BD8B
:1018D000F0B50E46074600255000032187B0081AD0
:1018E000144604903FE0711B381B01910090FFF7F4
:1018F0005FFF381901990590FFF75AFF3119781BDE
:1019000002910390FFF754FF01990098FFF750FFF1
:10191000311B01910398FFF74BFF71190391059853
:10192000FFF746FF781901990190FFF741FF0299EF
:101930000198FFF73DFF03990098FFF739FF0498DE
:101940006D1C002804DAA9000818801D049006E028
:10195000281B8100049808180A30641E049031196D
:101960007819FFF725FFA542BDDD07B0F0BDFFB533
:10197000784889B08068069009981C460F46E02890
:1019800028D8E02F26D8203AD6B23B460F33C21DC6
:101990003946FFF771FD002C1ED000243101019162
:1019A0000198002501196C48465C38190790F0072A
:1019B00004D0099807994019FFF7FAFE6D1C7608C4
:1019C000EDB2082DF3D3641CE4B2102CE8D36149C6
:1019D000069888600DB0F0BD00255E4C3101019184
:1019E000019841195C480026475CF80701D0069829
:1019F00000E06068A060FFF70FFD761C7F08F6B27C
:101A0000082EF2D36D1CEDB2102DE9D3DFE7FFB540
:101A100018465843060983B04E4815468068009022
:101A20005908F020039A0C9C471A97429DD3C21A7A
:101A30000498824299D3C31803985B1E0A18521E59
:101A40000499FFF719FD002C03D00024754302957B
:101A500033E000247543019517E0404801990019CF
:101A60000F5C0025F80703D03A490098886002E02F
:101A700038484168816037488068FFF7CDFC6D1CAD
:101A80007F08EDB2082DEDD3641CB442E5D316E017
:101A9000324902980919475C049800250019019001
:101AA000F80704D0039801994019FFF781FE6D1CD7
:101AB0007F08EDB2082DF3D3641CB442E8D3254966
:101AC0000098886051E7FFB51846584305098BB068
:101AD000002420480694806859080790F020089157
:101AE000421A0B99149E8A4264D3C11A0C988142FF
:101AF00060D3C3180B9908985B1E4218521E0C99AC
:101B00000B98FFF7B9FC002E01D000204CE00D9897
:101B100000266843019017E0114901988919475C34
:101B20000024F80703D00B490798886002E00948B1
:101B30004168816007488068FFF76EFC641C7F087D
:101B4000E4B2082CEDD3761CAE42E5D32FE00000C2
:101B5000240000201800002094450008844B000851
:101B6000848700080D98FA49009A68438918475CF1
:101B700008980026401E0590F80706D006990C9894
:101B800041180B980019FFF713FE0598641CA0423A
:101B900003D206980024401C0690761C7F08F6B2FB
:101BA000082EE9D30098401C0090A842DAD3E949F6
:101BB000079888600FB0F0BDFFB518465843060976
:101BC00083B0E4481546806800905908F020039AD5
:101BD0000C9C471A97424AD3C21A0498824246D3B1
:101BE000C31803985B1E0A18521E0499FFF744FCA1
:101BF000002C03D000247543029533E00024754384
:101C0000019517E0D448019900190F5C0025F807E9
:101C100003D0D0490098886002E0CE4841688160D6
:101C2000CC488068FFF7F8FB6D1C7F08EDB2082DEB
:101C3000EDD3641CB442E5D316E0C74902980919F4
:101C4000475C0498002500190190F80704D0039818
:101C500001994019FFF7ACFD6D1C7F08EDB2082D0E
:101C6000F3D3641CB442E8D3BA49009888607CE698
:101C70000246012000E050430B46491EC9B2002B2A
:101C8000F9D17047FFB5002681B01D46074634469E
:101C900023E0281B401EC1B20A20FFF7E9FF0146DE
:101CA000039801F04DFE0A2101F04AFE002E05D1F5
:101CB000681E844202DA002906D001263031E00095
:101CC000C019CAB2002303E0E000C019002320229B
:101CD0000299FFF74CFE641CE4B2AC42D9D385E50F
:101CE000FFB581B01E46074600240A9D18E0281B58
:101CF000401EC1B20A20FFF7BBFF0146039801F066
:101D00001FFE0A2101F01CFE0020009070080A4608
:101D10006043C01933460299FFF779FE641CE4B2B0
:101D2000AC42E4D362E5FFB581B0002704983C469D
:101D300045080A9E2AE0301B401EC1B20A20FFF768
:101D400097FF0146039801F0FBFD0A2101F0F8FD21
:101D50000A46002F05D1701E844202DA002A08D0FC
:101D60000127002000902846019960434018049BF9
:101D700007E0002000902846019960434018049B2A
:101D800020220299FFF79FFE641CE4B2B442D2D332
:101D90002CE5FFB581B01D4617460646002416E027
:101DA000281B401EC1B20A20FFF762FF01463846D9
:101DB00001F0C6FD0A2101F0C3FD3031CAB2E000D6
:101DC000801900230299FFF7D2FD641CE4B2AC42F3
:101DD000E6D30BE5F8B53F2716460D4604467F01CE
:101DE00012E0E02C01D900241035E02D04D90024A4
:101DF00025463846FFF790FC3278002329462046D6
:101E0000FFF7B5FD0834761C30780028E9D1F8BD1D
:101E1000FEB50224204628214843002501902730A2
:101E2000009028462821484302462732009B01990A
:101E3000FFF722FB4F2328211A460846FFF71CFB19
:101E400000264648770038184078FFF7CBFA434819
:101E5000C05DFFF7C7FA19208001761C8642F0DBCF
:101E60006D1C062DDDDB641C062CD3DB39490020FC
:101E70000870FEBD38B53A4C0D23DC220A21B4208F
:101E80000094FFF79FFC2123DC221E21B420009444
:101E9000FFF798FC1E23B7220A21B4200094FFF715
:101EA00091FC2123DF220A21DC200094FFF78AFC29
:101EB0001823E2221221DF200094FFF783FC38BDB3
:101EC000F0B50A2485B0234E0094B0680390222018
:101ED00002909B200190214628232B222046FFF7C9
:101EE000CBFA00251F480026475DF80703D01949A3
:101EF0000398886002E0174841688160154880684F
:101F0000FFF78AFA641C0098E4B2211A02987F084D
:101F1000814201D1009C03E0761CF6B2082EE4D386
:101F200001986D1C8542DDD360E438B50E498842C6
:101F300001D90A2444E09721C900884201D9092423
:101F40003EE009493739884210D9082438E00000BA
:101F50008487000818000020E48A0008E48B000849
:101F6000FFFF000064980008CE0400004749884243
:101F700001D9072424E045492139884201D90624A2
:101F80001EE042494239884201D9052418E03F4900
:101F90006339884201D9042412E03C4984398842DB
:101FA00001D903240CE03949A539884201D902241A
:101FB00006E03B210901884201D9012400E0002408
:101FC000002000901E23DC220D21B720FFF7B8FB74
:101FD000022C02D23F20400100E02D48009060001A
:101FE00022181C230F21B920BC32FFF7EBFB38BDB0
:101FF00038B504462749264888600025B823F022D2
:10200000382128460095FFF79BFB0A21204601F066
:1020100097FCC2B202200C46009080233821002099
:10202000FFF75EFE04229A218720FFF751FC03226E
:102030009A218720FFF74CFC02229A218720FFF784
:1020400047FC01229A218720FFF742FC00229A21B7
:102050008720FFF73DFC0120009080232246382195
:102060008C20FFF73DFE04225821D020FFF730FCE2
:1020700003225821D020FFF72BFC302300224E21D1
:10208000D6200095FFF71FFD38BD00007604000044
:102090001FF8000018000020874910B5884208D1B9
:1020A00044150121204600F00AFC0021204600F0E2
:1020B00006FC10BD30B5C368804A8C6813400A68BE
:1020C0000D792243CC686D032C4322430C69496986
:1020D00022430A431A43C26030BD002101600171EE
:1020E0008160C1600161416170470029816801D050
:1020F000012200E0022211438160704701617047B4
:10210000002A026901D00A4300E08A430261704755
:102110000122D2030029C16801D0114300E091439C
:10212000C1607047012292030029C16801D01143A8
:1021300000E09143C16070470122D2050029C168C7
:1021400001D0114300E09143C1607047090411437D
:1021500001627047C2681F239B069A430A43C2600C
:102160007047012292050029C16801D0114300E0A7
:102170009143C160704701225149D2050028886807
:1021800001D0104300E090438860704701224C4921
:1021900092050028886801D0104300E090438860D1
:1021A00070470122464912060028886801D0104372
:1021B00000E090438860704700238362836A0B438A
:1021C000836242617047012252030029C16801D035
:1021D000114300E09143C1607047012212040029BD
:1021E000C16801D0114300E09143C16070470122F2
:1021F00012030029C16801D0114300E09143C1607E
:102200007047826800210123DB071A4382600F2395
:102210001B038268491CD20FD207994201D0002AC1
:10222000F7D18168002901DB006C704700207047FE
:102230008168102211438160704781680422114334
:1022400081607047006C80B270470029C16802D07D
:102250000122114301E049084900C1607047C2688A
:1022600002239A43C260C2680A43C2607047002AD0
:10227000426801D00A4300E08A4342607047024648
:102280000020CB0104D5926801231B069A4300E08D
:1022900012680A4200D00120704701607047024670
:1022A0005368002012680B400A4202D0002B00D075
:1022B00001207047016070470024014003D2FFFFF6
:1022C00000270140092110B5C906884202D1012129
:1022D0004C0404E05049884209D1012104022046FF
:1022E00000F0E4FA0021204600F0E0FA10BD4B496E
:1022F000884202D101210402F1E74949884202D112
:1023000001210C05EBE74749884202D10121440233
:10231000E5E745498842E9D101218C05DFE7F0B5C1
:102320000022012423460D6893401D409D422AD17E
:102330000D79012D01D0022D12D187685500032699
:10234000AE40B74387604E79AE4085682E438660C5
:1023500085889D43858085888B7993401D43858042
:10236000066855000323AB409E4306600E7907685C
:10237000AE403E430660C6689E43C660CB79AB4024
:10238000C5682B43C360521C102ACBD3F0BD27492C
:10239000016000210171012242718171C171704798
:1023A000012208B512040A430092C261C16100997A
:1023B000C161C169C069009008BD0246128A00204F
:1023C0000A4200D001207047008A70470246928A74
:1023D00000200A4200D001207047808A7047816146
:1023E000704701857047002A01D0816170470185DF
:1023F0007047818270474B07DB0E9A40C90810B5C1
:1024000089000818016A0F249C40A1430162016AF7
:102410001143016210BD000000040048000800489C
:10242000000C00480010004800140048FFFF0000A6
:10243000F84801680122114301604168F64A1140E1
:1024400041600168F54A114001600168012292046F
:102450009143016041683F22120491434160C16A87
:1024600009090901C162016BED4A11400163416B29
:10247000490849004163002181607047E549002215
:102480008A708870704703460020E2495A090CD0D0
:10249000012A0CD0022A0CD0496BDA06D20E012395
:1024A00093400B4200D0012070470968F5E7096AA4
:1024B000F3E7496AF1E718B50020052424030090EA
:1024C0001120FFF7E0FF0099491C0091A14201D0C3
:1024D0000028F5D01120FFF7D6FF002800D00120FA
:1024E00018BDCC4A1168F8239943C0000843106016
:1024F0007047C8490028086802D00122104301E053
:102500004008400008607047C24A516BF823994365
:10251000C000084350637047BE490028486B02D092
:102520000122104301E04008400048637047B94968
:1025300004220028486B01D0904300E01043486318
:102540007047B4490A6A520852000A620A6A0423B0
:102550009A430A620A6A02430A627047AD490A6AEC
:1025600018239A430A620A6A02430A627047A94919
:102570000028486A02D00122104301E040084000D0
:102580004862704710B5A34A53687B24E403A34311
:102590005360536808430343536010BD01229D49B3
:1025A00012060028086801D0104300E0904308603C
:1025B00070470122974912040028486B01D010434C
:1025C00000E0904348637047924AD16A09090901C3
:1025D0000143D162704701228E49D2040028086865
:1025E00001D0104300E0904308607047894A536867
:1025F0001B021B0A00060843184350607047854AB7
:1026000051688908890001435160704781484068DA
:102610000C21084070477F4A5168F02399430143D9
:10262000516070477B4A516807231B02994301435D
:102630005160704777494A6801239B039A434A6077
:102640004A6883B21A434A600A6B8B159A430A633D
:102650000A6B000C02430A6370476E490A6B402301
:102660009A430A630A6B02430A63704769490A6B1B
:1026700010239A430A630A6B02430A637047020FEE
:102680006449012A0AD0022A0A6B0BD003239B0457
:102690009A430A630A6B02430A6370470A6B920803
:1026A0009200F6E703231B04F2E75A490A6B8023E2
:1026B0009A430A630A6B02430A637047F8B5554DA3
:1026C0000446686800210C22564E104005D00428AC
:1026D00003D0082803D00C281AD026601AE06968B5
:1026E000686803228902D2030F0F1040BF1C002824
:1026F0000AD0E86A0107090F3046491C01F020F9A9
:1027000078430146216005E0474839464143F9E7EF
:10271000464820606868464F0006000F3B5C206812
:102720000246DA4062606B685B055B0FFB5CDA4077
:10273000A2602B6BDB0501D43E4B05E06B685B04AC
:1027400001D4530800E09308E3602B6B5F063A4B1B
:1027500003D4394F1237276100E023612F6BFF0646
:1027600001D4666100E060612F6BBF070ED02F6B54
:10277000BF07BF0F012F0BD02F6BBF07BF0F022F5B
:1027800008D02F6BFF43BF0706D006E0A26104E02C
:10279000A06102E0A36100E0A6612F6BBF03BF0F41
:1027A0000FD02F6BBF03BF0F012F0CD02F6BBF03B8
:1027B000BF0F022F09D02F6BBF03BF0F032F06D00F
:1027C00006E0E26104E0E06102E0E36100E0E6616E
:1027D0002F6B3F03BF0F0FD02A6B1203920F012AFA
:1027E0000CD0286B0003800F022809D0286B00034F
:1027F000800F032806D006E0226204E0206202E097
:10280000236200E02662286B000617D40748606246
:10281000F8BD0000001002400CB8FF08FFFFF6FEF4
:10282000ACFEF0FF00127A0000093D00006CDC02F3
:10283000A4020020809FD500008000006162E7E7CD
:1028400035490A6A02430A62704701223249D203BB
:102850000028086A01D0104300E0904308627047E6
:1028600001222D4912040028086A01D0104300E01B
:10287000904308627047284A0029516901D00143FA
:1028800000E0814351617047234A0029916901D0DA
:10289000014300E08143916170471F4A0029D169DB
:1028A00001D0014300E08143D16170471A4A0029F9
:1028B000916A01D0014300E0814391627047164A5A
:1028C0000029D16801D0014300E08143D160704705
:1028D000114A0029116901D0014300E081431161CF
:1028E00070470D4A0029517A01D0014300E081432D
:1028F000517270470848416A012212061143416231
:102900007047054A0146926800200A4200D0012023
:10291000704701498872704700100240F74910B5AE
:10292000884207D101218C032046FFF7C8FF002110
:10293000204627E0F249884202D101214C0404E0FC
:10294000F049884209D101218C042046FFF7C0FFDD
:1029500000212046FFF7BCFF10BDEB49884202D1A1
:102960000121CC04F1E7E949884202D101210C059B
:10297000EBE7E749884208D101212020FFF79FFFBC
:1029800000212020FFF79BFF10BDE249884206D1BD
:1029900001214020FFF793FF00214020F2E7DE49AC
:1029A0008842F1D101218020FFF789FF002180209A
:1029B000E8E730B5044600688BB00D46400840009B
:1029C00020606068032109038843A96801436160AE
:1029D0002068D249EA680840696811432A690243BD
:1029E00011432160A06803210902884369690143FA
:1029F000A1606846FFF762FEC048844201D1069894
:102A00000AE0BF48844201D1079805E0BD488442EE
:102A100001D1089800E0029821680904296800D5CE
:102A2000400000F08DFF2A6852088A4200D8401CFE
:102A30002168090404D50107B94A490F1040084329
:102A4000A0810BB030BD4B21C90101600021416064
:102A500081600C22C16002614161704710B542681B
:102A60000F231B029A4318C923430C6849680C437F
:102A700023431343436010BD002101604160816026
:102A8000C16070470029016802D00122114301E0B2
:102A90004908490001607047002A026801D00A43D2
:102AA00000E08A43026070470122D20300290168D6
:102AB00001D0114300E09143016070470122D2022E
:102AC0000029816801D0114300E091438160704783
:102AD0000122D2040029416801D0114300E0914352
:102AE00041607047012292040029416801D01143DE
:102AF00000E0914341607047002A426801D00A43D8
:102B000000E08A43426070470122D20300294168F5
:102B100001D0114300E09143416070470122D2058A
:102B20000029416801D0114300E0914341607047A2
:102B30004269120E1206426142690A4342617047BD
:102B4000028A120A12020282028A0A430282704731
:102B500002220029016801D0114300E09143016085
:102B60007047826803231B059A43826082680A4388
:102B700082607047012212050029416801D011438B
:102B800000E0914341607047426803235B059A432C
:102B9000426042680A4342607047C905C90D018519
:102BA0007047808CC005C00D704742681202120A3F
:102BB0004260426809060A4342607047012252039C
:102BC0000029016801D0114300E091430160704782
:102BD00002680123DB029A43026002680A43026032
:102BE0007047426810239A43426042680A43426039
:102BF0007047426820239A43426042680A43426019
:102C00007047012292030029416801D0114300E07E
:102C100091434160704708220029816801D0114327
:102C200000E0914381607047028AD2B20282028A38
:102C300009020A430282704720220029816801D0DC
:102C4000114300E0914381607047102200298168A0
:102C500001D0114300E091438160704782680723EF
:102C60005B049A438260826849040A438260704729
:102C700042691202120A4261426909060A4342612C
:102C80007047826804239A43826082680A438260A4
:102C9000704702220029816801D0114300E091436E
:102CA00081607047012292030029816801D011439D
:102CB00000E091438160704782680123DB039A43FF
:102CC000826082680A438260704702681F235B0546
:102CD0009A430260026849050A430260704702682D
:102CE0001F231B049A430260026809040A4302601E
:102CF0007047002A826815D00A4314E0003801406A
:102D00000044004000480040004C0040005000409B
:102D10000014014000180140001C0140F3E9FFFFCE
:102D2000F0FF00008A4382607047826801235B03E2
:102D30009A43826082680A438260704710B50B0430
:102D40001C0E01238B40022C02D0032C02D002E087
:102D5000001D00E008300168002A01D0194300E09E
:102D60009943016010BD002A028B01D00A4300E0A4
:102D70008A4302837047826801231B039A4382605F
:102D800082680A43826070470246D26900200A4284
:102D900000D0012070470162704730B50A04130E5D
:102DA0000122144600258C40012B0ED0022B0ED0A0
:102DB0008368090C2340C0698A401040002B02D070
:102DC000002800D00125284630BD0368F1E743689C
:102DD000EFE70A0C012191400162704730B583781A
:102DE00001210278002B15D09408174BA400E41899
:102DF00023689207D50EFF22AA4093434278920798
:102E0000120EAA401A4322600078C006C00E81400C
:102E10000E4804E0D006C00E81400C4880300160AE
:102E200030BD0B4A0029116901D0014300E0814304
:102E300011617047042207490428086902D09043B1
:102E4000086170471043FBE700E400E000E100E0A8
:102E500000ED00E000E000E0F94910B5884202D141
:102E60000121C4143AE001218907884206D10121D9
:102E70000846FFF72DFD0021012008E0F1498842B6
:102E800008D101210220FFF723FD00210220FFF7D6
:102E90001FFD10BDEC49884206D101211020FFF72B
:102EA00017FD00211020F2E7E849884206D10121F0
:102EB0002020FFF70DFD00212020E8E7E4498842AB
:102EC00007D1841501212046FFF702FD002120468D
:102ED000DDE7E049884209D101210C042046FFF7D3
:102EE000EEFC00212046FFF7EAFC10BDDA498842DB
:102EF00002D101214C04F1E7D8498842F5D10121E2
:102F00008C04EBE710B50288CD4B984206D0012423
:102F1000A407A04202D0CB4CA04203D17024A2430C
:102F20004C882243C84CA04203D0CD4C22400C898F
:102F3000224302804A68C2620A880285984208D009
:102F4000C44A904205D0C44A904202D0C34A90423B
:102F500001D1897A01860121818210BD0021C943F6
:102F600041600021018001814180817270470185AB
:102F700082827047028870239A430A430280704716
:102F800041627047C1627047406A7047008D704768
:102F900002220029018801D0114300E09143018001
:102FA000704704220029018801D0114300E09143B9
:102FB0000180704780220029018801D0114300E080
:102FC000914301807047028808239A430280028857
:102FD0000A43028070470288A14B1A40028002888F
:102FE0000A43028070470029018802D00122114360
:102FF00001E0490849000180704710B50A884B88F4
:10300000CC881A438B8823431A430B891A434B8974
:1030100089891A430A434030828010BD0021018013
:1030200041808180C1800181418181817047403030
:103030000029818803D00122D203114301E0490411
:10304000490C8180704730B5028C520852000284CE
:10305000038C8288048B7025AC43A4080D88A400DF
:1030600025430224A3438C891C434B882343744C7F
:10307000A04208D0774CA04205D0774CA04202D0A5
:10308000764CA0420DD10824A343CC891C430423D1
:103090009C438B882343724C22400C8A14434A8AF7
:1030A00022438280058389684163038430BD70B503
:1030B000028C10239A430284048C8288038B694D0E
:1030C0002B400D782D062D0C1D4320239C438B890E
:1030D0001B051E0C4B8826431B051B0C584C334309
:1030E000A04202D05B4EB04219D15F4E32400E8AF0
:1030F000B604360C3243A04211D18024A343CC89BC
:103100002405240C1C4340239C438B881B051B0C6B
:103110002343564C22404C8AA404240C2243828030
:10312000058389688163038470BD30B5028C504B80
:103130001A400284038C8288848B7025AC43A408D7
:103140000D88A40025434B4C23400C7B2406240C03
:103150001C438B781B061B0C2343394CA04215D112
:10316000424C23408C7B2406240C1C433E4B1C40C9
:103170000B791B061B0C23433F4C22400C8A240571
:10318000240C14434A8A1205120C22438280858340
:103190008968C163038430BD30B5028C374B1A4057
:1031A0000284048C8388828B2E4D2A400D782D0654
:1031B0002D0C1543324A14400A7B1207120C22438D
:1031C0008C782407240C14431D4A904205D12D4AC3
:1031D00013400A8A9205120C134383808583896801
:1031E0000164048430BD00210180418081808160C0
:1031F0008181C18101824182704730B50346183315
:103200000124058C8C40A5430584002910D0082991
:103210000ED0091F0804400CC018016807231B03C7
:103220009943016001681206120C1143016030BD20
:103230004808C01801687023994301600168F4E7E9
:10324000002C014000040040001000400014004029
:10325000002000400040014000440140004801407F
:10326000FFFC0000FF8C0000FFFB0000FFF70000E8
:10327000FFFE0000FFFD0000FFCF0000FFEF000099
:10328000FFDF0000FFBF00004163704781637047AC
:10329000C163704701647047028B70239A430A43ED
:1032A00002837047028BF64B09021A4011430183D7
:1032B0007047828B70239A430A4382837047828BC4
:1032C000EF4B09021A40114381837047002981881E
:1032D00002D00122114301E0490849008180704772
:1032E000028B08239A430A4302837047028BE54B03
:1032F00009021A40114301837047828B08239A43C5
:103300000A4382837047828BDE4B09021A401143C5
:1033100081837047028B04239A430A4302837047D8
:10332000028BD94B09021A40114301837047828BEB
:1033300004239A430A4382837047828BD24B09024B
:103340001A40114381837047028B80239A430A43BA
:1033500002837047028B5204520C0902114301830D
:103360007047828B80239A430A4382837047828B03
:103370005204520C0902114381837047028C0223CC
:103380009A430A4302847047028C08239A430A43F3
:1033900002847047028C20239A430901114301845F
:1033A0007047028C80239A430901114301847047BE
:1033B000028CB64B09021A40114301847047028CFB
:1033C000B04B09021A40114301847047028CB04B84
:1033D00009031A40114301847047028908239A4364
:1033E000028102890A430281704710B50123048CCF
:1033F0008B409C430484038C8A401343038410BD98
:1034000010B50423048C8B409C430484038C8A40B5
:103410001343038410BD04220029818801D0114385
:1034200000E0914381807047828B9A4B1A408283DF
:10343000828B09020A4382837047828B0C239A4352
:103440008283828B0A4382837047028B914B1A409E
:103450000283028B09020A4302837047F0B5048C91
:103460001026B4430484058B048C8B4F1B03090185
:103470003D402B4312021A43A0239C430C43344388
:1034800002830484F0BD028B0C239A430283028BD7
:103490000A430283704770B5048C64086400048496
:1034A000058B048C1B011343F3260A22B543944376
:1034B0002B430C4301210C430383048470BDF8B5F6
:1034C000044608884E888A880B890D4600281DD03E
:1034D000042824D00828208C2AD070490840208451
:1034E000A08B278C31036C4E12023040024318032C
:1034F00010436B4AA08317400F43012109030F4378
:103500002784E9882046FFF78FFFF8BD3146204623
:10351000FFF7C1FFE9882046FFF7B5FFF8BD314648
:103520002046FFF79BFFE9882046FFF78EFFF8BD96
:103530005C4908402084A18B208C3702F3261B01B4
:10354000B14313430B435849A3830840FF21384339
:10355000013108432084E9882046FFF76EFFF8BD5B
:1035600000210180418001228280C1800181704759
:10357000F8B50C464988002601250746002900D1E8
:103580000226A288012A00D102252088238900284A
:10359000384610D0FFF762FFE1883846FFF755FF45
:1035A00023892A4631463846FFF775FFE1883846B9
:1035B000FFF769FFF8BDFFF76EFFE1883846FFF7B8
:1035C00062FF23892A4631463846FFF747FFE188E4
:1035D0003846FFF73AFFF8BD406B7047806B704785
:1035E000C06B7047006C7047002A828901D00A4383
:1035F00000E08A4382817047818270470246128AC6
:1036000000200A4200D001207047C9430182704760
:103610000246138A002092890B400A40002B02D0F8
:10362000002A00D001207047C9430182704711432E
:10363000403001817047002A828901D00A4300E0AE
:103640008A438281704708220029818801D0114372
:1036500000E09143818070470189C908C900018158
:103660007047028970239A430A430281704710B55C
:103670000446FFF7F6FF208907210843208110BD8B
:10368000FF8F0000FFF70000FFFB0000FFFD0000C0
:10369000FFDF0000FFF30000FF0C0000FFEF000061
:1036A000FF5F0000FFFE0000FFF5000070B516464A
:1036B0000D46044660290CD001223146FFF7EBFE8F
:1036C00029462046FFF7CDFF2089072108432081A6
:1036D00070BD01223146FFF7C1FEF1E710B5048944
:1036E0001B021343E4B20B432343038110BD10B507
:1036F0000446FFF7F3FF2089C108C90007200143F2
:10370000702081430143218110BD10B50446FFF7AD
:10371000E5FF2089012189030843208110BD8288AB
:1037200070239A43828082880A438280704702898C
:10373000D208D200028102890A43028170470289BD
:1037400080239A43028102890A430281704770B53F
:103750000689048B058CF608F6000E430C49068199
:103760000C40FF2102310C43AA218D431901114362
:1037700029430483018470BD80220029818801D0FF
:10378000114300E0914381807047403001827047CF
:10379000FCFC000010B54D48016801221143016096
:1037A00041684B4A1140416001684A4A114001603A
:1037B0000168012292049143016041683F22120492
:1037C00091434160C16A09090901C162016BFF228D
:1037D000543291430163416B490849004163002120
:1037E000816000F02EF810BD70B5384D69680C206E
:1037F00001403948394C03D0042901D0082901D0AF
:10380000206014E06A68696803239202DB03160FE4
:103810001940B61C002907D0E96A0907090F491C9D
:1038200000F08EF87043EBE72D4846432660686849
:103830002A490006000F091D085C2168C14021606B
:1038400070BD3CB50022214801920092016801231D
:103850001943016002210524240305680D400095E9
:10386000019D6D1C0195009D002D02D1019DA54279
:10387000F3D10468A40726D500931A4B11221A60CD
:10388000426842604268426042687B23DB039A439D
:10389000426042680523DB041A4342600268012348
:1038A0001B061A43026002689201FCD54268920826
:1038B0009200426042680A43426041680907890FEA
:1038C0000229FAD13CBD00923CBD0000001002402C
:1038D0000CB8FF08FFFFF6FE00127A00B4020020C9
:1038E00000093D00002002400C4880F308880C4885
:1038F0000168090E0B4A914205D10B480B49016042
:103900000B480C4901600C4880470C480047FEE713
:10391000FEE7FEE7FEE7FEE7FEE70000C806002040
:10392000040000001F000000181002400100000009
:10393000000001400000000095370008B5000008B5
:1039400030B50B46014600202022012409E00D4637
:10395000D5409D4205D31D469540491B25469540BF
:1039600040191546521E002DF1DC30BD024670B5DF
:103970004A40D30FDB0740002DD04A002AD0010E69
:10398000140E000212020919400A520A8418E501B5
:1039900004465443000A120A2E045043A419421943
:1039A000200CC543AA18120C0125AD03521C521954
:1039B00012047F39240400D0521C104301D440006B
:1039C000491EC2B20C06C0092018401C4008802ABB
:1039D00002D003E0002070BD40084000002900DA5A
:1039E0000020184370BD70B502464A40D50F400014
:1039F0004A00ED0740085208002814D0002A12D0CF
:103A0000C40DD30D41020120C0055202490A520AD9
:103A1000E41A091812187D34914201D3641C00E0A5
:103A20004900002C01DA002070BD0023914201D32F
:103A3000891A0343400849000028F7D100290AD019
:103A4000914202D10121C90705E0914201D2012131
:103A500001E00121C943E005C018401900F0EDF96B
:103A600070BD0000F0B507460846584087B0C00F4B
:103A7000049048000E46590040084908BC1A884185
:103A800005D2384631461E4617460B4602465800B8
:103A9000400810434CD0300D039040055900400DB4
:103AA000490D0590401A0290402872DA180301214E
:103AB000000B09050843019004980092002805D0E6
:103AC00001995242002088410092019002984021C1
:103AD0000A1A0199009800F08DF905460C466B46CC
:103AE00007CB00F097F9C0197141039A0E0D00231E
:103AF000D71756401A467A40164344D0049A002AF3
:103B00002DD0029A012A039A15DC1205C01A9141A0
:103B100001263605001C7141D20F059ED207009385
:103B2000019202962A46234600F0D5F907B0F0BD6F
:103B300038463146FAE71605224A0F46B218C01A2F
:103B4000B74101210905001C4F4100187F41114672
:103B500018187941E20F10436D19644113E0E20730
:103B60006D0815436408C2071443039A0126120521
:103B7000C01A91413605001C7141CE074008304300
:103B80004908C01851412A46234600F097F9CDE76D
:103B9000FFE7049801224000C117121A00238B414D
:103BA00004983146C417381AA141EEE730B4012415
:103BB000E407634030BC55E730B40124E4076140BA
:103BC00030BC4FE70000E0FFF0B51FB488B00B99A0
:103BD0000998002448400999C00F490049080991F3
:103BE000C0070B990090490049080B910999089862
:103BF000A64608431CD00B990A98084318D0099888
:103C000001244000420D4800410D0998240500039D
:103C1000000B204309900B980003000B20430B90EE
:103C200050181C494018002201901446104605E027
:103C3000002001460DB0F0BD032801DA034600E084
:103C400003239C46C11A0AAE0AE05F0008ADED5B93
:103C50004F00F75B7D430027AA187C41491C5B1E7F
:103C60006145F2DD410004AB5A522104120C0A43B3
:103C7000240C401C0828DFDB019802900099704654
:103C800001910090059B049A0799069800F023F98A
:103C9000D0E700000DFCFFFFC217C10F504010B568
:103CA0004018CA079623002100F0CFF810BD10B5C8
:103CB00000229623114600F0C8F810BD41004002D2
:103CC0000122400AD205090E80187F2901DA00205E
:103CD0007047962903DC9622511AC84070479639DE
:103CE00088407047C20FD207400040080BD0C10D7A
:103CF0000723DB01C91840020905400A1143C20825
:103D000040071143704700200146704710B5002955
:103D100004DB0124E40740428C412146002B04DBF4
:103D20001C460123DB075242A3418B4200D1824251
:103D300010BD000010B5002904DB0124E407404257
:103D40008C412146002B04DB1C460123DB07524239
:103D5000A341994200D1904210BD0000CB0FDB0778
:103D6000490010B5490802460A4307D00A0D072446
:103D70000903E401090B121B002A01DC002010BD1D
:103D8000C900440F0C43C100E018D205801800F0B0
:103D900054F810BDF0B51FB40646002082B00546A9
:103DA0004024019100901BE0019922460F463046C5
:103DB00000F0F6F8049A059B801A994110D310463A
:103DC0001946224600F016F8361A8F41019722460E
:103DD00001200021009F00F00DF838184D4100909F
:103DE0002046641E0028DFDC019B009829463246ED
:103DF00007B0F0BD10B5202A04DB0146203A9140FF
:103E0000002010BD914020239C1A0346E340194333
:103E1000904010BD10B5202A06DBCB170846203A8B
:103E20001041C1170B4306E00B461341D04020243C
:103E3000A21A91400843194610BD002904DA401C1B
:103E4000490001D140084000704770B40024050CBF
:103E500005D11024000402D1002921D01124050E1F
:103E600001D100020834050F01D10001241D850F86
:103E700001D18000A41C002801DB4000641C002943
:103E800008D020252E1B0D46F540A14000D0012171
:103E90002943084301061B1B000ADB1D02D5002035
:103EA00070BC7047DB05181880180029F8DA401C30
:103EB0004900F5D170BC40084000704710B5002B98
:103EC00008DA0024401C614192185B411A4301D179
:103ED0004008400010BDF0B51FB482B005460C008C
:103EE00003D0084600F0A8F802E000F0A5F8203062
:103EF0000246009021462846FFF77CFF049B059A66
:103F000004460F4618431143084314D01846104383
:103F10001BD0009840210A1A1846059900F040F875
:103F200005460E46009A05990498FFF763FF08437B
:103F300005D0012004E02046394607B0F0BD00203E
:103F4000C11705430E432C43374300990E98630570
:103F5000401A7905E40A00220C43FD0A0A3002D512
:103F600000200146E9E70105101969410C9C0D9DEF
:103F700000196941FFF7A2FFDFE70000064C0125A9
:103F8000064E05E0E36807CC2B430C3C9847103401
:103F9000B442F7D3FCF792F8009900082099000882
:103FA00010B5202A04DB0846203AD040002110BD7D
:103FB0000B46D340D0402024A21A91400843194612
:103FC00010BD70B58C180578401C6B075B0F01D1D4
:103FD0000378401C2A1106D10278401C03E00678C1
:103FE0000E70401C491C5B1EF9D12B0705D4002321
:103FF000521E0DD40B70491CFAE70378401CCB1AF3
:10400000921C03E01D780D70491C5B1C521EF9D5F3
:10401000A142D8D3002070BD0FB410B503A9044B42
:10402000044A029800F02EF810BC08BC04B01847EF
:104030005F070008040000202021020C01D010219D
:104040001046020A01D010460839020901D0104674
:10405000091F820801D01046891E420801D0881E1F
:104060007047081A704702E008C8121F08C1002AEA
:10407000FAD170477047002001E001C1121F002AE9
:10408000FBD17047FFB58FB00F460446002606E00F
:1040900025280AD0129A11999047641C761C207822
:1040A0000028F5D1304613B0F0BD00250121A14A0A
:1040B000009500E00543641C23780846203B9840A7
:1040C0001042F7D120782E2815D1042005436078BE
:1040D000641C2A280AD101CF641C00900BE00099CF
:1040E0000A22514330394018641C00902078014660
:1040F00030390929F3D920786C280ED004DC4C28FB
:1041000013D06A2812D104E074280ED07A280DD179
:104110000BE001204005054307E001210905627815
:104120000D43824201D16D18641C641C20788646C0
:1041300069284AD008DC0028B4D058286DD06328FC
:1041400010D0642808D140E070286BD0732812D0BA
:10415000752860D0782860D0129A704611999047DF
:10416000761CE5E03878694608720020487202A89B
:104170000190012003E0386801900020C0433F1DFA
:1041800069070CD5002500E06D1C00998D420FDAFF
:104190008542F9DB0199495D0029F5D108E0002548
:1041A00000E06D1C8542FCDB0199495D0029F8D1D6
:1041B000761907E0019801990078491C0191129A3B
:1041C000119990476D1EF5D2B2E00A2002900021AD
:1041D0006802400F039102280CD001CFC11784461A
:1041E00000290DDA62460846524200218141944678
:1041F0002D2008E0FF1DFF08FF0003CF8446EFE7F6
:10420000280504D52B206A46107401203CE0E807FD
:104210003AD02020F7E70A2000E010200021039187
:10422000029007E01020029000210420054308209E
:10423000039100906802400F022810D001CF0021A6
:10424000844600200D9028071FD5704670280CD09A
:10425000029A1020039B42401A430CD015E0FF1D28
:10426000FF08FF0003CF8446EBE740206A46107446
:1042700001200D900CE06046084306D030206A46CD
:1042800010747046507402200D907046582804D067
:1042900029A001900DA80E900DE02CA0F9E7604632
:1042A000039B029AFFF776FD019B84469B5C0E9A66
:1042B000521E0E92137060460843F0D10E9805A965
:1042C000081A20300190680701D5009801E001200C
:1042D00000900199884203DD01460198081A00E028
:1042E00000200025009006E004A8129A405D119974
:1042F00090476D1C761C0D988542F5DB04E0129A00
:10430000302011999047761C0099481E0090002992
:10431000F5DC08E00E980E990078491C0E91129A6F
:1043200011999047761C0199481E01900029F1DCF3
:10433000641CB4E609280100303132333435363795
:1043400038396162636465660000000030313233E1
:104350003435363738394142434445460000000081
:104360007E0800005B080000380800001408000008
:10437000F0070000CC070000A80700008407000039
:104380005F0700003B07000016070000F206000070
:10439000CD060000A90600008506000061060000A9
:1043A0003D0600001A060000F6050000D3050000D7
:1043B000B10500008F0500006D0500004B050000F1
:1043C0002A05000009050000E9040000CA040000F5
:1043D000AA0400008C0400009FA9000031AC00007A
:1043E000C3AE000055B1000079B600009DBB0000CF
:1043F0002FBE0000C1C0000053C30000E5C500008F
:1044000076C8000008CB00009ACD00002CD0000038
:10441000BED20000E2D7000074DA000006DD000022
:1044200098DF00002AE20000BCE400004EE7000034
:10443000E0E9000071EC000003EF000095F10000DE
:1044400027F40000B9F600004BF900006FFE0000F1
:10445000010101009303010025060100B7080100D6
:10446000490B0100DB0D01006C100100FE12010080
:104470009015010022180100B41A0100461D010028
:10448000D81F01006A220100FC2401008E270100D0
:10449000202A0100B22C0100442F0100D631010076
:1044A00067340100F93601008B3901001D3C010021
:1044B000AF3E010041410100D343010065460100C8
:1044C000F7480100894B01001B4E0100AD5001006F
:1044D0003F530100D155010062580100F45A010018
:1044E000865D010018600100AA6201003C650100C0
:1044F000CE670100606A0100F26C0100846F010068
:1045000016720100A87401003A770100CC7901000D
:104510005D7C0100EF7E01008181010013840100B8
:10452000A586010037890100C98B01005B8E01005F
:10453000ED9001007F93010011960100A398010006
:10454000359B0100C79D010058A00100EAA20100AF
:104550007CA501000EA80100A0AA010032AD010057
:10456000C4AF010056B20100E8B401007AB70100FF
:104570000CBA01009EBC010030BF0100C2C10100A5
:1045800054C40100E5C6010077C9010009CC01004F
:104590009BCE0100000000000000000000000000B1
:1045A00000000000000000080808080808080000D3
:1045B0001818000000486C241200000000000000E1
:1045C000000000000000002424247F1212127F1239
:1045D000121200000000081C2A2A0A0C1828282A97
:1045E0002A1C080800000022251515152A585454C5
:1045F000542200000000000C1212120A7625291124
:10460000916E000000060604030000000000000098
:1046100000000000004020101008080808080810DA
:10462000102040000002040808101010101010089C
:10463000080402000000000008086B1C1C6B08083E
:104640000000000000000000080808087F080808B3
:104650000800000000000000000000000000000052
:10466000060604030000000000000000FE00000039
:10467000000000000000000000000000000000003A
:1046800006060000000080404020201010080804AA
:104690000402020000000018244242424242424208
:1046A00024180000000000080E0808080808080880
:1046B000083E00000000003C424242202010080456
:1046C000427E00000000003C424220182040404250
:1046D000221C0000000000203028242422227E20FA
:1046E000207800000000007E0202021A26404042AC
:1046F000221C0000000000382402021A2642424216
:10470000241800000000007E22221010080808086B
:10471000080800000000003C4242422418244242A3
:10472000423C0000000000182442424264584040CD
:10473000241C000000000000000018180000000009
:104740001818000000000000000000080000000031
:1047500000080804000000402010080402040810AB
:10476000204000000000000000007F0000007F00EB
:104770000000000000000002040810204020100883
:10478000040200000000003C42424640201010009D
:10479000181800000000001C225A555555552D428E
:1047A000221C00000000000808181414243C2242B7
:1047B00042E700000000001F2222221E2242424245
:1047C000221F00000000007C424201010101014261
:1047D000221C00000000001F22424242424242428C
:1047E000221F00000000003F4212121E121202425D
:1047F000423F00000000003F4212121E121202024D
:10480000020700000000003C222201010171212268
:10481000221C0000000000E7424242427E42424227
:1048200042E700000000003E0808080808080808E1
:10483000083E00000000007C101010101010101036
:104840001010110F0000007722120A0E0A12122215
:1048500022770000000000070202020202020202A8
:10486000427F000000000077363636362A2A2A2A90
:104870002A6B0000000000E346464A4A5252526248
:10488000624700000000001C22414141414141417A
:10489000221C00000000003F424242423E0202024F
:1048A000020700000000001C2241414141414D53DC
:1048B000321C60000000003F4242423E121222229F
:1048C00042C700000000007C42420204182040421F
:1048D000423E00000000007F490808080808080858
:1048E000081C0000000000E74242424242424242AD
:1048F000423C0000000000E7424222242414141825
:10490000080800000000006B494949495555362206
:1049100022220000000000E7422424181818242452
:1049200042E700000000007722221414080808085B
:10493000081C00000000007E212010100804044222
:10494000423F00000078080808080808080808081E
:10495000080878000000020204040808081010206B
:1049600020204040001E10101010101010101010C9
:1049700010101E000038440000000000000000007D
:104980000000000000000000000000000000000027
:10499000000000FF0006080000000000000000000A
:1049A00000000000000000000000003C427844428B
:1049B00042FC0000000000030202021A26424242AA
:1049C000261A000000000000000000384402020225
:1049D00044380000000000604040407844424242B9
:1049E00064D80000000000000000003C427E02028B
:1049F000423C0000000000F08808087E0808080813
:104A0000083E0000000000000000007C22221C0282
:104A10003C42423C000000030202023A464242424B
:104A200042E700000000000C0C00000E0808080817
:104A3000083E000000000030300000382020202018
:104A40002020221E0000000302020272120A161227
:104A5000227700000000000E08080808080808086F
:104A6000083E0000000000000000007F9292929239
:104A700092B70000000000000000003B46424242A6
:104A800042E70000000000000000003C42424242B9
:104A9000423C0000000000000000001B2642424291
:104AA000221E02070000000000000078444242423B
:104AB000447840E000000000000000774C0404044B
:104AC000041F0000000000000000007C42023C4087
:104AD000423E0000000000000008083E08080808E8
:104AE0000830000000000000000000634242424223
:104AF00062DC000000000000000000E742242414F3
:104B00000808000000000000000000EB494955556E
:104B1000222200000000000000000076241818186F
:104B2000246E000000000000000000E7422424146E
:104B300018080807000000000000007E2210080886
:104B4000447E000000C020202020201020202020B3
:104B50002020C00010101010101010101010101095
:104B600010101010000608080808081008080808A7
:104B7000080806000C32C20000000000000000001F
:104B80000000000000000000000000000000000025
:104B90000000000000000000000000000000000015
:104BA0000000000000000000000000000000000005
:104BB00000000000000000000000000000000000F5
:104BC00000000000000000000000000000000000E5
:104BD00000000000000000000000000000000000D5
:104BE00000000000000000000000000000000000C5
:104BF00000000000000000000000000000000000B5
:104C000000000000000000000000000000000000A4
:104C10000000000000000000000000000000000094
:104C2000000000000000000000000000000000F88C
:104C30007F000000000000FFFF0300000000C0FF35
:104C4000FF0F00000000E0FFFF3F00000000F8FF42
:104C5000FF7F00000000FCFFF8FF00000000FE3FA7
:104C6000E0FF01000000FF0F80FF03000080FF074E
:104C700000FF07000080FF0700FE0F0000C0FF03D9
:104C800000FE0F0000E0FF0100FC1F0000E0FF003D
:104C900000FC3F0000F0FF0000F83F0000F07F0044
:104CA00000F87F0000F87F0000F07F0000F87F0030
:104CB00000F0FF0000FC3F0000E0FF0000FC3F00B0
:104CC00000E0FF0000FC1F0000E0FF0100FE1F00ED
:104CD00000E0FF0100FE1F0000C0FF0100FE0F000A
:104CE00000C0FF0300FF0F0000C0FF0300FF0F0024
:104CF00000C0FF0300FF0F000080FF0300FF0F0054
:104D00000080FF0780FF07000080FF0780FF07008B
:104D10000080FF0780FF07000080FF0780FF07007B
:104D20000080FF0780FF07000080FF0780FF07006B
:104D30000080FF07C0FF07000000FF0FC0FF030057
:104D40000000FF0FC0FF03000000FF0FC0FF0300C3
:104D50000000FF0FC0FF03000000FF0FC0FF0300B3
:104D60000000FF0FC0FF03000000FF0FC0FF0300A3
:104D70000000FF0FC0FF03000000FF0FC0FF030093
:104D80000000FF0FC0FF03000000FF0FC0FF030083
:104D90000000FF0FC0FF03000000FF0FC0FF030073
:104DA0000000FF0FC0FF03000000FF0FC0FF030063
:104DB0000000FF0FC0FF03000000FF0FC0FF030053
:104DC0000000FF0FC0FF03000000FF0FC0FF030043
:104DD0000000FF0FC0FF03000000FF0FC0FF07002F
:104DE0000000FF0F80FF07000080FF0780FF070023
:104DF0000080FF0780FF07000080FF0780FF07009B
:104E00000080FF0780FF07000080FF0780FF07008A
:104E10000080FF0700FF0F000080FF0300FF0F006E
:104E200000C0FF0300FF0F0000C0FF0300FF0F00E2
:104E300000C0FF0300FF0F0000C0FF0300FE1F00C3
:104E400000C0FF0100FE1F0000E0FF0100FE1F0088
:104E500000E0FF0100FC3F0000E0FF0000FC3F001D
:104E600000F0FF0000F83F0000F07F0000F87F0036
:104E700000F07F0000F07F0000F83F0000F0FF002E
:104E800000F83F0000E0FF0000FC1F0000E0FF0111
:104E900000FC1F0000C0FF0300FE0F000080FF03A6
:104EA00000FF07000080FF0780FF07000000FF0FE2
:104EB000C0FF03000000FE3FE0FF01000000FCFF18
:104EC000F8FF00000000F8FFFF7F00000000E0FF97
:104ED000FF3F00000000C0FFFF0F0000000000FFC8
:104EE000FF030000000000F87F0000000000000049
:104EF00000000000000000000000000000000000B2
:104F000000000000000000000000000000000000A1
:104F10000000000000000000000000000000000091
:104F20000000000000000000000000000000000081
:104F30000000000000000000000000000000000071
:104F40000000000000000000000000000000000061
:104F50000000000000000000000000000000000051
:104F60000000000000000000000000000000000041
:104F70000000000000000000000000000000000031
:104F80000000000000000000000000000000000021
:104F90000000000000000000000000000000000011
:104FA0000000000000000000000000000000000001
:104FB00000000000000000000000000000000000F1
:104FC00000000000000000000000000000000000E1
:104FD00000000000000000000000000000000000D1
:104FE00000000000000000000000000000000000C1
:104FF00000000000000000000000000000000000B1
:1050000000000000000000000000000000000000A0
:105010000000000000000000000000000000000090
:105020000000000000000000000000000000000080
:105030007C000000000000007E0000000000000076
:105040007F000000000000007F00000000000080E2
:105050007F000000000000E07F000000000000F87A
:105060007F000000000000FF7F00000000C0FFFF85
:105070007F00000000C0FFFF7F00000000C0FFFFB6
:105080007F00000000C0FFFF7F00000000C0FFFFA6
:105090007F000000000000FC7F000000000000F81E
:1050A0007F000000000000F07F000000000000F022
:1050B0007F000000000000F07F000000000000F012
:1050C0007F000000000000F07F000000000000F002
:1050D0007F000000000000F07F000000000000F0F2
:1050E0007F000000000000F07F000000000000F0E2
:1050F0007F000000000000F07F000000000000F0D2
:105100007F000000000000F07F000000000000F0C1
:105110007F000000000000F07F000000000000F0B1
:105120007F000000000000F07F000000000000F0A1
:105130007F000000000000F07F000000000000F091
:105140007F000000000000F07F000000000000F081
:105150007F000000000000F07F000000000000F071
:105160007F000000000000F07F000000000000F061
:105170007F000000000000F07F000000000000F051
:105180007F000000000000F07F000000000000F041
:105190007F000000000000F07F000000000000F031
:1051A0007F000000000000F07F000000000000F021
:1051B0007F000000000000F07F000000000000F011
:1051C0007F000000000000F07F000000000000F001
:1051D0007F000000000000F07F000000000000F0F1
:1051E0007F000000000000F07F000000000000F0E1
:1051F0007F000000000000F07F000000000000F0D1
:105200007F000000000000F07F000000000000F0C0
:105210007F000000000000F07F000000000000F0B0
:105220007F000000000000F07F000000000000F0A0
:105230007F000000000000F07F000000000000F090
:105240007F000000000000F07F000000000000F080
:105250007F000000000000F07F000000000000F070
:105260007F000000000000F07F000000000000F060
:105270007F000000000000F07F000000000000F050
:105280007F000000000000F07F000000000000F040
:105290007F000000000000F07F000000000000F828
:1052A000FF000000000000F8FF000000000000FC0C
:1052B000FF010000000000FEFF030000000080FF6F
:1052C000FF0F000000C0FFFFFFFF1F0000C0FFFF37
:1052D000FFFF1F0000C0FFFFFFFF1F0000C0FFFF18
:1052E000FFFF1F0000C0FFFFFFFF1F0000000000C6
:1052F00000000000000000000000000000000000AE
:10530000000000000000000000000000000000009D
:10531000000000000000000000000000000000008D
:10532000000000000000000000000000000000007D
:10533000000000000000000000000000000000006D
:10534000000000000000000000000000000000005D
:10535000000000000000000000000000000000004D
:10536000000000000000000000000000000000003D
:10537000000000000000000000000000000000002D
:10538000000000000000000000000000000000001D
:10539000000000000000000000000000000000000D
:1053A00000000000000000000000000000000000FD
:1053B00000000000000000000000000000000000ED
:1053C00000000000000000000000000000000000DD
:1053D00000000000000000000000000000000000CD
:1053E00000000000000000000000000000000000BD
:1053F00000000000000000000000000000000000AD
:10540000000000000000000000000000000000009C
:10541000000000000000000000000000000000008C
:10542000000000000000000000000000000000FE7E
:10543000FF0000000000C0FFFF0F00000000F8FFA9
:10544000FF3F00000000FCFFFFFF00000000FFFF27
:10545000FFFF030000C0FF0FFCFF070000E0FF019B
:10546000E0FF0F0000F07F0080FF1F0000F83F000A
:1054700000FE1F0000FC1F0000FC3F0000FC0F00AE
:1054800000FC7F0000FE070000F87F0000FE030024
:1054900000F07F0000FF030000F0FF0000FF0300AA
:1054A00000E0FF0000FF030000E0FF0080FF0300BA
:1054B00000E0FF0180FF030000E0FF0180FF070024
:1054C00000C0FF0180FF070000C0FF0180FF0F0048
:1054D00000C0FF0180FF0F0000C0FF0180FF1F0020
:1054E00000C0FF0180FF1F0000C0FF0180FF1F0000
:1054F00000C0FF0180FF1F0000C0FF0180FF1F00F0
:1055000000E0FF0100FF1F0000E0FF0100FF1F009F
:1055100000E0FF0000FE0F0000E0FF0000FC0700BD
:1055200000F0FF000000000000F0FF00000000009D
:1055300000F87F000000000000F87F00000000007D
:1055400000FC3F000000000000FC3F0000000000E5
:1055500000FE1F000000000000FE1F000000000011
:1055600000FF0F000000000080FF0F00000000009F
:1055700080FF070000000000C0FF030000000000E3
:10558000E0FF010000000000F0FF0000000000004C
:10559000F0FF000000000000F87F000000000000A5
:1055A000FC3F000000000000FE1F000000000000A3
:1055B000FF0F000000000080FF070000000000C097
:1055C000FF030000000000E0FF010000000000F009
:1055D000FF000000000000F87F000000000000FC59
:1055E0003F000000000000FE1F000000000000FF60
:1055F0000F000000000080FF070000000000C0FF57
:10560000030000000000E0FF010000000000F0FFC8
:10561000000000000000F07F000000000000F83FE4
:10562000000000000000FC1F000000000000FE0F52
:10563000000000000000FF070000F0030080FF03EF
:105640000000F00300C0FF010000F00300E0FF00D5
:105650000000F80300E0FF000000F80300F07F0006
:105660000000F80300F83F000000FC0100FC1F00F0
:105670000000FC0100FC0F000000FC0100FE070020
:105680000000FE0100FF07000000FF0100FF030013
:105690000080FF0180FF010000C0FF01C0FF00008B
:1056A00000F0FF00C0FFFFFFFFFFFF00C0FFFFFF94
:1056B000FFFFFF00C0FFFFFFFFFFFF00C0FFFFFF76
:1056C000FFFFFF00C0FFFFFFFFFFFF00C0FFFFFF66
:1056D000FFFFFF00C0FFFFFFFFFF7F00C0FFFFFFD6
:1056E000FFFF7F00C0FFFFFFFFFF7F000000000003
:1056F00000000000000000000000000000000000AA
:105700000000000000000000000000000000000099
:105710000000000000000000000000000000000089
:105720000000000000000000000000000000000079
:105730000000000000000000000000000000000069
:105740000000000000000000000000000000000059
:105750000000000000000000000000000000000049
:105760000000000000000000000000000000000039
:105770000000000000000000000000000000000029
:105780000000000000000000000000000000000019
:105790000000000000000000000000000000000009
:1057A00000000000000000000000000000000000F9
:1057B00000000000000000000000000000000000E9
:1057C00000000000000000000000000000000000D9
:1057D00000000000000000000000000000000000C9
:1057E00000000000000000000000000000000000B9
:1057F00000000000000000000000000000000000A9
:105800000000000000000000000000000000000098
:105810000000000000000000000000000000000088
:10582000000000000000000000000000000000FF79
:105830003F0000000000E0FFFF0300000000FCFF4D
:10584000FF0F00000000FFFFFF3F00000080FFFF90
:10585000FF7F000000C0FF07FEFF000000F0FF0018
:10586000F0FF010000F03F00E0FF030000F81F0020
:1058700080FF070000FC0F0000FF0F0000FE070084
:1058800000FF0F0000FE070000FE1F0000FE0700E3
:1058900000FC3F0000FF070000FC3F0000FF070086
:1058A00000F83F0000FF0F0000F87F0000FF1F001E
:1058B00000F87F0000FF1F0000F87F0000FF1F00BE
:1058C00000F07F0000FF1F0000F07F0000FF1F00BE
:1058D00000F07F0000FF1F0000F07F0000FF1F00AE
:1058E00000F07F0000FE0F0000F07F0000FC0F00C2
:1058F00000F07F0000F8070000F87F0000000000C3
:1059000000F83F000000000000F83F000000000029
:1059100000FC3F000000000000FC1F000000000031
:1059200000FE1F000000000000FE0F00000000004D
:1059300000FF0F000000000080FF070000000000D3
:10594000C0FF030000000000F0FF010000000000A5
:10595000FCFF0000000000C0FF7F0000000000FF0F
:10596000FF1F0000000000FFFF070000000000FF15
:10597000FF070000000000FFFF1F0000000000FF05
:10598000FF7F000000000080FFFF0000000000001B
:10599000F0FF030000000000C0FF0700000000004F
:1059A00000FF0F000000000000FE1F0000000000CC
:1059B00000FC3F000000000000F83F000000000075
:1059C00000F07F000000000000F07F0000000000F9
:1059D00000E0FF000000000000E0FF000000000009
:1059E00000C0FF010000000000C0FF010000000037
:1059F00000C0FF010000000000C0FF010000000027
:105A00000080FF03000000000080FF030000000092
:105A10000080FF03000000000080FF0300F8030087
:105A20000080FF0300FC07000080FF0300FE0F0062
:105A30000080FF0300FF0F000080FF0300FF1F0036
:105A40000080FF0380FF1F000080FF0380FF1F0016
:105A500000C0FF0380FF1F0000C0FF0180FF1F0088
:105A600000C0FF0180FF1F0000C0FF0180FF1F007A
:105A700000E0FF0080FF0F0000E0FF0080FF0F004C
:105A800000F0FF0000FF070000F07F0000FF0700AC
:105A900000F83F0000FE070000F83F0000FE0F0086
:105AA00000FC1F0000FC1F0000FF0F0000F83F007B
:105AB00080FF070000F0FF00E0FF030000E0FF07A9
:105AC000FCFF010000C0FFFFFFFF00000000FFFF20
:105AD000FF3F00000000FEFFFF0F00000000F0FF8E
