:020000040800F2
:1000000050140020C54C0008E5130008E713000851
:1000100000000000000000000000000000000000E0
:10002000000000000000000000000000E9130008CC
:100030000000000000000000EB130008ED130008B2
:10004000F54C000800000000F54C0008F54C0008D5
:10005000F54C0008F54C0008F54C0008F54C00087C
:1000600000000000F54C0008F54C0008F54C0008B5
:10007000F54C0008F54C0008F54C000800000000A5
:100080009D1600080000000000000000F54C00086C
:10009000F54C0008F54C0008F54C0008F54C00083C
:1000A000F54C0008F54C0008F54C0008191500083F
:1000B000F54C00080348854605F0C8F8004800479D
:1000C0003701000850140020FEB521200121400412
:1000D00003F045FC0120C002009001246846047131
:1000E000032509274571FF066946384603F08BF959
:1000F000F8130090002668460671C4714571694680
:10010000384603F080F9C020009068460671C4713B
:1001100045716946FE4803F076F910200090684664
:10012000047145716946384603F06DF9102138466F
:1001300003F0CBF9FEBDA4B0FFF7C6FF01220920F2
:10014000D102C00603F0C3F901F052F94B20C001FF
:1001500001F09DF9EFA005F09DF801F0F7F92F21CE
:100160003B2001F06BFA02F02AFB002002F0E8FBD2
:10017000ED4EEC483060ED480A2100901F2322220A
:10018000084602F028FEEA4D3560EA480024009057
:1001900020230F2208210194342002F03AFCE54884
:1001A00000902023102208210194482002F031FC05
:1001B000E048009020231122082101945C2002F0E5
:1001C00028FCDC4800902023122208210194702092
:1001D00002F01FFC02F03CFED74802F05FFE042153
:1001E000022001F002FA07460146D4A005F052F8B9
:1001F000384602F053FED54830600221D4480191C0
:1002000000908023582202943821002002F079FCCB
:1002100004229A21872002F035FD03229A218720AB
:1002200002F030FD02229A21872002F02BFD0122EC
:100230009A21872002F026FD00229A21872002F0D1
:1002400021FD0120C24900910190802308220294DF
:1002500038218C2002F055FC04225821D02002F0D5
:1002600011FD03225821D02002F00CFD0120B849D5
:10027000009101908023082202944E21D62002F0A2
:1002800040FC3F20400130600221B2483023019100
:10029000009058220294BE21184602F032FC03223C
:1002A000E121662002F0EEFC0222E121662002F04C
:1002B000E9FC0122E121662002F0E4FC0022E121B8
:1002C000662002F0DFFC0120A2490091019030235A
:1002D00008220294BE216C2002F013FC0322CD21DF
:1002E0008A2002F0CFFC0222CD218A2002F0CAFC33
:1002F0009848009030230E22BE2101948E2002F0F7
:1003000088FBFF2109200131C00603F0DCF87D20C5
:10031000000101F095F8F0231A46BE210020009458
:1003200002F022FBB823F02238210020009402F0D2
:100330001BFB35608E233C2282210A20009502F0AF
:100340001BFC8E23782282214620009502F014FCAB
:1003500000229821892002F095FC01229821892011
:1003600002F090FC02229821892002F08BFC0322EB
:100370009821892002F086FC04229821892002F02D
:1003800081FC05229821892002F07CFC8E23C82262
:1003900082219620009502F0EFFB04224621CD2019
:1003A00002F070FC03224621CD2002F06BFC69486C
:1003B000009030230E2246210194D22002F029FB26
:1003C00001F0E4FD01F0CBF901F083FD01F048FB01
:1003D000014661A004F05EFF01F043FE654C1E2261
:1003E0002146654801F05AFF642001F029F81E22D9
:1003F00021461BA801F0B6FE00241BAD295D5FA0BD
:1004000004F048FF641CE4B21D2CF7D35CA004F098
:1004100041FF0A2200210DA801F0A4FE08A8017DD9
:10042000552971D057A004F035FF002001461790E0
:1004300060A004F02FFF00201990642001F000F864
:1004400001250926ED03F6062946304603F029F872
:1004500000285AD040212E4803F023F8002855D018
:1004600001201A90584800240480199800284ED082
:10047000564801881E294AD9048000200094B823D8
:10048000F0223821199002F06FFA2748284D0560B4
:100490008E233C2282210A20009502F06DFB8E23E0
:1004A000782282214620009502F066FB00229821E6
:1004B000892002F0E7FB01229821892002F0E2FB6B
:1004C00002229821892002F0DDFB03229821892055
:1004D00002F0D8FB04229821892002F0D3FB0522E8
:1004E0009821892002F0CEFB8E23C82282219620FB
:1004F000009502F041FB04224621CD2002F0C2FB10
:1005000003224621CD2063E06EE076E013E1EBE3C9
:100510000014004855736172742054657374204F41
:100520004B0D0A00FF0700002400002054ED0008D6
:10053000FFFF0000A4570008D904000042415441C5
:100540004456616C75653D25640A00001FF8000083
:10055000D4880008E4600008526561645F434F4E30
:100560003D25642C43533132333720496E69742062
:100570004F4B0A009CFF1F00DC550008256300005C
:100580000A000000573235713136204279746530E7
:100590003D3078257820546865726D6F6D6574659F
:1005A0007220486173204E6F742043616C69620A47
:1005B00000000000436F6D70656E736174655F418C
:1005C000443D25640A000000120000200C000020B9
:1005D00002F058FBFE48009030230E224621019481
:1005E000D22002F016FA28E7FAA004F053FE08A879
:1005F000407DAF218900484318E7322000F020FFFA
:100600002946304602F04DFF0028ECD1FE49032078
:100610000880FE4800240480012004211990084627
:1006200000F0E3FFFA49FB4A4843010B0020830036
:10063000D3588B4203D3401CC0B21E28F7D30930D5
:10064000C5B22946F4A004F025FE01F0B0FB01027A
:1006500007D54002400A01F0B3FC012189050E1ABA
:1006600002E0012189054618EEA004F013FE314690
:10067000F3A004F00FFE08A8807D0028179801D091
:10068000361800E0361A3146F2A004F003FEF648B0
:10069000864208D3AF2140428900301804F03EFB67
:1006A000FF30733007E0FF27AF217337801B8900CD
:1006B00004F034FB381AFF21A531884218D9B82339
:1006C000F02238210020009402F04EF93F20E74943
:1006D00040010860E64D80230A223821332000952E
:1006E000019402F096F980230B22009501941BE0FF
:1006F000FF21413188421AD2B823F022382100204C
:10070000009402F031F93F20D84940010860D84DEB
:1007100080230C22382133200095019402F079F9CE
:1007200080230D220095019438217D2059E7294628
:1007300002F009FC81E61A98002804D00020CD4977
:100740001A90088079E6CB4801881E29F2D9002446
:100750000480AD4903200880C449C7480860B82315
:10076000F02238212046009402F0FEF8C34F2023E7
:100770001A22382110200097019402F04AF9C0484B
:1007800000901023012246210194242002F041F917
:1007900020231B22382130200097019402F039F9E0
:1007A000B848202300901A4638210194402002F0D6
:1007B000F0F820230022382160200097019402F0F5
:1007C00028F900225021742002F05CFA0122502105
:1007D000742002F057FA2023012238217820009754
:1007E000019402F016F9002240218C2002F04AFA0E
:1007F000012240218C2002F045FA20230E223821CC
:1008000090200097019402F004F998489E4F0760E9
:100810009E233C2296211420009702F0ADF99E23DE
:100820006E2296214620009702F0A6F90022A4210C
:10083000792002F027FA0122A421792002F022FA7D
:100840000222A421792002F01DFA9E23AA229621D9
:100850008220009702F090F903227A21B62002F05C
:1008600011FA02227A21B62002F00CFA58480090C0
:1008700030230E2274210194BE2002F0CAF87D209C
:10088000C00000F0DDFD814F4021384602F009FE36
:100890000028F9D00125ED032946304602F001FE7B
:1008A00000287DD1322000F0CBFD0A2200210DA8C6
:1008B00001F058FC641CE4B22946304602F0F1FD18
:1008C000002802D150490320088001F070FA01028B
:1008D00007D54002400A01F073FB012189050D1A7A
:1008E00002E00121890545180421084600F07DFE3B
:1008F00047494843020B474900208300CB589342A5
:1009000003D3401CC0B21E28F7D30930C0B20190F7
:100910002846A50003A948515349884208D34942B3
:100920004018AF21890004F0F9F9FF30733007E077
:10093000081AAF21890004F0F1F9FF217331081A78
:10094000019902F089FB52A0019904F0A3FC03A8CD
:100950004259214653A004F09DFC7D25ED00284618
:1009600000F06EFD284600F06BFD4048464D0560E6
:100970000020F0231A466021009001F0F5FF9E232D
:100980003C2296211420009502F0F6F89E236E2258
:1009900096214620009502F0EFF80022A42100E005
:1009A0009AE0792002F06EF90122A421792002F068
:1009B00069F90222A421792002F064F99E23AA2277
:1009C00096218220009502F0D7F803227A2171E067
:1009D000E460000857323571313620427974653051
:1009E0003D3078257820546865726D6F6D6574654B
:1009F000722048617320416C7265616479204361A3
:100A00006C69620A00000000100000200C00002049
:100A1000C20C0000FC5500084E544354656D703DF7
:100A200025640A002D2D2D2D2D2D2D4D65617375FD
:100A300072655F446174612D2D2D2D2D2D2D0A00C1
:100A40004D6561737572655F41445F313D25640A90
:100A5000000000004D6561737572655F41445F324F
:100A60003D25640A00000000BEF43F002400002081
:100A7000D4880008120000201FF80000A4570008C6
:100A8000F456000874560008FFFF000000140048E8
:100A900043616C696241444E544354656D703D2519
:100AA000640A000043616C6962414425643D256429
:100AB0000A000000B62002F0E5F802227A21B620F2
:100AC00002F0E0F80021FE480191009030230E2250
:100AD0007421BE2001F09DFF022C00D8DAE60499B3
:100AE0000398884201D3401A00E0081A069005993D
:100AF0000398884201D208460399401A0790059945
:100B00000498884201D208460499401A0890ED489A
:100B10000699814205D90799814202D908998142F3
:100B200017D8012108A88175002516952C4618951F
:100B3000AA23F02264212846009501F015FF08A899
:100B4000807D01940028E048009004D040230B22CF
:100B500003E000249EE640230C2278211C2001F0B3
:100B600058FF00200121D84C4023024601910290F9
:100B700000947821184601F0C4FF0022A8216820C3
:100B800002F080F80122A821682002F07BF80222FE
:100B9000A821682002F076F80322A821682002F03C
:100BA00071F8002101200A4602910190402300942F
:100BB0007821702001F0A5FF00228621942002F008
:100BC00061F801228621942002F05CF8022286213D
:100BD000942002F057F803228621942002F052F864
:100BE0000020019040230A2278210094982001F0EF
:100BF00010FF012109200903C00602F052FC002861
:100C000073D08021384602F04CFC00286BD0402184
:100C1000384602F046FC0028EBD1FF20F53000F00A
:100C20000FFC40213D46384602F03BFC0028F8D03E
:100C300016980A2148431899B823401808A94875FE
:100C40000020F0223821009001F08EFE00209F4FFE
:100C5000019020231A2238210097102001F0D9FE9C
:100C600000219B480191009010230222462124205C
:100C700001F0CFFE0020019020231B223821009795
:100C8000302001F0C6FE0020019020231A223821D6
:100C90000097402001F0BDFE00200190202321227A
:100CA00038210097502001F0B4FE0022402164203A
:100CB00001F0E8FF01224021642001F0E3FF002061
:100CC000019020230E2238210097682001F0A1FE18
:100CD00008A9C87D00287DD0002040230D22009463
:100CE0000190C0E001E04FE06BE3C82000F0A8FBFA
:100CF00008A8807D002805D06D1CEDB2632D08D9B1
:100D0000632506E06D1E2D062D0E02D1012008A9D7
:100D100088750A21284604F001F8002618911690DB
:100D2000B823602200967821402001F01DFEB823F0
:100D3000902278217020009601F016FEB823402200
:100D400078212020009601F00FFE08A8807D0196F2
:100D50000028009402D040230B2201E040230C2203
:100D600078211C2001F055FE00200290012640232E
:100D70000196009478211846169A01F0C2FE0020D0
:100D80000196009402904EE0C82000F059FB08A89C
:100D9000807D002807D06D1E2D062D0E08D1002065
:100DA00008A9887504E06D1CEDB2632D00D9632598
:100DB0000A21284603F0B2FF002618911690B823A6
:100DC000602200967821402001F0CEFDB8239022C9
:100DD000782100E02EE07020009601F0C5FDB823D8
:100DE000402278212020009601F0BEFD08A8807DD9
:100DF00001960028009402D040230B2201E04023FA
:100E00000C2278211C2001F004FE012040230296D0
:100E10000190009478211846169A01F072FE012084
:100E2000029600940190402378217020189A01F0D6
:100E300068FEDEE600228621642001F023FF012205
:100E40008621642001F01EFF02228621642001F029
:100E500019FF03228621642001F014FF00204023A3
:100E60000A22009401907821682001F0D2FD092720
:100E7000FF06012636033146384602F012FB0028F1
:100E80005ED08021284602F00CFB002858D040217B
:100E9000284602F006FB0028EBD1FF20F53000F0D9
:100EA000CFFA4021284602F0FCFA0028F9D00020B1
:100EB000B823F0223821009001F056FD002109E00E
:100EC000E46000083408000054D10008A45700086A
:100ED000F4560008FE480191009020231A22382180
:100EE000102001F096FD0021FA4801910090102396
:100EF00003224621242001F08CFD0021F4480191B9
:100F0000009020231B223821302001F082FDF2487E
:100F100000901F2322223C21442001F05CFF08A8FE
:100F2000007E002857D00020019040230F22782116
:100F30000094482001F06DFD00200094019064E1D0
:100F4000FF202D3000F07CFA3146384602F0A9FA35
:100F50000028F9D08021284602F0A3FA0028F3D017
:100F600008A8C07D002822D0002608A8C675B8238E
:100F7000F02278216420009601F0F6FC0022862100
:100F8000642001F07FFE01228621642001F07AFEB8
:100F900002228621642001F075FE0322862164204E
:100FA00001F070FE40230A22019600940EE0012019
:100FB00008A9C8750026B823F0227821642000967D
:100FC00001F0D2FC40230D22019600947821682084
:100FD00001F01FFD4DE70020019040230F227821F2
:100FE0000094482001F015FD0020019040231122BB
:100FF00078210094682001F00CFD002000940190FD
:10100000E9E001F006FD0927FF063146384602F007
:1010100048FA00287ED08021284602F042FA0028B3
:1010200078D04021284602F03CFA0028EBD1FF207E
:10103000F53000F005FA4021284602F032FA002887
:10104000F9D00020B823F0223821009001F08CFC68
:1010500000219F480191009020231A22382110205E
:1010600001F0D7FC00219B4801910090102304223D
:101070004621242001F0CDFC0021954801910090EB
:1010800020231B223821302001F0C3FC002190488E
:101090000191009020231D223821402001F0B9FC4D
:1010A00000218B480191009020231E2238215020DE
:1010B00001F0AFFC002186480191009020231F22FF
:1010C0003821602001F0A5FC0021814820230191F6
:1010D00000901A463821702001F09BFC00217C48CA
:1010E00001910090202321223821802001F091FCE1
:1010F000002177480191009020232222382190205E
:1011000001F087FC002172482023232201910090E6
:10111000382100E02FE0A02001F07BFC00216C488A
:1011200001910090202324223821B02001F071FC8D
:1011300008A8407E00286DD0002001904023122294
:1011400078210094482001F064FC002001904023A5
:10115000132278210094682001F05BFC00200190AC
:101160004023142278210094882001F052FC0020B2
:101170000094019020E1FF202D3000F061F931460C
:10118000384602F08EF90028F9D08021284602F076
:1011900088F90028F3D008A8007E002820D0002776
:1011A00008A80776B823F02278214820009701F09C
:1011B000DBFB40230F22782148200197009401F0A7
:1011C00028FC40231122782168200197009401F027
:1011D00020FC01970094402311227821882010E7F9
:1011E000012008A908760027B823F022782148209A
:1011F000009701F0B9FB40230F2278214820019786
:10120000009401F006FC01970094402310227821FD
:101210006820F6E60020019040230F2278210094F8
:10122000482001F0F6FB002001904023162278218F
:101230000094682001F0EDFB00200094019091E003
:1012400001F0E7FB0927FF063146384602F029F98D
:10125000002857D08021284602F023F9002851D0D9
:101260004021284602F01DF90028EBD1FF20F5307F
:1012700000F0E6F84021284602F013F90028F9D0E2
:101280000025B823F02238212846009501F06CFB98
:101290004023182264213E200195009401F0B9FBFF
:1012A0004023192264215E200195009401F0B1FBD6
:1012B00040231A2264217E200195009401F0A9FBAD
:1012C00040231B2264219E200195009406E000002B
:1012D000A4570008F456000854ED000801F099FBEB
:1012E000552008A908750A2200210DA800F0D6FF94
:1012F0007D20000100F0A4F801210022C90209208C
:10130000C00669E0FF202D3000F09AF831463846DB
:1013100002F0C7F80028F9D08021284602F0C1F871
:101320000028F3D008A8407E002820D0002708A875
:101330004776B823F02278214820009701F014FB6B
:1013400040230F22782148200197009401F061FB8F
:1013500040231622782168200197009401F059FB60
:1013600001970094402317227821882068E7012004
:1013700008A948760027B823F02278214820009752
:1013800001F0F2FA402312227821482001970094BC
:1013900001F03FFB4023132278216820019700943D
:1013A00001F037FB40231422782188200197009414
:1013B00001F02FFB01970094402315227821A820EB
:1013C0003EE707480188962901D8FFF736F80480E0
:1013D00001210022C902304602F079F8F5E7000049
:1013E0000C0000207047FEE7704770477047000010
:1013F00010B50420C04302F091FD1D481B49006850
:1014000003F08CFC1B49C0B27D220870D20050430F
:10141000488010BD174909784843174948610022A0
:101420008A6108690123184308610869C30701D06C
:10143000C003FAD508694008400008618A61704716
:101440000C49498848430C49486100228A6108696F
:101450000123184308610869C30701D0C003FAD506
:1014600008694008400008618A61704700127A00EC
:10147000380000200000002000E000E07047314903
:10148000CA691206FCD52F49203108817047F1B591
:1014900001218AB0480402F062FA0121880302F0B7
:1014A00067FA0921CF060122384602F018F8012216
:1014B0000A21384602F013F803204002009002256A
:1014C0006846057103214171002484710126C671AB
:1014D0006946384601F097FF0A98089404940594E9
:1014E000069403900C20174C079003A9204602F0A5
:1014F000D4FA01221449204602F094FC012120462E
:1015000002F034FB1B21684601724572867202A804
:1015100002F0D8FC0BB0F0BD10B50A4C0A492046C9
:1015200002F0AFFC00280CD0204602F0AEFB0146D2
:10153000204602F0A6FB8021204602F099FC0028FC
:10154000F9D010BD003801400501050030B501217A
:1015500089B0480402F003FA0121480202F008FAB7
:101560000120000602F0DAF8062006900321684602
:1015700001770024C477092006A9C00601F043FFC3
:101580002D4D284601F0FCFD684601F01AFE684624
:10159000009404710420059002946946049428463E
:1015A00001F0FCFD284601F0A0FE0121284601F0D3
:1015B00010FE0121284601F0D6FE0028F9D009B01E
:1015C00030BD10B51C4C01460722204601F068FED4
:1015D000204601F0A6FE0421204601F0C4FE0028AA
:1015E000F9D0204601F0A2FE10BDF3B5002481B071
:1015F0000F4626462546009414E00198FFF7E1FFC8
:10160000002D03D0A04203D2044605E0044602E0C8
:101610000099884200D9009036180220FFF710FF89
:101620006D1CEDB2BD42E8D30098B91E301A001B04
:1016300003F074FB80B2FEBD0024014013B584B0FA
:101640000121022002F09DF9102168460173002457
:1016500044730121817303A802F034FC31483049FE
:10166000006803F05BFB3049401E48806846008AF2
:1016700001906846818A0180048144802B4C694630
:10168000204602F0B3FC01221146204603F020F868
:101690000121204602F01BFD06B010BD70B5234CA1
:1016A0000121204603F028F8002835D001212046EA
:1016B00003F02EF81C4C1E49E0880926401C80B21D
:1016C0000025F606E080884214D9E580A088401CF9
:1016D000A0806089401C6081208900281CD0401EA9
:1016E0000004000C208108D1257000221021304612
:1016F00001F0EDFE208900280ED02078401CC0B2F9
:101700002070022801D2012202E0042805D2002222
:101710001021304601F0DBFE70BD257070BD000069
:10172000808D5B003800002008000020000400408D
:101730008206000070B50124FF4DE402002221461C
:10174000284601F0C4FE0A20FFF764FE012221466C
:10175000284601F0BCFEC820FFF75CFE70BDFEB558
:1017600001210025880402F0FAF8F34C01210C262F
:101770000022C902204601F0AAFE7D27FF000121B8
:101780008902204601F08DFE02900120FFF758FEED
:101790006D1CADB2BD420DD90122D102204601F02F
:1017A00096FE01229102204601F091FEE3A003F093
:1017B00071FDFEBD02980128E1D000250127FF023E
:1017C00001223946204601F082FE1E20FFF722FE4C
:1017D00000223946204601F07AFE1E20FFF71AFE4D
:1017E0006D1CEDB2182DEBD30122D50229462046FF
:1017F00001F06DFE1E20FFF70DFE00222946204657
:1018000001F065FE1E20FFF705FE01222946204655
:1018100001F05DFE1E20FFF7FDFD00222946204657
:1018200001F055FE1E20FFF7F5FD01222946204656
:1018300001F04DFE1E20FFF7EDFD00222946204657
:1018400001F045FE1E20FFF7E5FD01222946204656
:1018500001F03DFE1E20FFF7DDFD00222946204657
:1018600001F035FE1E20FFF7D5FD01222946204656
:1018700001F02DFE1E20FFF7CDFD00222946204657
:1018800001F025FE1E20FFF7C5FD6F1001206946FF
:10189000009708710020C871204601F0B4FD0122B4
:1018A0002946204601F013FE1E20FFF7B3FD01225A
:1018B0003946204601F00BFE00222946204601F061
:1018C00006FE1E20FFF7A6FD01222946204601F054
:1018D000FEFD1E20FFF79EFD01223946204601F045
:1018E000F6FD00222946204601F0F1FD1E20FFF7FB
:1018F00091FD01222946204601F0E9FD1E20FFF757
:1019000089FD00223946204601F0E1FD00222946EA
:10191000204601F0DCFD1E20FFF77CFD0122294658
:10192000204601F0D4FD1E20FFF774FD0022394649
:10193000204601F0CCFD00222946204601F0C7FDDB
:101940001E20FFF767FD01222946204601F0BFFD5A
:101950001E20FFF75FFD01223946204601F0B7FD4A
:1019600000222946204601F0B2FD1E20FFF752FD5D
:1019700001222946204601F0AAFD1E20FFF74AFD5C
:1019800000223946204601F0A2FD002229462046C9
:1019900001F09DFD1E20FFF73DFD01222946204656
:1019A00001F095FD1E20FFF735FD01223946204646
:1019B00001F08DFD00222946204601F088FD1E2001
:1019C000FFF728FD01222946204601F080FD1E2058
:1019D000FFF720FD00222946204601F078FD1E2059
:1019E000FFF718FD00257F0001223946204601F04F
:1019F0006EFD1E20FFF70EFD300601D5012200E02E
:101A0000002201218902204601F061FD7006060EC8
:101A100000223946204601F05AFD1E20FFF7FAFC4D
:101A20006D1CEDB2082DDFD301223946204601F0AE
:101A30004EFD1E20FFF7EEFC00223946204601F045
:101A400046FD1E20FFF7E6FC0120800200900020EA
:101A5000694608710120C871204601F0D4FCFEBD22
:101A6000FEB501210025880401F079FF0127324CE1
:101A7000FF0200223946204601F029FD7D26F600AE
:101A800001218902204601F00CFD02900120FFF7A0
:101A9000D7FC6D1CADB2B5420ED9012239462046A5
:101AA00001F015FD01229102204601F010FD29A050
:101AB00003F0F0FB0120FEBD02980128E0D00026D3
:101AC0003D4601222946204601F001FD1E20FFF778
:101AD000A1FC00222946204601F0F9FC1E20FFF758
:101AE00099FC761CF6B2182EEBD30122294620462B
:101AF00001F0EDFC1E20FFF78DFC00222946204658
:101B000001F0E5FC1E20FFF785FC01222946204656
:101B100001F0DDFC1E20FFF77DFC00222946204657
:101B200001F0D5FC1E20FFF775FC01222946204656
:101B300001F0CDFC1E2019E000040048436F6E66E2
:101B40006967205265676973746572206572726F88
:101B5000720D0A005265616420526567697374658D
:101B600072206572726F720D0A000000FFF752FC5E
:101B700000222946204601F0AAFC1E20FFF74AFC5D
:101B800001222946204601F0A2FC1E20FFF742FC5C
:101B900000222946204601F09AFC1E20FFF73AFC5D
:101BA00001222946204601F092FC1E20FFF732FC5C
:101BB00000222946204601F08AFC1E20FFF72AFC5D
:101BC0000126B60201276846009607710021C171FF
:101BD0006946204601F017FC01222946204601F003
:101BE00076FC1E20FFF716FC01223146204601F04C
:101BF0006EFC00222946204601F069FC1E20FFF7FA
:101C000009FC01222946204601F061FC1E20FFF755
:101C100001FC00223146204601F059FC00222946F1
:101C2000204601F054FC1E20FFF7F4FB0122294658
:101C3000204601F04CFC1E20FFF7ECFB0122314650
:101C4000204601F044FC00222946204601F03FFCDA
:101C50001E20FFF7DFFB01222946204601F037FC5A
:101C60001E20FFF7D7FB00223146204601F02FFC53
:101C700000222946204601F02AFC1E20FFF7CAFB5D
:101C800001222946204601F022FC1E20FFF7C2FB5C
:101C900001223146204601F01AFC00222946204646
:101CA00001F015FC1E20FFF7B5FB01222946204656
:101CB00001F00DFC1E20FFF7ADFB0122314620464E
:101CC00001F005FC00222946204601F000FC1E2000
:101CD000FFF7A0FB01222946204601F0F8FB1E2059
:101CE000FFF798FB00223146204601F0F0FB00226E
:101CF0002946204601F0EBFB1E20FFF78BFB01225B
:101D00002946204601F0E3FB1E20FFF783FB00225B
:101D10002946204601F0DBFB1E20FFF77BFB00215C
:101D2000684600960171C7716946204601F06BFB59
:101D30000026374601222946204601F0C8FB1E2016
:101D4000FFF768FB00222946204601F0C0FB1E2059
:101D5000FFF760FB7006060E01218902204601F0A4
:101D6000A0FB012801D1761CF6B27F1CFFB2082F20
:101D7000E0D301222946204601F0A9FB1E20FFF7EF
:101D800049FB00222946204601F0A1FB1E20FFF757
:101D900041FB012080020090002168460171012171
:101DA000C1716946204601F02EFB3046FEBDFEB5EE
:101DB00001210025880401F0D2FD0127BF02002186
:101DC0006846009701710121C171804C6946204627
:101DD00001F019FB00227900204601F078FB1DE09C
:101DE00001218902204601F05CFB06460120FFF735
:101DF00027FB6D1C7D20ADB2C00085420ED90122AB
:101E0000D102204601F063FB01229102204601F03D
:101E10005EFB6FA003F03EFA0120FEBD012EDFD075
:101E2000002601253746ED0201222946204601F011
:101E30004EFB1E20FFF7EEFA00222946204601F055
:101E400046FB1E20FFF7E6FA1E20FFF7E3FA01210A
:101E500076008902204601F024FB012800D1761C7F
:101E60001E20FFF7D7FA7F1CFFB2182FDCD3002704
:101E700001222946204601F02AFB1E20FFF7CAFA5C
:101E800000222946204601F022FB1E20FFF7C2FA5D
:101E90007F1CFFB2162FEBD301222946204601F00A
:101EA00016FB1E20FFF7B6FA00222946204601F055
:101EB0000EFB1E20FFF7AEFA0120800200900020EA
:101EC000694608710120C871204601F09CFA30462D
:101ED000FEBD10B5FFF743FCFFF7C2FD0C2802D092
:101EE0003FA003F0D7F910BDF0B5424E85B0306881
:101EF00003F044F80546FFF75AFF03F03FF80446A5
:101F00006800000E22D0204603F053F83A4A3B4BBB
:101F10000391029002F0CAFF07462846049103F09D
:101F200048F83A4601910090049B03F057F80CD30F
:101F3000334A344B0399029802F0B8FF02460B462D
:101F40000199009803F05EF800D22C466000000E64
:101F50001AD0204603F02DF82B4A2C4B02F0A6FF96
:101F600004460F46284603F024F8294A294B02F07C
:101F70009DFF22463B4602F0E7FE03F057F803F0D0
:101F800004F8306005B0F0BD3068FBE77CB5012196
:101F9000880401F0E4FC0120C0020090012469469D
:101FA0000A4E0C710025CD71304601F02CFAA002CA
:101FB000009069460D71CC71304601F024FA7CBD69
:101FC000C0434002400A401C704700000004004823
:101FD00052656164204144206572726F720D0A007F
:101FE000496E69745F435331323337206572726FC3
:101FF000720D0A00140000209A9999999999E93F65
:10200000333333333333F33FAE47E17A14AEEF3F2C
:102010007B14AE47E17A843FF8B50126E84FB6035A
:1020200000223146384601F052FA902000F0F2F9D1
:10203000002000F0EFF9002000F0ECF9002000F0A3
:10204000E9F9FF2000F0E6F90402FF2000F0E2F9D0
:102050002043054601223146384601F038FA284629
:10206000F8BD7CB50121880401F079FC0124A403AA
:10207000012069460094087100228A7103224A7186
:10208000CF4DC871284601F0BEF92146284601F01F
:102090001AFA01222146284601F019FA00F0DFF968
:1020A000002000F02FFAFFF7B7FFC649C64A0880A4
:1020B0000146904201D1C5A000E0CDA003F0EAF8AE
:1020C0007CBD70B50125BE4EAD03002229463046C9
:1020D00001F0FDF9052000F09DF9FF2000F09AF9CC
:1020E000044601222946304601F0F1F9204670BD30
:1020F00070B50124B24D0646A403002221462846AD
:1021000001F0E5F9012000F085F9304600F082F990
:1021100001222146284601F0DAF970BD70B501248C
:10212000A74DA40300222146284601F0D0F906203D
:1021300000F070F901222146284601F0C8F970BD6F
:1021400070B501249E4DA40300222146284601F0CB
:10215000BEF9042000F05EF901222146284601F074
:10216000B6F970BDF8B5012715460C460646BF0303
:1021700000223946924801F0AAF9032000F04AF9FA
:102180002002000E00F046F92004000E00F042F993
:10219000E0B200F03FF9002405E0FF2000F03AF93A
:1021A0003055641CA4B2AC42F7D3012239468448AE
:1021B00001F08DF9F8BD10B5FFF783FFC007FBD123
:1021C00010BDF8B515460C460646FFF7A7FF0127D8
:1021D000BF03002239467A4801F079F9022000F065
:1021E00019F92002000E00F015F92004000E00F08D
:1021F00011F9E0B200F00EF9002404E0305D00F0C7
:1022000009F9641CA4B2AC42F8D3012239466C48E7
:1022100001F05DF9FFF7CFFFF8BDF8B507460E46B0
:10222000FF20C9B20130441A1546A24200D8144614
:10223000224631463846FFF7C4FFA54209D0281B85
:102240003F193619FF2485B20134A542F0D82C4637
:10225000EEE7F8BD70B50403FFF760FFFFF7ABFFD3
:102260000125574EAD0300222946304601F02FF9D3
:10227000202000F0CFF82002000E00F0CBF8200460
:10228000000E00F0C7F8E0B200F0C4F801222946C1
:10229000304601F01CF9FFF78EFF70BDF7B582B034
:1022A0005B480090039815460605070B0120360D84
:1022B0000003841BA24200D81446390301221203F2
:1022C00001910098FFF74EFF002006E000993218B8
:1022D000895CFF2903D1401C80B2A042F6D3A04202
:1022E00025D23846FFF7B6FF002006E00299831991
:1022F000095C009A401CD15480B2A042F6D301225E
:10230000120301990098FFF788FFA54213D00298A5
:1023100000260019029003987F1C00190390281BC7
:10232000012485B22403A542C7D82C46C5E722461E
:1023300003990298E7E705B0F0BD70B5FFF7EEFE30
:10234000FFF739FF01241E4DA40300222146284631
:1023500001F0BDF8C72000F05DF8012221462846B3
:1023600001F0B5F8FFF727FF70BD70B50124144DDB
:10237000A40300222146284601F0A9F8B92000F064
:1023800049F801222146284601F0A1F80320FFF771
:1023900041F870BD70B50124094DA4030022214607
:1023A000284601F094F8AB2000F034F801222146D1
:1023B000284601F08CF80320FFF72CF870BD0000D0
:1023C000000400481800002014C80000573235519E
:1023D00058582049443D25782C5732355158585F7C
:1023E000545950453D7732357131360A00000000AE
:1023F0005732355158582049443D25632C573235C2
:102400005158585F545950453D4572720A000000BA
:102410004C00002070B506460024414D03E0641CCA
:10242000E4B2C82C0FD80221284602F06DFB002828
:10243000F5D03146284602F018FB002405E0641C64
:10244000E4B2C82C01D9002070BD0121284602F059
:102450005BFB0028F3D0284602F00BFB70BDF0B503
:10246000012187B0480401F07AFA01210F033846B0
:1024700001F07EFAE02005900226684606760024E8
:1024800084760125C5764576092005A9C00600F0A9
:10249000BAFF092000220521C00601F020F809201A
:1024A00000220621C00601F01AF8092000220721A7
:1024B000C00601F014F81A4802F0E0F96846FF215E
:1024C000048005314180072109028180C680058191
:1024D0006902418138218181C481072101826946D5
:1024E0000F4802F0F4F939460D4802F08EFA012146
:1024F0000B4802F067FAFF20FFF78CFF09490870CC
:1025000007B0F0BD014610B50548028838239A434C
:10251000028002880A430280012102F053FA10BDB2
:10252000003001401A00002070B50446FE4DC0077F
:1025300001D0012200E000220121284600F0C7FF5F
:102540006008C00701D0012200E0002202212846D5
:1025500000F0BDFFA008C00701D0012200E000226A
:102560000421284600F0B3FFE008C00701D0012293
:1025700000E000220821284600F0A9FF2009C0073A
:1025800001D0012200E000221021284600F09FFF28
:102590006009C00701D0012200E000222021284666
:1025A00000F095FFA009C00701D0012200E0002241
:1025B0004021284600F08BFFE00901D0012200E015
:1025C00000228021284600F082FF70BD70B50126F0
:1025D000D54D0446760300223146284600F077FFA9
:1025E000A88A000A00022043A882D04C002231466B
:1025F000204600F06CFF01223146204600F067FFC4
:1026000001223146284600F062FF70BD70B50122FC
:10261000C54D044656033146284600F058FFA88AA7
:10262000000A00022043A882C04C00223146204606
:1026300000F04DFF01223146204600F048FF70BDFA
:10264000F8B50122B84C054656033146204600F045
:102650003EFFA08AE9B2000A00020843A082B34FFD
:1026600000223146384600F032FF0122314638461A
:1026700000F02DFF01223146204600F028FFA08AFD
:10268000290A000A00020843A08200223146384687
:1026900000F01DFF01223146384600F018FFF8BD5A
:1026A000F8B507461C4615460E462A20FFF78EFF52
:1026B0003804000EFFF7AAFFF8B2FFF7A7FF2804BF
:1026C000000EFFF7A3FFE8B2FFF7A0FF2B20FFF7F4
:1026D0007DFF3004000EFFF799FFF0B2FFF796FF81
:1026E0002004000EFFF792FFE0B2FFF78FFF2C20CF
:1026F000FFF76CFFF8BD70B501228C4D94032146A5
:10270000284600F0E4FE0120FEF79AFE0022214652
:10271000284600F0DCFE0A20FEF792FE0122214648
:10272000284600F0D4FE7820FEF78AFE70BDFEB584
:102730000121480401F013F90121880401F00FF987
:1027400001217B4801F00BF9002000F06EFF03250A
:102750006D0300216846009541710124734E047198
:102760006946304600F04FFE2946304600F0ADFE87
:10277000660368460096047103256B4F45716946F0
:10278000384600F040FE3146384600F09EFE2002FA
:10279000009068460471457109206946C00600F042
:1027A00032FEFF2000906846047145716946384644
:1027B00000F029FEFF21384600F087FEFEBD10B56F
:1027C000FFF7B5FFFFF797FF3620FFF7FFFE00206A
:1027D000FFF71CFF3A20FFF7F9FE0520FFF716FF71
:1027E000B220FFF7F3FE0C20FFF710FF0C20FFF7DD
:1027F0000DFF0020FFF70AFF3320FFF707FF33200C
:10280000FFF704FFB720FFF7E1FE3520FFF7FEFEDC
:10281000BB20FFF7DBFE1920FFF7F8FEC020FFF713
:10282000D5FE2C20FFF7F2FEC220FFF7CFFE0120DD
:10283000FFF7ECFEC320FFF7C9FE1220FFF7E6FE0C
:10284000C420FFF7C3FE2020FFF7E0FEC620FFF7FD
:10285000BDFE0F20FFF7DAFED020FFF7B7FEA42061
:10286000FFF7D4FEA120FFF7D1FEE020FFF7AEFE78
:10287000D020FFF7CBFE0420FFF7C8FE0D20FFF7A6
:10288000C5FE1120FFF7C2FE1320FFF7BFFE2B206D
:10289000FFF7BCFE3F20FFF7B9FE5420FFF7B6FE5E
:1028A0004C20FFF7B3FE1820FFF7B0FE0D20FFF716
:1028B000ADFE0B20FFF7AAFE1F20FFF7A7FE232087
:1028C000FFF7A4FEE120FFF781FED020FFF79EFE78
:1028D0000420FFF79BFE0C20FFF798FE1120FFF766
:1028E00095FE1320FFF792FE2C20FFF78FFE3F206E
:1028F000FFF78CFE4420FFF789FE5120FFF786FE8C
:102900002F20FFF783FE1F20FFF780FE1F20FFF719
:102910007DFE2020FFF77AFE2320FFF777FE21209F
:10292000FFF754FE112005E00004004800080048AD
:1029300002000800FFF74AFE2920FFF747FE10BDFE
:1029400070B50646EF2300211A460846FFF7A8FE99
:10295000002400253046FFF773FE6D1CF02DF9D3DF
:10296000641CF02CF5D370BDF8B51E4617465B1EEF
:10297000521EFFF795FE002508E0002403E00698AC
:10298000FFF75EFE641CB442F9D36D1CBD42F4D364
:10299000F8BDFEB5D408099E550700D0012564197D
:1029A000F84D5C43AF68CB188218521E5B1E00972F
:1029B000FFF776FE3146F4A002F06CFC0027664378
:1029C000019616E008990198C919465C0025F007A0
:1029D00002D0EC48009901E0EA4841688160E9488A
:1029E0008068FFF72DFE6D1C7608EDB2082DEED342
:1029F0007F1CA742E6D3E34900988860FEBD10B56E
:102A00000B460246FFF74CFEDE488068FFF718FED3
:102A100010BDFFB5184658438BB005090024159E1C
:102A2000D8480694806859080790F0200891421A07
:102A30000B998A4259D3C11A0C98814255D3C318B5
:102A40000B9908985B1E4218521E0C990B98FFF7C1
:102A500027FE002E01D0002041E00D98002668439B
:102A6000019017E0149901988919475C0024F80730
:102A700003D0C4490798886002E0C2484168816079
:102A8000C0488068FFF7DCFD641C7F08E4B2082CB6
:102A9000EDD3761CAE42E5D324E00D98009A14994C
:102AA00068438918475C08980026401E0590F8077F
:102AB00006D006990C9841180B980019FFF79FFF54
:102AC0000598641CA04203D206980024401C06907E
:102AD000761C7F08F6B2082EE9D30098401C0090BF
:102AE000A842DAD3A749079888600FB0F0BD024624
:102AF000012000E050430B46491EC9B2002BF9D11A
:102B00007047FFB583B0002706983C4645080D9EE8
:102B10002EE0301B401EC1B20A20FFF7E8FF01463D
:102B2000059802F0FBF80A2102F0F8F80A46002F97
:102B300005D1701E844202DA002A0AD001270E99BC
:102B40000C98019100902846039960434018069B19
:102B500009E090480E99019100902846039960433E
:102B60004018069B20220499FFF753FF641CE4B22F
:102B7000B442CED307B0F0BDFFB581B01F461646B4
:102B80000C460198FFF78CFD08E0019D03E00A98D0
:102B9000FFF756FD6D1CB542F9D9641CBC42F4D94F
:102BA00005B0F0BD08B5774A4B1D92680092421DF2
:102BB000401F491FFFF7E0FF08BDF0B58BB00024B0
:102BC000161A06905D1A601E274604940591002E81
:102BD00001DD012108E0002E05D076420990002D8C
:102BE00004DD01200BE000210991F8E7002D05D05C
:102BF0006D420890AE4204DD344603E000200890A8
:102C0000F8E72C4600200790601C0A90079819E00E
:102C100005990698FFF7F3FE04987F198019049030
:102C2000A04205DD001B0490099906984018069003
:102C3000A74204DD089905983F1B401805900798A6
:102C4000401C07900A998842E2D90BB0F0BDF8B554
:102C50001C4615460E4607460B46FFF7AEFF3A46A2
:102C6000234631461046FFF7A8FF23462A46194659
:102C70003846FFF7A2FF2A46234631461046FFF7A3
:102C80009CFFF8BDF0B50E46074600255000032115
:102C900087B0081A144604903FE0711B381B01915D
:102CA0000090FFF7ACFE381901990590FFF7A7FED9
:102CB0003119781B02910390FFF7A1FE019900984A
:102CC000FFF79DFE311B01910398FFF798FE7119E4
:102CD00003910598FFF793FE781901990190FFF78A
:102CE0008EFE02990198FFF78AFE03990098FFF77C
:102CF00086FE04986D1C002804DAA9000818801DBF
:102D0000049006E0281B8100049808180A30641E0D
:102D1000049031197819FFF772FEA542BDDD29E74D
:102D2000FEB5022420462821484300250190273083
:102D3000009028462821484302462732009B0199EB
:102D4000FFF7AEFC4F2328211A460846FFF7A8FCE0
:102D500000261148770038184078FFF757FC0E48D6
:102D6000C05DFFF753FC19208001761C8642F0DB22
:102D70006D1C062DDDDB641C062CD3DB0149002015
:102D80000870FEBD1C000020696E6465783D2564F6
:102D90000A000000A4570008D4C40008F8B514467F
:102DA0005C43CB1882186400521E5B1E069DFFF721
:102DB00077FC0026640808E0770078194078FFF770
:102DC00025FCE85DFFF722FC761CB442F4D8E44908
:102DD00000200870F8BDFFB587B0E14E04460490AE
:102DE000B0680390D8085A0700D001228018099AC9
:102DF000CB185043A21801902046521E5B1EFFF7CD
:102E00004FFC00251DE010980026475DF80703D011
:102E1000D3490398886002E0D14841688160D04876
:102E20008068FFF70DFC0498641C211A09987F083C
:102E3000814201D1049C03E0761CF6B2082EE5D352
:102E40006D1C01988542DED3C54903988860FCE675
:102E500038B5C44C0D23DC220A21B4200094FFF7BE
:102E60008BFE2123DC221E21B4200094FFF784FE78
:102E70001E23B7220A21B4200094FFF77DFE2123F0
:102E8000DF220A21DC200094FFF776FE1823E222DD
:102E90001221DF200094FFF76FFE38BD38B5B2492C
:102EA000884201D90A2436E09721C900884201D915
:102EB000092430E0AC493739884201D908242AE096
:102EC000A9495839884201D9072424E0A64979390B
:102ED000884201D906241EE0A3499A39884201D9C3
:102EE000052418E0A049BB39884201D9042412E026
:102EF0009D49DC39884201D903240CE09A49FD3907
:102F0000884201D9022406E03B210901884201D907
:102F1000012400E00024002000901E23DC220D216B
:102F2000B720FFF721FD022C02D23F20400100E034
:102F30008E480090600022181C230F21B920BC325B
:102F4000FFF71AFE38BDF3B585B00A2101F0E6FEA1
:102F5000039105468249854888600024B823F02201
:102F6000382120460094FFF7FFFC0226804F802383
:102F70002A4638210020009701960294FFF7C1FDF0
:102F800004229A218720FFF77DFE03229A218720C1
:102F9000FFF778FE02229A218720FFF773FE0122B5
:102FA0009A218720FFF76EFE00229A218720FFF7E3
:102FB00069FE0120019080230097029438218C2023
:102FC000039AFFF79EFD04225821D020FFF75AFEF6
:102FD00003225821D020FFF755FE66480090302389
:102FE0000E224E210194D620FFF713FDB421F423C5
:102FF000D42208460094FFF7B7FC5F4D2023182227
:10300000B421942000950194FFF703FD2023192299
:10301000B421A42000950194FFF7FBFC0196B42194
:103020002023009502940846069AFFF76AFD0122C4
:10303000BE21D820FFF726FE0022BE21D820FFF7B0
:1030400021FE2846B038009010230A22B9210194AD
:10305000DE20FFF7DEFC8DE5F3B585B00A2101F037
:103060005DFE039105463E49404888600024B42334
:10307000F022642120460094FFF776FC02263F4FA1
:1030800060232A4619461020009701960294FFF704
:1030900038FD0322AA217C20FFF7F4FD0222AA2199
:1030A0007C20FFF7EFFD0122AA217C20FFF7EAFD3B
:1030B0000022AA217C20FFF7E5FD0120602301907A
:1030C0000097029419468820039AFFF71AFD0322FD
:1030D0007821C020FFF7D6FD02227821C020FFF71B
:1030E000D1FD2448009030230E226E210194C82087
:1030F000FFF78FFCE823D422C821B4200094FFF707
:1031000033FC1D4D20231822C821942000950194E2
:10311000FFF77FFC20231922C821A42000950194E9
:10312000FFF777FC0196202300950294C821B42074
:10313000069AFFF7E6FC0122D221D820FFF7A2FD74
:103140000022D221D820FFF79DFD2846B0380090FC
:1031500010230A22CD210194DE20FFF75AFC09E555
:103160001C000020FFFF0000CE0400001FF800003C
:10317000D4880008E4600008A457000854690008D7
:10318000874910B5884208D144150121204600F036
:103190000AFC0021204600F006FC10BD30B5C368D3
:1031A000804A8C6813400A680D792243CC686D030D
:1031B0002C4322430C69496922430A431A43C260E3
:1031C00030BD0021016001718160C1600161416118
:1031D00070470029816801D0012200E002221143DA
:1031E0008160704701617047002A026901D00A437B
:1031F00000E08A43026170470122D2030029C168BE
:1032000001D0114300E09143C16070470122920355
:103210000029C16801D0114300E09143C1607047AB
:103220000122D2050029C16801D0114300E0914379
:10323000C16070470904114301627047C2681F23CF
:103240009B069A430A43C2607047012292050029F7
:10325000C16801D0114300E09143C1607047012271
:103260005149D2050028886801D0104300E09043FE
:103270008860704701224C4992050028886801D077
:10328000104300E0904388607047012246491206CF
:103290000028886801D0104300E0904388607047A0
:1032A00000238362836A0B43836242617047012279
:1032B00052030029C16801D0114300E09143C1606D
:1032C0007047012212040029C16801D0114300E0B7
:1032D0009143C1607047012212030029C16801D0E7
:1032E000114300E09143C1607047826800210123CF
:1032F000DB071A4382600F231B038268491CD20F2D
:10330000D207994201D0002AF7D18168002901DB58
:10331000006C704700207047816810221143816063
:10332000704781680422114381607047006C80B24D
:1033300070470029C16802D00122114301E0490809
:103340004900C1607047C26802239A43C260C268E4
:103350000A43C2607047002A426801D00A4300E075
:103360008A434260704702460020CB0104D5926830
:1033700001231B069A4300E012680A4200D0012094
:1033800070470160704702465368002012680B4086
:103390000A4202D0002B00D0012070470160704724
:1033A0000024014003D2FFFF00270140092110B58E
:1033B000C906884202D101214C0404E050498842E8
:1033C00009D101210402204600F0E4FA0021204640
:1033D00000F0E0FA10BD4B49884202D101210402FD
:1033E000F1E74949884202D101210C05EBE7474941
:1033F000884202D101214402E5E745498842E9D1EA
:1034000001218C05DFE7F0B50022012423460D6879
:1034100093401D409D422AD10D79012D01D0022DEE
:1034200012D1876855000326AE40B74387604E79B6
:10343000AE4085682E43866085889D43858085885B
:103440008B7993401D438580066855000323AB406C
:103450009E4306600E790768AE403E430660C6682C
:103460009E43C660CB79AB40C5682B43C360521CFA
:10347000102ACBD3F0BD2749016000210171012240
:1034800042718171C1717047012208B512040A436B
:103490000092C261C1610099C161C169C0690090B7
:1034A00008BD0246128A00200A4200D0012070475F
:1034B000008A70470246928A00200A4200D001200A
:1034C0007047808A70478161704701857047002A84
:1034D00001D08161704701857047818270474B0739
:1034E000DB0E9A40C90810B589000818016A0F243C
:1034F0009C40A1430162016A1143016210BD0000BA
:103500000004004800080048000C00480010004873
:1035100000140048FFFF0000F84801680122114331
:1035200001604168F64A114041600168F54A114066
:1035300001600168012292049143016041683F22C9
:10354000120491434160C16A09090901C162016B1A
:10355000ED4A11400163416B490849004163002174
:1035600081607047E54900228A7088707047034681
:103570000020E2495A090CD0012A0CD0022A0CD0B2
:10358000496BDA06D20E012393400B4200D0012092
:1035900070470968F5E7096AF3E7496AF1E718B582
:1035A00000200524240300901120FFF7E0FF00997C
:1035B000491C0091A14201D00028F5D01120FFF74D
:1035C000D6FF002800D0012018BDCC4A1168F8238E
:1035D0009943C000084310607047C8490028086834
:1035E00002D00122104301E040084000086070470B
:1035F000C24A516BF8239943C00008435063704797
:10360000BE490028486B02D00122104301E0400867
:10361000400048637047B94904220028486B01D034
:10362000904300E0104348637047B4490A6A520867
:1036300052000A620A6A04239A430A620A6A02432F
:103640000A627047AD490A6A18239A430A620A6AF5
:1036500002430A627047A9490028486A02D0012241
:10366000104301E0400840004862704710B5A34A8B
:1036700053687B24E403A343536053680843034324
:10368000536010BD01229D4912060028086801D030
:10369000104300E0904308607047012297491204EC
:1036A0000028486B01D0104300E090434863704706
:1036B000924AD16A090909010143D1627047012286
:1036C0008E49D2040028086801D0104300E09043DE
:1036D00008607047894A53681B021B0A00060843AA
:1036E000184350607047854A516889088900014332
:1036F00051607047814840680C21084070477F4AFC
:103700005168F02399430143516070477B4A5168E7
:1037100007231B02994301435160704777494A6868
:1037200001239B039A434A604A6883B21A434A6062
:103730000A6B8B159A430A630A6B000C02430A63F7
:1037400070476E490A6B40239A430A630A6B02432F
:103750000A63704769490A6B10239A430A630A6B2C
:1037600002430A637047020F6449012A0AD0022A01
:103770000A6B0BD003239B049A430A630A6B024330
:103780000A6370470A6B92089200F6E703231B0452
:10379000F2E75A490A6B80239A430A630A6B024391
:1037A0000A637047F8B5554D0446686800210C223D
:1037B000564E104005D0042803D0082803D00C280A
:1037C0001AD026601AE06968686803228902D20369
:1037D0000F0F1040BF1C00280AD0E86A0107090F2C
:1037E0003046491C01F09AFA78430146216005E011
:1037F000474839464143F9E7464820606868464FE4
:103800000006000F3B5C20680246DA4062606B688D
:103810005B055B0FFB5CDA40A2602B6BDB0501D420
:103820003E4B05E06B685B0401D4530800E093084D
:10383000E3602B6B5F063A4B03D4394F1237276195
:1038400000E023612F6BFF0601D4666100E0606138
:103850002F6BBF070ED02F6BBF07BF0F012F0BD0F1
:103860002F6BBF07BF0F022F08D02F6BFF43BF077F
:1038700006D006E0A26104E0A06102E0A36100E0DE
:10388000A6612F6BBF03BF0F0FD02F6BBF03BF0FFE
:10389000012F0CD02F6BBF03BF0F022F09D02F6B4E
:1038A000BF03BF0F032F06D006E0E26104E0E06132
:1038B00002E0E36100E0E6612F6B3F03BF0F0FD032
:1038C0002A6B1203920F012A0CD0286B0003800F81
:1038D000022809D0286B0003800F032806D006E0D9
:1038E000226204E0206202E0236200E02662286B8C
:1038F000000617D407486062F8BD000000100240BF
:103900000CB8FF08FFFFF6FEACFEF0FF00127A00D5
:1039100000093D00006CDC0228000020809FD500DB
:10392000008000006162E7E735490A6A02430A62E3
:10393000704701223249D2030028086A01D010439F
:1039400000E090430862704701222D4912040028CC
:10395000086A01D0104300E0904308627047284A8B
:103960000029516901D0014300E081435161704752
:10397000234A0029916901D0014300E0814391610C
:1039800070471F4A0029D16901D0014300E08143FB
:10399000D16170471A4A0029916A01D0014300E0C1
:1039A000814391627047164A0029D16801D00143D2
:1039B00000E08143D1607047114A0029116901D0AC
:1039C000014300E08143116170470D4A0029517A9B
:1039D00001D0014300E08143517270470848416AB9
:1039E00001221206114341627047054A014692685E
:1039F00000200A4200D001207047014988727047B8
:103A000000100240F74910B5884207D101218C030C
:103A10002046FFF7C8FF0021204627E0F2498842F0
:103A200002D101214C0404E0F049884209D101216E
:103A30008C042046FFF7C0FF00212046FFF7BCFFA3
:103A400010BDEB49884202D10121CC04F1E7E949DC
:103A5000884202D101210C05EBE7E749884208D1F1
:103A600001212020FFF79FFF00212020FFF79BFF6F
:103A700010BDE249884206D101214020FFF793FFA3
:103A800000214020F2E7DE498842F1D10121802067
:103A9000FFF789FF00218020E8E730B50446006881
:103AA0008BB00D4640084000206060680321090388
:103AB0008843A968014361602068D249EA680840E8
:103AC000696811432A69024311432160A0680321F8
:103AD0000902884369690143A1606846FFF762FEF5
:103AE000C048844201D106980AE0BF48844201D10F
:103AF000079805E0BD48844201D1089800E002988B
:103B000021680904296800D5400001F007F92A68F6
:103B100052088A4200D8401C2168090404D50107D4
:103B2000B94A490F10400843A0810BB030BD4B216A
:103B3000C90101600021416081600C22C160026105
:103B40004161704710B542680F231B029A4318C9A0
:103B500023430C6849680C4323431343436010BD5F
:103B60000021016041608160C160704700290168E7
:103B700002D00122114301E0490849000160704769
:103B8000002A026801D00A4300E08A4302607047BD
:103B90000122D2030029016801D0114300E09143C2
:103BA000016070470122D2020029816801D01143CF
:103BB00000E09143816070470122D20400294168EE
:103BC00001D0114300E0914341607047012292040B
:103BD0000029416801D0114300E0914341607047E2
:103BE000002A426801D00A4300E08A4342607047DD
:103BF0000122D2030029416801D0114300E0914322
:103C0000416070470122D2050029416801D011436B
:103C100000E09143416070474269120E1206426112
:103C200042690A4342617047028A120A1202028202
:103C3000028A0A430282704702220029016801D0E9
:103C4000114300E0914301607047826803231B0524
:103C50009A43826082680A4382607047012212059B
:103C60000029416801D0114300E091434160704751
:103C7000426803235B059A43426042680A434260FC
:103C80007047C905C90D01857047808CC005C00DFE
:103C9000704742681202120A4260426809060A43EB
:103CA00042607047012252030029016801D011438C
:103CB00000E091430160704702680123DB029A43F0
:103CC000026002680A4302607047426810239A4308
:103CD000426042680A4342607047426820239A4328
:103CE000426042680A434260704701229203002901
:103CF000416801D0114300E09143416070470822C0
:103D00000029816801D0114300E091438160704730
:103D1000028AD2B20282028A09020A4302827047F0
:103D200020220029816801D0114300E09143816085
:103D3000704710220029816801D0114300E09143AF
:103D400081607047826807235B049A4382608268BF
:103D500049040A438260704742691202120A4261B2
:103D6000426909060A4342617047826804239A4304
:103D7000826082680A43826070470222002981685B
:103D800001D0114300E0914381607047012292030A
:103D90000029816801D0114300E0914381607047A0
:103DA00082680123DB039A43826082680A4382604F
:103DB000704702681F235B059A4302600268490549
:103DC0000A430260704702681F231B049A43026083
:103DD000026809040A4302607047002A826815D00D
:103DE0000A4314E00038014000440040004800400D
:103DF000004C0040005000400014014000180140F9
:103E0000001C0140F3E9FFFFF0FF00008A438260DD
:103E10007047826801235B039A43826082680A4389
:103E20008260704710B50B041C0E01238B40022CDE
:103E300002D0032C02D002E0001D00E0083001682F
:103E4000002A01D0194300E09943016010BD002A07
:103E5000028B01D00A4300E08A43028370478268E4
:103E600001231B039A43826082680A438260704781
:103E70000246D26900200A4200D001207047016248
:103E8000704730B50A04130E0122144600258C40F9
:103E9000012B0ED0022B0ED08368090C2340C06981
:103EA0008A401040002B02D0002800D0012528466F
:103EB00030BD0368F1E74368EFE70A0C0121914048
:103EC0000162704730B5837801210278002B15D04C
:103ED0009408174BA400E41823689207D50EFF221C
:103EE000AA40934342789207120EAA401A432260D6
:103EF0000078C006C00E81400E4804E0D006C00E17
:103F000081400C488030016030BD0B4A00291169A6
:103F100001D0014300E08143116170470422074949
:103F20000428086902D09043086170471043FBE7FA
:103F300000E400E000E100E000ED00E000E000E06F
:103F4000F94910B5884202D10121C4143AE0012197
:103F50008907884206D101210846FFF72DFD00217F
:103F6000012008E0F149884208D101210220FFF731
:103F700023FD00210220FFF71FFD10BDEC49884200
:103F800006D101211020FFF717FD00211020F2E7D4
:103F9000E849884206D101212020FFF70DFD0021CC
:103FA0002020E8E7E449884207D184150121204612
:103FB000FFF702FD00212046DDE7E049884209D1F4
:103FC00001210C042046FFF7EEFC00212046FFF7FC
:103FD000EAFC10BDDA49884202D101214C04F1E724
:103FE000D8498842F5D101218C04EBE710B502884D
:103FF000CD4B984206D00124A407A04202D0CB4C5E
:10400000A04203D17024A2434C882243C84CA04252
:1040100003D0CD4C22400C89224302804A68C26200
:104020000A880285984208D0C44A904205D0C44A02
:10403000904202D0C34A904201D1897A018601217F
:10404000818210BD0021C9434160002101800181AE
:104050004180817270470185828270470288702397
:104060009A430A430280704741627047C1627047B9
:10407000406A7047008D704702220029018801D0F4
:10408000114300E091430180704704220029018818
:1040900001D0114300E09143018070478022002944
:1040A000018801D0114300E09143018070470288EC
:1040B00008239A43028002880A43028070470288DC
:1040C000A14B1A40028002880A43028070470029EF
:1040D000018802D00122114301E049084900018012
:1040E000704710B50A884B88CC881A438B882343C5
:1040F0001A430B891A434B8989891A430A43403072
:10410000828010BD0021018041808180C1800181B9
:1041100041818181704740300029818803D001228C
:10412000D203114301E04904490C8180704730B546
:10413000028C520852000284038C8288048B702502
:10414000AC43A4080D88A40025430224A3438C8912
:104150001C434B882343744CA04208D0774CA042A8
:1041600005D0774CA04202D0764CA0420DD1082455
:10417000A343CC891C4304239C438B882343724C68
:1041800022400C8A14434A8A22438280058389682C
:104190004163038430BD70B5028C10239A430284BE
:1041A000048C8288038B694D2B400D782D062D0CD5
:1041B0001D4320239C438B891B051E0C4B882643E3
:1041C0001B051B0C584C3343A04202D05B4EB0423F
:1041D00019D15F4E32400E8AB604360C3243A042EB
:1041E00011D18024A343CC892405240C1C434023F3
:1041F0009C438B881B051B0C2343564C22404C8A46
:10420000A404240C2243828005838968816303848B
:1042100070BD30B5028C504B1A400284038C8288EA
:10422000848B7025AC43A4080D88A40025434B4C17
:1042300023400C7B2406240C1C438B781B061B0C90
:104240002343394CA04215D1424C23408C7B240699
:10425000240C1C433E4B1C400B791B061B0C2343B8
:104260003F4C22400C8A2405240C14434A8A120530
:10427000120C2243828085838968C163038430BD28
:1042800030B5028C374B1A400284048C8388828BB1
:104290002E4D2A400D782D062D0C1543324A144020
:1042A0000A7B1207120C22438C782407240C144337
:1042B0001D4A904205D12D4A13400A8A9205120CDC
:1042C00013438380858389680164048430BD0021A1
:1042D00001804180818081608181C1810182418230
:1042E000704730B5034618330124058C8C40A54334
:1042F0000584002910D008290ED0091F0804400C9D
:10430000C018016807231B03994301600168120666
:10431000120C1143016030BD4808C01801687023B9
:10432000994301600168F4E7002C0140000400405B
:1043300000100040001400400020004000400140F8
:104340000044014000480140FFFC0000FF8C0000D9
:10435000FFFB0000FFF70000FFFE0000FFFD000074
:10436000FFCF0000FFEF0000FFDF0000FFBF0000F5
:104370004163704781637047C16370470164704750
:10438000028B70239A430A4302837047028BF64BD9
:1043900009021A40114301837047828B70239A43AC
:1043A0000A4382837047828BEF4B09021A40114304
:1043B000818370470029818802D00122114301E0E6
:1043C0004908490081807047028B08239A430A43B9
:1043D00002837047028BE54B09021A4011430183A7
:1043E0007047828B08239A430A4382837047828BEB
:1043F000DE4B09021A40114381837047028B04236C
:104400009A430A4302837047028BD94B09021A4030
:10441000114301837047828B04239A430A438283AA
:104420007047828BD24B09021A4011438183704737
:10443000028B80239A430A4302837047028B520403
:10444000520C0902114301837047828B80239A43E7
:104450000A4382837047828B5204520C0902114333
:1044600081837047028C02239A430A430284704777
:10447000028C08239A430A4302847047028C20234B
:104480009A430901114301847047028C80239A43A7
:104490000901114301847047028CB64B09021A408E
:1044A000114301847047028CB04B09021A4011433A
:1044B00001847047028CB04B09031A4011430184F8
:1044C0007047028908239A43028102890A430281C4
:1044D000704710B50123048C8B409C430484038CEB
:1044E0008A401343038410BD10B50423048C8B4011
:1044F0009C430484038C8A401343038410BD04222C
:104500000029818801D0114300E0914381807047E8
:10451000828B9A4B1A408283828B09020A438283E0
:104520007047828B0C239A438283828B0A43828357
:104530007047028B914B1A400283028B09020A4397
:1045400002837047F0B5048C1026B4430484058BB5
:10455000048C8B4F1B0309013D402B4312021A436D
:10456000A0239C430C43344302830484F0BD028B9C
:104570000C239A430283028B0A430283704770B56F
:10458000048C640864000484058B048C1B011343B1
:10459000F3260A22B54394432B430C4301210C43D9
:1045A0000383048470BDF8B5044608884E888A8861
:1045B0000B890D4600281DD0042824D00828208C03
:1045C0002AD0704908402084A08B278C31036C4E80
:1045D000120230400243180310436B4AA083174075
:1045E0000F43012109030F432784E9882046FFF781
:1045F0008FFFF8BD31462046FFF7C1FFE98820460E
:10460000FFF7B5FFF8BD31462046FFF79BFFE9886D
:104610002046FFF78EFFF8BD5C4908402084A18B3F
:10462000208C3702F3261B01B14313430B43584937
:10463000A3830840FF213843013108432084E988DF
:104640002046FFF76EFFF8BD002101804180012266
:104650008280C18001817047F8B50C4649880026E8
:1046600001250746002900D10226A288012A00D18F
:104670000225208823890028384610D0FFF762FFE2
:10468000E1883846FFF755FF23892A4631463846E8
:10469000FFF775FFE1883846FFF769FFF8BDFFF7C0
:1046A0006EFFE1883846FFF762FF23892A463146CC
:1046B0003846FFF747FFE1883846FFF73AFFF8BD75
:1046C000406B7047806B7047C06B7047006C7047E1
:1046D000002A828901D00A4300E08A438281704720
:1046E000818270470246128A00200A4200D00120CF
:1046F0007047C943018270470246138A002092899D
:104700000B400A40002B02D0002A00D00120704745
:10471000C943018270471143403001817047002A2C
:10472000828901D00A4300E08A43828170470822CF
:104730000029818801D0114300E0914381807047B6
:104740000189C908C90001817047028970239A4311
:104750000A430281704710B50446FFF7F6FF20892F
:1047600007210843208110BDFF8F0000FFF70000E4
:10477000FFFB0000FFFD0000FFDF0000FFF3000073
:10478000FF0C0000FFEF0000FF5F0000FFFE0000D5
:10479000FFF5000070B516460D46044660290CD0A2
:1047A00001223146FFF7EBFE29462046FFF7CDFFF9
:1047B000208907210843208170BD01223146FFF77F
:1047C000C1FEF1E710B504891B021343E4B20B43A9
:1047D0002343038110BD10B50446FFF7F3FF208982
:1047E000C108C90007200143702081430143218192
:1047F00010BD10B50446FFF7E5FF208901218903AC
:104800000843208110BD828870239A438280828869
:104810000A43828070470289D208D200028102894D
:104820000A4302817047028980239A4302810289E8
:104830000A430281704770B50689048B058CF6081F
:10484000F6000E430C4906810C40FF2102310C4357
:10485000AA218D431901114329430483018470BDAA
:1048600080220029818801D0114300E0914381809A
:104870007047403001827047FCFC0000B24910B51F
:10488000884209D1841401212046FFF78CF80021C9
:104890002046FFF788F810BDAC498842FBD10414CC
:1048A00001212046FFF788F800212046FFF784F811
:1048B00010BD002101800722418012028280C18048
:1048C000018141818181C18107210182704730B519
:1048D0000388C122920113400A88CC890D892243A2
:1048E000CC882C4322434C8922438C8922431A438F
:1048F00002808288964B1A408B88134383800A8AF1
:1049000002820288042349889A4311430180818BE3
:10491000904A1140818330BD002101804180818017
:10492000C1800222826081817047F0B505460C4645
:1049300002200021AA8B8BB00126854BBF3B1A4079
:10494000AA832884AF8BA268022A24D0A0880028DA
:1049500000D002266846FEF725FFE1880098CA1FAE
:10496000FF3AFA3A29D0710100F0D8F90A214843F8
:10497000A16800F0D3F9401D80B20A2100F0CEF901
:10498000C107C90F401AC003000C0902821EFE2A8B
:1049900001D302200021E288084302432A842088B0
:1049A0006188A2890843A188114308430121384343
:1049B000C9020843A8830BB0F0BD000A0A22504385
:1049C000A168D6E740220029018801D0114300E008
:1049D00091430180704710220029818801D0114342
:1049E00000E09143818070470029818B03D0012230
:1049F0009202114301E0584A114081837047828836
:104A0000534B1A400A43828070478288534B1A40A6
:104A1000828082880A4382807047012292039142F9
:104A2000018801D1114301E04D4A114001807047D6
:104A30004C4A9142018803D0FF220132114300E029
:104A400011400180704704220029818801D0114360
:104A500000E091438180704708220029818801D0BD
:104A6000114300E091438180704701737047818159
:104A70007047007B7047808970470288354B1A4029
:104A8000028002880A43028070470029018803D00F
:104A900001225203114301E0334A11400180704763
:104AA000018801221203114301807047012901D0BE
:104AB000008B7047808A7047008A7047002A82887E
:104AC00001D00A4300E08A43828070478288274BE6
:104AD0001A40828082880A43828070470909012334
:104AE0008B40002A828899B201D00A4300E08A43B1
:104AF0008280704700890321C902084070470089FD
:104B000003214902084070470246128900200A42E8
:104B100000D001207047C9430181704730B50D07AF
:104B200001222D0F14460346AC40002009098A409B
:104B300091B29A88A4B20A401989214202D0002A6F
:104B400000D0012030BD000000300140003800409E
:104B5000FFF00000FFF70000FFFB0000FFEF000088
:104B6000FFBF0000FFFE0000FFDF0000FF9F00000E
:104B700010B54D48016801221143016041684B4A5C
:104B80001140416001684A4A1140016001680122F8
:104B900092049143016041683F22120491434160B5
:104BA000C16A09090901C162016BFF2254329143B4
:104BB0000163416B4908490041630021816000F0B5
:104BC0002EF810BD70B5384D69680C200140394889
:104BD000394C03D0042901D0082901D0206014E009
:104BE0006A68696803239202DB03160F1940B61C3A
:104BF000002907D0E96A0907090F491C00F08EF85F
:104C00007043EBE72D484643266068682A49000652
:104C1000000F091D085C2168C140216070BD3CB5D2
:104C2000002221480192009201680123194301608A
:104C300002210524240305680D400095019D6D1C8B
:104C40000195009D002D02D1019DA542F3D104687C
:104C5000A40726D500931A4B11221A6042684260BD
:104C60004268426042687B23DB039A4342604268A9
:104C70000523DB041A434260026801231B061A4322
:104C8000026002689201FCD542689208920042607C
:104C900042680A43426041680907890F0229FAD134
:104CA0003CBD00923CBD0000001002400CB8FF0863
:104CB000FFFFF6FE00127A003800002000093D00D8
:104CC000002002400C4880F308880C480168090E57
:104CD0000B4A914205D10B480B4901600B480C4926
:104CE00001600C4880470C480047FEE7FEE7FEE7FE
:104CF000FEE7FEE7FEE7000050140020040000007D
:104D00001F000000181002400100000000000140D8
:104D100000000000714B0008B500000830B50B46DC
:104D2000014600202022012409E00D46D5409D4285
:104D300005D31D469540491B25469540401915460B
:104D4000521E002DF1DC30BDF0B507460846584034
:104D500087B0C00F049048000E465900400849082B
:104D6000BC1A884105D2384631461E4617460B46C6
:104D700002465800400810434CD0300D03904005C7
:104D80005900400D490D0590401A0290402872DAF2
:104D900018030121000B09050843019004980092B3
:104DA000002805D0019952420020884100920190CC
:104DB000029840210A1A0199009800F083F90546EB
:104DC0000C466B4607CB00F08DF9C0197141039A70
:104DD0000E0D0023D71756401A467A40164344D08A
:104DE000049A002A2DD0029A012A039A15DC120592
:104DF000C01A914101263605001C7141D20F059E53
:104E0000D2070093019202962A46234600F0CBF97E
:104E100007B0F0BD38463146FAE71605224A0F467C
:104E2000B218C01AB74101210905001C4F410018F2
:104E30007F41114618187941E20F10436D19644102
:104E400013E0E2076D0815436408C2071443039A90
:104E500001261205C01A91413605001C7141CE078A
:104E6000400830434908C01851412A46234600F003
:104E70008DF9CDE7FFE7049801224000C117121A0F
:104E800000238B4104983146C417381AA141EEE73C
:104E900030B40124E407634030BC55E730B401244A
:104EA000E407614030BC4FE70000E0FFF0B51FB4FD
:104EB00088B00B990998002448400999C00F49000F
:104EC00049080991C0070B990090490049080B91C6
:104ED00009990898A64608431CD00B990A980843DC
:104EE00018D0099801244000420D4800410D09984E
:104EF00024050003000B204309900B980003000BCE
:104F000020430B9050181C49401800220190144671
:104F1000104605E0002001460DB0F0BD032801DA7F
:104F2000034600E003239C46C11A0AAE0AE05F0074
:104F300008ADED5B4F00F75B7D430027AA187C416D
:104F4000491C5B1E6145F2DD410004AB5A5221044D
:104F5000120C0A43240C401C0828DFDB0198029045
:104F60000099704601910090059B049A0799069854
:104F700000F019F9D0E700000DFCFFFF10B500228A
:104F80009623114600F0C9F810BD410040020122ED
:104F9000400AD205090E80187F2901DA00207047E7
:104FA000962903DC9622511AC840704796398840EA
:104FB0007047C20FD207400040080BD0C10D072335
:104FC000DB01C91840020905400A1143C208400725
:104FD00011437047002001467047000010B50029BA
:104FE00004DB0124E40740428C412146002B04DB12
:104FF0001C460123DB075242A3418B4200D182426F
:1050000010BD000010B5002904DB0124E407404274
:105010008C412146002B04DB1C460123DB07524256
:10502000A341994200D1904210BD0000CB0FDB0795
:10503000490010B5490802460A4307D00A0D072463
:105040000903E401090B121B002A01DC002010BD3A
:10505000C900440F0C43C100E018D205801800F0CD
:1050600054F810BDF0B51FB40646002082B00546C6
:105070004024019100901BE0019922460F463046E2
:1050800000F0F6F8049A059B801A994110D3104657
:105090001946224600F016F8361A8F41019722462B
:1050A00001200021009F00F00DF838184D410090BC
:1050B0002046641E0028DFDC019B0098294632460A
:1050C00007B0F0BD10B5202A04DB0146203A91401C
:1050D000002010BD914020239C1A0346E340194351
:1050E000904010BD10B5202A06DBCB170846203AA9
:1050F0001041C1170B4306E00B461341D04020245A
:10510000A21A91400843194610BD002904DA401C38
:10511000490001D140084000704770B40024050CDC
:1051200005D11024000402D1002921D01124050E3C
:1051300001D100020834050F01D10001241D850FA3
:1051400001D18000A41C002801DB4000641C002960
:1051500008D020252E1B0D46F540A14000D001218E
:105160002943084301061B1B000ADB1D02D5002052
:1051700070BC7047DB05181880180029F8DA401C4D
:105180004900F5D170BC40084000704710B5002BB5
:1051900008DA0024401C614192185B411A4301D196
:1051A0004008400010BDF0B51FB482B005460C00A9
:1051B00003D0084600F07EF802E000F07BF82030D3
:1051C0000246009021462846FFF77CFF049B059A83
:1051D00004460F4618431143084314D018461043A1
:1051E0001BD0009840210A1A1846059900F040F893
:1051F00005460E46009A05990498FFF763FF084399
:1052000005D0012004E02046394607B0F0BD00205B
:10521000C11705430E432C43374300990E9863058D
:10522000401A7905E40A00220C43FD0A0A3002D52F
:1052300000200146E9E70105101969410C9C0D9D0C
:1052400000196941FFF7A2FFDFE70000064C0125C6
:10525000064E05E0E36807CC2B430C3C984710341E
:10526000B442F7D3FAF72AFFF0ED000810EE000879
:1052700010B5202A04DB0846203AD040002110BD9A
:105280000B46D340D0402024A21A9140084319462F
:1052900010BD00000FB410B503A9044B044A0298D6
:1052A00000F02EF810BC08BC04B018477F140008AA
:1052B000040000202021020C01D010211046020A17
:1052C00001D010460839020901D01046091F820892
:1052D00001D01046891E420801D0881E7047081A66
:1052E000704702E008C8121F08C1002AFAD17047AF
:1052F0007047002001E001C1121F002AFBD1704756
:10530000FFB58FB00F460446002606E025280AD0D8
:10531000129A11999047641C761C20780028F5D1C8
:10532000304613B0F0BD00250121A14A009500E0F0
:105330000543641C23780846203B98401042F7D16F
:1053400020782E2815D1042005436078641C2A2873
:105350000AD101CF641C00900BE000990A2251434E
:1053600030394018641C00902078014630390929F2
:10537000F3D920786C280ED004DC4C2813D06A288E
:1053800012D104E074280ED07A280DD10BE0012050
:105390004005054307E00121090562780D4382427B
:1053A00001D16D18641C641C2078864669284AD097
:1053B00008DC0028B4D058286DD0632810D06428A9
:1053C00008D140E070286BD0732812D0752860D0C7
:1053D000782860D0129A704611999047761CE5E0C3
:1053E0003878694608720020487202A801900120AE
:1053F00003E0386801900020C0433F1D69070CD5C9
:10540000002500E06D1C00998D420FDA8542F9DB22
:105410000199495D0029F5D108E0002500E06D1CE7
:105420008542FCDB0199495D0029F8D1761907E036
:10543000019801990078491C0191129A119990479D
:105440006D1EF5D2B2E00A20029000216802400FE2
:10545000039102280CD001CFC117844600290DDA30
:105460006246084652420021814194462D2008E0C0
:10547000FF1DFF08FF0003CF8446EFE7280504D592
:105480002B206A46107401203CE0E8073AD0202027
:10549000F7E70A2000E0102000210391029007E0C6
:1054A0001020029000210420054308200391009061
:1054B0006802400F022810D001CF0021844600204E
:1054C0000D9028071FD5704670280CD0029A102026
:1054D000039B42401A430CD015E0FF1DFF08FF005C
:1054E00003CF8446EBE740206A46107401200D90FC
:1054F0000CE06046084306D030206A4610747046BF
:10550000507402200D907046582804D029A00190B4
:105510000DA80E900DE02CA0F9E76046039B029ABF
:10552000FFF7A0FD019B84469B5C0E9A521E0E92D3
:10553000137060460843F0D10E9805A9081A203070
:105540000190680701D5009801E0012000900199C1
:10555000884203DD01460198081A00E0002000257A
:10556000009006E004A8129A405D119990476D1CC6
:10557000761C0D988542F5DB04E0129A30201199D3
:105580009047761C0099481E00900029F5DC08E041
:105590000E980E990078491C0E91129A1199904715
:1055A000761C0199481E01900029F1DC641CB4E6C8
:1055B00009280100303132333435363738396162E9
:1055C00063646566000000003031323334353637AD
:1055D00038394142434445460000000057323551B6
:1055E000313620577269746520416E6420526561BE
:1055F000642054657374204F4B0000007E08000047
:105600005B0800003808000014080000F0070000E4
:10561000CC070000A8070000840700005F07000017
:105620003B07000016070000F2060000CD06000050
:10563000A906000085060000610600003D06000086
:105640001A060000F6050000D3050000B1050000B1
:105650008F0500006D0500004B0500002A050000C5
:1056600009050000E9040000CA040000AA040000C3
:105670008C0400000000000000000000000000009A
:105680000000000000800100008001000080010097
:105690000080010000800100008001000080010006
:1056A000008001000080010000800100E0FFFF0792
:1056B000E0FFFF0700800100008001000080010082
:1056C00000800100008001000080010000800100D6
:1056D0000080010000000000000000000000000049
:1056E000E0FFFF07E0FFFF070000000000000000F0
:1056F00000000000000000182442424242424242A0
:1057000024180000000000101C10101010101010C1
:10571000107C00000000003C42424240201008047F
:10572000427E00000000003C4242402018204042DF
:10573000423C000000000020303028242422FE20BB
:1057400020F800000000007E0202021E22404042BB
:10575000221C0000000000182402023A4642424285
:10576000443800000000007E422020101008080885
:10577000080800000000003C424242241824424233
:10578000423C00000000001C22424242625C404059
:10579000241800000000007C424201010101014286
:1057A000221C0000000000000000000000000000BB
:1057B000C0036004300C1818181818100C300C3086
:1057C0000C300C300C300C300C300C300C300C30F9
:1057D000181018181818300C6004C00300000000DE
:1057E00000000000000000000000000000000000B9
:1057F00000018001F80180018001800180018001A9
:105800008001800180018001800180018001800190
:105810008001800180018001C003F81F00000000AA
:105820000000000000000000000000000000000078
:10583000E007101C0818043004300C300C30003025
:1058400000180018000C000600038001C000400092
:105850002020102008200430FC1FFC1F0000000046
:105860000000000000000000000000000000000038
:10587000E00318060C0C0C180C180C180018001873
:10588000000C0006C003000E0018001000300030AD
:105890000C300C300C100C18180CE0030000000049
:1058A00000000000000000000000000000000000F8
:1058B0000006000600070007800680064006200656
:1058C00020061006100608060C0604060206FE3F17
:1058D00000060006000600060006C03F00000000AB
:1058E00000000000000000000000000000000000B8
:1058F000F03FF03F0800080008000800080008001A
:10590000C807280C1818081000300030003000308C
:105910000C300C3004180418180CE00300000000D0
:105920000000000000000000000000000000000077
:1059300080076018301810181800080008000C00C4
:10594000CC076C0C1C181C100C300C300C300C30BC
:105950000C30183018103018700CC0070000000010
:105960000000000000000000000000000000000037
:10597000F83FF83F08100C08040804040004000273
:105980000002000200010001800080008000800011
:10599000C000C000C000C000C000C0000000000087
:1059A00000000000000000000000000000000000F7
:1059B000E007300C18180C300C300C301C301C1068
:1059C0007818F004E003180F0C1E0C1C0638063083
:1059D0000630063006300C18180CE00300000000FA
:1059E00000000000000000000000000000000000B7
:1059F000E00318040C080C180610063006300630B8
:105A0000063006300E380C341836F03100300018ED
:105A1000001800080C0C0C060C03F001000000003C
:105A20000000000000000000000000000000000076
:105A30003FFC0C300C300C300C300C300C300C3087
:105A40000C300C30FC3F0C300C300C300C300C3077
:105A50000C300C300C300C300C303FFC00000000DF
:105A60000000000000000000000000000000000036
:105A7000F81F800180018001800180018001800188
:105A8000800180018001800180018001800180010E
:105A900080018001800180018001F81F000000006A
:105AA00000000000000000000000000000000000F6
:105AB0007E001800180018001800180018001800C0
:105AC0001800180018001800180018001800180016
:105AD00018001840184018201830FE3F0000000041
