:020000040800F2
:100000008814002085540008BD1A0008BF1A000893
:1000100000000000000000000000000000000000E0
:10002000000000000000000000000000C11A0008ED
:100030000000000000000000C31A0008C51A0008F4
:10004000B554000800000000B5540008B55400087D
:10005000B5540008B5540008B5540008B55400085C
:1000600000000000B5540008B5540008B55400085D
:10007000B5540008B5540008B5540008000000004D
:10008000751D00080000000000000000B5540008C5
:10009000B5540008B5540008B5540008B55400081C
:1000A000B5540008B5540008B5540008F11B000809
:1000B000B55400080348854605F010FD0048004788
:1000C00009020008881400207CB5FF49FD4808603B
:1000D0000025A023F0223C212846009502F0B6FF1F
:1000E000FA4C60230C225A2118200195009403F049
:1000F00002F860230D225A2148200195009402F055
:10010000FAFF60230E225A2178200195009402F014
:10011000F2FF60230E225A21A8200195009402F0DC
:10012000EAFFFF20F53001F0F7FC7CBDFEB50A21A7
:1001300005F0D4F9002507460E46A023F0223C2105
:100140002846009502F082FFDF49DE480860DF4C58
:1001500060230A225A2118200195009402F0CBFF57
:1001600060230B225A2148200195009402F0C3FF1E
:1001700060233A465A2178200195009402F0BBFF93
:10018000602332465A21A8200195009402F0B3FF63
:10019000FF202D3001F0C0FCFEBDFEB52120012165
:1001A000400403F0BCFF0120C00200900124684617
:1001B0000471032509274571FF066946384603F097
:1001C00002FDF8130090002668460671C47145715F
:1001D0006946384603F0F7FCC02000906846067177
:1001E000C47145716946BA4803F0EDFC10200090D7
:1001F0006846047145716946384603F0E4FC1021F5
:10020000384603F042FDFEBDA2B0FFF7C6FF012253
:100210000920D102C00603F03AFD01F055FC4B2045
:10022000C00101F0A0FCABA005F07CFC01F0FAFCE1
:100230002F213B2001F06EFD02F085FAA94C1E2211
:100240002146A94802F09CFB642001F065FC1E22B7
:1002500021461AA802F0F8FA00241AAD295DA3A0DD
:1002600005F060FC641CE4B21D2CF7D3A0A005F0DF
:1002700059FC0A22002108A802F0E6FA14221E21E5
:1002800003A802F0E1FA08A8C078002800D00120F5
:100290009849002408706846817F55297ED096A031
:1002A00005F040FC00200F900E900D9010909E489D
:1002B0000B90002012901390054611909BA00F996F
:1002C00005F030FC9DA00E9905F02CFC9FA00D9927
:1002D00005F028FCA1A0109905F024FCA3A00B991F
:1002E00005F020FCA4A0129905F01CFCA5A0139910
:1002F00005F018FCA6A0119905F014FC02F0D1FD40
:10030000002002F08FFE704EA4483060A4480A21FD
:1003100000901F232222084603F0CFF8694830607E
:10032000A04F20230F22082134200097019402F0CF
:10033000E2FE20231022082148200097019402F0B9
:10034000DAFE2023112208215C200097019402F09C
:10035000D2FE20231222082170200097019402F07F
:10036000CAFE03F0E7F8904803F00AF904210220DE
:1003700001F0A7FC074601468CA005F0D3FB3846E8
:1003800003F0FEF808A88079401CC7B2062F00D9F8
:100390000027B80089491590085800E06AE14A4EE4
:1003A000022130600020864C019180235822009465
:1003B0000290382102F017FF04229A21872002F0D0
:1003C000D3FF03229A21872002F0CEFF02229A2136
:1003D000872002F0C9FF01229A21872002F0C4FF82
:1003E00000229A21872002F0BFFF00200121019105
:1003F000029080230822009438218C2002F0F3FE22
:1004000004225821D02002F0AFFF03225821D0202F
:1004100002F0AAFF0020012101910290802308220E
:1004200000944E21D62002F0DEFE644915981C315E
:100430000858306008A887710A22002102F0A0FA4B
:10044000002002215F4C3023019102905822009439
:10045000BE21184602F0C7FE0322E121662002F009
:1004600083FF0222E121662002F07EFF0122E121CA
:10047000662002F079FF0022E121662002F074FF7D
:100480000020012101910290302308220094BE2116
:100490006C2002F0A8FE0322CD218A2002F064FF26
:1004A0000222CD218A2002F05FFF0020019030233C
:1004B0000E22BE2100948E2002F01DFEFF2101318C
:1004C000092081E0FFFF0000600000203473000875
:1004D0000014004855736172742054657374204F82
:1004E0004B0D0A009CFF1F006C5E00082563000096
:1004F0000A0000005900002057323571313820427F
:10050000797465303D3078257820546865726D6F58
:100510006D6574657220486173204E6F742043616D
:100520006C69620A000000006106000043616C69AA
:100530006232355F41443D25640A000043616C69C5
:100540006233345F41443D25640A000043616C69B5
:100550006233375F41443D25640A000043616C69A2
:100560006234325F41443D25640A00004E544332F8
:100570003541443D25640A004469666632353D25AF
:10058000640A00004469666633343D25640A00004D
:100590004469666633373D25640A0000FF070000A2
:1005A000F4FD000834600008D904000042415441C1
:1005B0004456616C75653D25640A0000000000200A
:1005C00074990008346A0008C00603F05CFB7D20C3
:1005D000C00001F0A1FA0020F0231A46BE210090CD
:1005E00002F034FD0020B823F0223821009002F000
:1005F0002DFDFD4C34608E233C2282210A20009484
:1006000002F02CFE8E23782282214620009402F0F4
:1006100025FE00229821892002F0A6FE01229821C1
:10062000892002F0A1FE02229821892002F09CFE7E
:1006300003229821892002F097FE04229821892024
:1006400002F092FE05229821892002F08DFE8E2371
:10065000C82282219620009402F000FEE348346014
:100660000078002868D00021E14830230F22019152
:10067000009071E0DFA005F055FA08A845786846BB
:10068000C17B007BE84A6423504309186846427BDB
:10069000E64842436846807B58431018091868466C
:1006A0000F91C17C007CE04A50430A186846417CA7
:1006B000DE4841436846807C5843081810180E9065
:1006C0006846C17D007DD84A50430A186846417D7E
:1006D000D64841436846807D58430818111868463B
:1006E0000D91C17E007ED04A50430A186846417E73
:1006F000CE4841436846807E584308181018109031
:100700006846017F407F594308180B900F990E9857
:10071000401A5A2104F0E2FE12900D990E98081A20
:100720001E2104F0DBFE13900D991098401A32211F
:1007300004F0D4FE1190C1E504225821D02002F02B
:1007400013FE03225821D02002F00EFE0021A848FB
:1007500030230E22019100904E21D62002F0CBFCD6
:1007600008A84079002820D00026B14C20231D2263
:10077000B4211E200196009402F0BDFC20231E220D
:10078000B4212E200196009402F0B5FC20231F22F4
:10079000B4213E200196009402F0ADFC2023B42148
:1007A0001A464E20019600942FE00026A04C2023EC
:1007B0002222B4211E200196009402F09CFC2023EA
:1007C0002322B4212E200196009402F094FC2023D1
:1007D0002422B4213E200196009402F08CFC2023B8
:1007E0002522B4214E200196009402F084FC20239F
:1007F0002622B4215E200196009402F07CFC202386
:100800002722B4216E200196009402F074FC08A8FF
:1008100001798848002909D00021017000910A213E
:1008200029232C22084602F011FC01E0012101706D
:1008300001F01EFF01F005FB01F0BDFE01F082FC9E
:1008400001467DA005F06EF900201790169001205A
:100850001890642001F060F90124E4030920214686
:10086000C00603F0FEF900280DD04021794803F0BE
:10087000F8F9002871D00920E110C00603F0F1F961
:1008800000286BD0FEE3322001F046F90920214612
:10089000C00603F0E6F90028DBD16F490320088089
:1008A0006E4900200880012004211790084601F0BD
:1008B00008FA6B4904464843010B6A4A002083004A
:1008C000D3588B4203D3401CC0B21E28F7D3093043
:1008D000C6B2314664A005F025F9214665A005F0B1
:1008E00021F901F0D6FD010207D54002400A01F0CE
:1008F000D9FE012189050F1A02E001218905471857
:10090000394661A005F00EF90E98874201D2822087
:100910000AE00D98874201D2962005E010988742A0
:1009200001D2A52000E0AA200B998C4204D8091B13
:100930004143CC1958A003E0611A41437C1A5CA0E2
:1009400005F0F0F81098844209D9201A119904F0A2
:10095000C5FD0446FF34A53425E025E1FEE30D98EE
:10096000844206D9201A119904F0B8FDFF30733083
:1009700011E00E98844206D9201A139904F0AEFDB6
:10098000FF30553007E00F98844206D9201A12999B
:1009900004F0A4FDFA30044605E0001B129904F0AF
:1009A0009DFDFA210C1A214647A005F0BBF808A8C6
:1009B0004079002817D0FF20A530001B04F020FF4D
:1009C000454A464B04F0ACFE04F078FF074620464B
:1009D00004F00EFF394604F097FD04F01FFF0446B3
:1009E00001463FA086E087E0FFFF0000590000209D
:1009F000346A0008573235713136204279746531D6
:100A0000383D3078257820546865726D6F6D657457
:100A100065722048617320416C726561647920437E
:100A2000616C69620A00000040420F00102700005C
:100A30003460000841000020526561645F434F4EFE
:100A40003D25642C43533132333720496E6974207D
:100A50004F4B0A00001400484800002044000020CA
:100A6000C20C00008C5E00084E544354656D703D0E
:100A7000256409004E54434D6561737572654144A8
:100A80003D256409000000004D6561737572655F66
:100A900041443D25640900004E544341445F436F87
:100AA0006D70656E736174653D2B256409000000EF
:100AB0004E544341445F436F6D70656E736174655E
:100AC0003D2D256409000000546F626A54656D7005
:100AD0003D25640920000000333333333333D33FE3
:100AE000546F626A54656D705F426F64793D25642E
:100AF0000920000005F016F808A88078002808A84A
:100B0000417802D00C19F9A001E0641AFCA005F0AC
:100B100009F8FF20A53084421DD908A84079002893
:100B200019D00026B823F02238213046009602F072
:100B30008DFA3F20F74940010860F74C80230A22D4
:100B4000382133200196009402F0D5FA80230B223D
:100B5000019600941EE0FA2C21D208A840790028C2
:100B60001DD00026B823F02238213046009602F02E
:100B70006DFA3F20E74940010860E74C80230C22D2
:100B8000382133200196009402F0B5FA80230D221B
:100B90000196009438217D2002F0ADFA59E63146E5
:100BA000204602F042FD54E61998002804D00020A7
:100BB000DA49199008804CE6D84801881E29EDD9F9
:100BC00000240480D64903200880D248D54901601A
:100BD000F0231A4638212046009402F037FAD24E0C
:100BE00020231A22382110200096019402F083FA63
:100BF000CE4800901023012246210194242002F0C7
:100C00007AFA20231B22382130200096019402F02A
:100C100072FAC748202300901A46382101944020D8
:100C200002F029FA20230022382160200096019446
:100C300002F061FA00225021742002F095FB01229B
:100C40005021742002F090FB2023012238217820CB
:100C50000096019402F04FFA002240218C2002F00D
:100C600083FB012240218C2002F07EFB20230E22F8
:100C7000382190200096019402F03DFAB423F0222E
:100C800064210020009402F0E1F908A88078019422
:100C90000028A848009002D040230B2201E0402306
:100CA0000C2278211C2002F026FA0A21284604F0A2
:100CB00015FC01269F4C0196009400274023024614
:100CC0001591149002977821184602F08CFA0022B0
:100CD000A821682002F048FB0122A821682002F028
:100CE00043FB0222A821682002F03EFB0322A82138
:100CF000682002F039FB6846D0C04023782170207C
:100D0000159A02F070FA00228621942002F02CFB42
:100D100001228621942002F027FB022286219420C2
:100D200002F022FB03228621942002F01DFB4023C7
:100D30000A22782198200197009402F0DCF9FF2024
:100D4000F53000F0E9FE40217B4802F08AFF0028E0
:100D5000F9D0012109200903C00602F082FF002812
:100D600064D08021744802F07CFF00287ED04021AE
:100D7000714802F076FF0028EBD1FF20F53000F03B
:100D8000CBFE14980A21484315990027401808A95A
:100D90004870B823F02238213846009702F056F9FF
:100DA000614E20231A22382110200197009602F06C
:100DB000A2F95E48009010230222462101972420C8
:100DC00002F099F920231B22382130200197009648
:100DD00002F091F920231A22382140200197009631
:100DE00002F089F920232122382150200197009612
:100DF00002F081F900224021642002F0B5FA0122BC
:100E00004021642002F0B0FA20230E22382168200D
:100E10000197009602F06FF908A9C878002863D0FE
:100E2000002040230D2200940190A9E0C82000F08A
:100E300073FE08A88078002857D1002D03D06D1EBE
:100E40002D062D0E01D101204BE00A21284604F089
:100E500045FB0026009615911490B8236022782156
:100E6000402002F0F3F8B823902200E02BE0782134
:100E70007020009602F0EAF8B82340227821202062
:100E8000009602F0E3F808A8807801960028009404
:100E90005AD040230B2278211C2002F02CF9012784
:100EA000402300940197029678211846149A02F084
:100EB0009AF9019740230296009478217020159AA0
:100EC00002F091F945E7C82000F026FE08A88078D6
:100ED000002833D0002D03D06D1E2D062D0EB4D169
:100EE000002008A98870B0E731E027E0436F6D70FB
:100EF000656E7361746554656D703D2B25640A00E1
:100F0000436F6D70656E7361746554656D703D2DD2
:100F100025640A0060000020749900084A0000203F
:100F2000480000201FF8000034600008845F0008BB
:100F3000045F0008F4E10008001400486D1CEDB2E5
:100F4000632D82D9632580E740230C22A3E700228A
:100F50008621642002F008FA01228621642002F032
:100F600003FA02228621642002F0FEF90322862180
:100F7000642002F0F9F9002040230A220094019035
:100F80007821682002F0B7F8FE4E4021304602F08A
:100F900068FE0028F9D009270121FF060903384619
:100FA00002F05FFE002855D08021304602F059FE45
:100FB00000284FD04021F34802F053FE0028EAD128
:100FC000FF20F53000F0A8FD0026B823F0223821DC
:100FD0003046009602F03AF8EB48009020231A229F
:100FE00038210196102002F086F8E848009010237E
:100FF000032246210196242002F07DF8E248009069
:1010000020231B2238210196302002F074F8E0489A
:1010100000901F2322223C21442002F04EFA08A80F
:10102000007900286BD040230F22782148200196B8
:10103000009402F060F84023112278216820019684
:10104000009402F058F8402311227821882001965C
:10105000009463E0FF202D3000F05EFD01210903C4
:10106000384602F0FEFD0028F8D08021304602F01C
:10107000F8FD0028F2D008A8C078002824D0002766
:1010800008A800E030E2C770B823882278215F20EA
:10109000009701F0DBFF00228621642002F064F952
:1010A00001228621642002F05FF902228621642059
:1010B00002F05AF903228621642002F055F94023F8
:1010C0000A220197009415E00027B823882278218E
:1010D0005F20009701F0BAFF012008A9C870B8236B
:1010E000F02278216420009701F0B0FF40230D2208
:1010F000019700947821682001F0FDFF4BE700265E
:1011000040230F22782148200196009401F0F3FF3C
:1011100040231022782168200196009401F0EBFF13
:10112000984E4021304602F09CFD0028F9D0012164
:1011300009200903C00602F094FD00287ED080211A
:10114000304602F08EFD002878D040218D4802F014
:1011500088FD0028EBD1FF20F53000E0C1E100F070
:10116000DBFC0026B823F02238213046009601F03F
:101170006DFF8548009020231A2238210196102007
:1011800001F0B9FF81480090102304224621019606
:10119000242001F0B0FF7C48009020231B2238213E
:1011A0000196302001F0A7FF7748009020231D22F0
:1011B00038210196402001F09EFF734800902023C3
:1011C0001E2238210196502001F095FF6E480090B4
:1011D00020231F2238210196602001F08CFF6A48ED
:1011E000202300901A4638210196702001F083FFD9
:1011F000654800902023212238210196802001F0AB
:101200007AFF614800902023222238210196902005
:1012100001F071FF5C4800902023232238210196C1
:10122000A02001F068FF5848009020232422382194
:101230000196B02001F05FFF08A800E021E04079AE
:10124000002873D040231222782148200196009470
:1012500001F051FF40231322782168200196009469
:1012600001F049FF40231422782188200196009440
:1012700001F041FF402315227821A8200196009417
:101280006BE0FF202D3000F047FC0927FF0601210D
:101290000903384602F0E5FC0028F8D080213046EA
:1012A00002F0DFFC0028F2D008A80079002818D04E
:1012B000002708A80771B823F0227821482000975A
:1012C00001F0C4FE40230F227821482001970094AA
:1012D00001F011FF4023102278216820019700942B
:1012E00020E0012008A908710027B823F022782106
:1012F0004820009701F0AAFE40230F2278214820C1
:101300000197009401F0F7FE402311227821682014
:101310000197009401F0EFFE4023112278218820EC
:101320000197009401F0E7FE01E7FFE70026402364
:101330000F22782148200196009401F0DCFE402322
:101340001622782168200196009401F0D4FE4023F3
:101350001722782188200196009401F0CCFE094ED6
:101360004021304602F07DFC0028F9D001210920FF
:101370000903C00602F075FC00284ED080213046DB
:1013800008E000000014004834600008845F000892
:10139000F4FD000802F065FC00283ED040213046F4
:1013A00002F05FFC0028E1D1FF20F53000F0B4FB33
:1013B0000026B823F02238213046009601F046FE80
:1013C0004023182264213E200196009401F093FEF0
:1013D0004023192264215E200196009401F08BFEC7
:1013E00040231A2264217E200196009401F083FE9E
:1013F00040231B2264219E200196009401F07BFE75
:10140000552008A908700A22002108A801F0B8FA9E
:101410007D20000100F080FB41E3FF202D3000F033
:101420007BFB0927FF0601210903384602F019FC5E
:101430000028F8D08021304602F013FC0028F2D0BA
:1014400008A84079002820D0002708A84771B823B1
:10145000F02278214820009701F0F8FD40230F2268
:10146000782148200197009401F045FE4023162280
:10147000782168200197009401F03DFE4023172257
:10148000782188200197009428E0012008A948715C
:101490000027B823F02278214820009701F0D6FDDC
:1014A00040231222782148200197009401F023FE66
:1014B00040231322782168200197009401F01BFE3D
:1014C00040231422782188200197009401F013FE14
:1014D000402315227821A8200197009401F00BFEEB
:1014E00044E7169800280FD001201990FE490020EB
:1014F0000880179900297DD0FC490A881E2A79D9CD
:1015000008801790FFF7A5F91898002805D000204B
:1015100001461890F6480180F4E7F54801881E2935
:10152000F0D900210180F34F03203880012016906C
:101530001920FEF7FBFD00200926F6060B9001217D
:101540000903304602F08DFB0028F8D021463046D2
:1015500002F087FB0028F9D1322000F0DDFA0121EA
:101560000920C903C00602F07CFB002801D103203A
:10157000388000F08EFF010207D54002400A01F0DA
:1015800091F801218905081A02E001218905401816
:1015900004210F90084600F094FB0B994418214653
:1015A000D5A004F0BFFAD8480F9904F0BBFAFEF7B3
:1015B0008BFD2220FEF7BAFD0126F60309203146F5
:1015C000C00602F04EFB0028F8D1322000F0A4FA49
:1015D00009203146C00602F044FB002801D1032057
:1015E000388000F056FF010209D54002400A01F0A0
:1015F00059F800E04EE201218905081A02E00121B4
:101600008905401804210E90084600F05AFB041981
:101610002146BEA004F086FAC0A00E9904F082FA1A
:10162000FEF752FD2520FEF781FD09203146C00658
:1016300002F017FB0028F8D1322000F06DFA0920E3
:101640003146C00602F00DFB002801D1032038808E
:1016500000F01FFF010207D54002400A01F022F806
:1016600001218905081A02E0012189054018042199
:101670000D90084600F025FB04192146ABA004F0AC
:1016800051FAAEA00D9904F04DFAFEF71DFD2A2087
:10169000FEF74CFD0926F6060121C903304602F08B
:1016A000E0FA0028F8D1322000F036FA0121C9030F
:1016B000304602F0D6FA002801D10320388000F02D
:1016C000E8FE010207D54002400A00F0EBFF0121CD
:1016D0008905081A02E001218905401804211090AB
:1016E000084600F0EEFA0419214698A004F01AFA10
:1016F0009AA0109904F016FAA0089C4C0B90214671
:101700000F9803F0EBFE024668460273984E0846B7
:10171000314603F0E3FE01466846417331460F98B7
:1017200003F0DCFE0846642103F0D8FE014668465B
:10173000817364210F9803F0D1FE6846C17321467E
:101740000E9803F0CBFE0246684602740846314606
:1017500003F0C4FE01466846417431460E9803F01A
:10176000BDFE0846642103F0B9FE01466846817457
:1017700064210E9803F0B2FE6846C17421460D98AC
:1017800003F0ACFE0246684602750846314603F097
:10179000A5FE01466846417531460D9803F09EFE50
:1017A0000846642103F09AFE01466846817564216B
:1017B0000D9803F093FE6846C1752146109803F01A
:1017C0008DFE0246684602760846314603F086FEE4
:1017D0000146684641763146109803F07FFE084680
:1017E000642103F07BFE01466846817664211098EF
:1017F00003F074FE6846C17664210B9803F06EFE18
:101800000246684602774177552181770E990F98F5
:10181000081A5A2103F062FE12900E990D98401A90
:101820001E2103F05BFE13900D991098401A32218F
:1018300003F054FE11904FA004F074F932480F9950
:1018400004F070F930480E99103004F06BF92E480E
:101850000D99203004F066F92B481099303004F0CF
:1018600061F929480B99403004F05CF92648129937
:101870004C3004F057F924481399583004F052F9C9
:1018800021481199643004F04DF97D211298C90066
:1018900088420ED8139888420BD81198884208D8ED
:1018A0001298C82805D31398C82802D31198C828BD
:1018B00072D20026374F3446F0231A463C210020CE
:1018C000009401F0C3FB60230A225A2118200097DC
:1018D000019401F010FC60230D225A21482000974A
:1018E000019401F008FC58E04A0000204400002068
:1018F0004C000020480000204E5443323541443112
:101900003D25640A000000002C0500084E544332B7
:10191000354144323D25640A0000000043616C6992
:1019200062414433343D25640A0000004E54433282
:10193000354144333D25640A0000000043616C6971
:1019400062414433373D25640A0000004E5443325F
:10195000354144343D25640A0000000043616C6950
:1019600062414434323D25640A00000040420F00C9
:10197000102700002D2D2D2D2D2D2D2D2D43616C8B
:1019800069625F446174612D2D2D2D2D2D2D2D2D1E
:10199000000000003473000823E060230F225A2166
:1019A00078200097019401F0A6FB602310225A21B1
:1019B000A8200097019401F09EFBFF20F53000F075
:1019C000ABF8BA23F0223C210020009401F03EFB4A
:1019D000C82000F0A1F8761CF6B2032E00D26BE707
:1019E00090E5FEF771FB0026C823F0223C2130462B
:1019F000009601F02BFB2E4C8E233C2282210A20E4
:101A0000009401F02BFC8E23782282214620009442
:101A100001F024FC00229821892001F0A5FC01227C
:101A20009821892001F0A0FC02229821892001F050
:101A30009BFC03229821892001F096FC0422982126
:101A4000892001F091FC05229821892001F08CFC6D
:101A50008E23C82282219620009401F0FFFB0422ED
:101A60004621CD2001F080FC03224621CD2001F04B
:101A70007BFC1048009030230E2246210196D22094
:101A800001F039FB14221E2103A800F079FF002089
:101A9000169037E508490A88962AA1D908800121BD
:101AA00009200022C902C00602F0F1F82AE5000070
:101AB000FFFF0000346A0008440000207047FEE782
:101AC000704770477047000010B50420C04302F013
:101AD00005FE1D481B49006803F000FD1B49C0B20C
:101AE0007D220870D2005043488010BD1749097804
:101AF00048431749486100228A6108690123184355
:101B000008610869C30701D0C003FAD50869400815
:101B1000400008618A6170470C49498848430C4974
:101B2000486100228A610869012318430861086935
:101B3000C30701D0C003FAD5086940084000086116
:101B40008A61704700127A0074000020380000207B
:101B500000E000E070473149CA691206FCD52F4900
:101B6000203108817047F1B501218AB0480402F0A4
:101B7000D6FA0121880302F0DBFA0921CF060122FF
:101B8000384602F08CF801220A21384602F087F824
:101B9000032040020090022568460571032141712F
:101BA000002484710126C6716946384602F00BF89C
:101BB0000A98089404940594069403900C20174CFA
:101BC000079003A9204602F048FB01221449204651
:101BD00002F008FD0121204602F0A8FB1B21684607
:101BE00001724572867202A802F04CFD0BB0F0BD86
:101BF00010B50A4C0A49204602F023FD00280CD0FB
:101C0000204602F022FC0146204602F01AFC802108
:101C1000204602F00DFD0028F9D010BD003801402B
:101C20000501050030B5012189B0480402F077FABA
:101C30000121480202F07CFA0120000602F04EF970
:101C4000072006900321684601770024C477092005
:101C500006A9C00601F0B7FF2D4D284601F070FE21
:101C6000684601F08EFE68460094047104200590D9
:101C7000029469460494284601F070FE284601F05B
:101C800014FF0121284601F084FE0121284601F0BD
:101C90004AFF0028F9D009B030BD10B51C4C0146F0
:101CA0000722204601F0DCFE204601F01AFF042145
:101CB000204601F038FF0028F9D0204601F016FF39
:101CC00010BDF3B5002481B00F462646254600948A
:101CD00014E00198FFF7E1FF002D03D0A04203D2EA
:101CE000044605E0044602E00099884200D90090CD
:101CF00036180220FFF710FF6D1CEDB2BD42E8D38D
:101D00000098B91E301A001B03F0E8FB80B2FEBD3C
:101D10000024014013B584B00121022002F011FA21
:101D2000102168460173002444730121817303A8C4
:101D300002F0A8FC34483349006803F0CFFB334974
:101D4000401E48806846008A01906846818A01806A
:101D5000048144802E4C6946204602F027FD012272
:101D60001146204603F094F80121204602F08FFD31
:101D700006B010BD70B5264C0121204603F09CF83A
:101D800000283BD00121204603F0A2F81F4C214936
:101D9000E0880926401C80B20025F606E0808842D3
:101DA00017D9E580A088401CA0806089401C608114
:101DB000A089401CA081208900281FD0401E00045B
:101DC000000C208108D1257000221021304601F03E
:101DD0005EFF2089002811D0607800280ED020787E
:101DE000401CC0B22070022801D2012202E0042867
:101DF00005D200221021304601F049FF70BD257048
:101E000070BD0000808D5B00740000204000002049
:101E1000000400408206000070B50124FF4DE4027A
:101E200000222146284601F032FF0A20FFF75EFE1D
:101E300001222146284601F02AFFC820FFF756FE5E
:101E400070BDFEB501210025880402F068F9F34C4D
:101E500001210C260022C902204601F018FF7D272F
:101E6000FF0001218902204601F0FBFE02900120C3
:101E7000FFF752FE6D1CADB2BD420DD90122D10259
:101E8000204601F004FF01229102204601F0FFFEEE
:101E9000E3A003F047FEFEBD02980128E1D0002533
:101EA0000127FF0201223946204601F0F0FE1E20E4
:101EB000FFF71CFE00223946204601F0E8FE1E20F6
:101EC000FFF714FE6D1CEDB2182DEBD30122D502E5
:101ED0002946204601F0DBFE1E20FFF707FE002208
:101EE0002946204601F0D3FE1E20FFF7FFFD012208
:101EF0002946204601F0CBFE1E20FFF7F7FD002209
:101F00002946204601F0C3FE1E20FFF7EFFD012207
:101F10002946204601F0BBFE1E20FFF7E7FD002208
:101F20002946204601F0B3FE1E20FFF7DFFD012207
:101F30002946204601F0ABFE1E20FFF7D7FD002208
:101F40002946204601F0A3FE1E20FFF7CFFD012207
:101F50002946204601F09BFE1E20FFF7C7FD002208
:101F60002946204601F093FE1E20FFF7BFFD6F10AB
:101F700001206946009708710020C871204601F0D1
:101F800022FE01222946204601F081FE1E20FFF795
:101F9000ADFD01223946204601F079FE0022294696
:101FA000204601F074FE1E20FFF7A0FD0122294605
:101FB000204601F06CFE1E20FFF798FD01223946F5
:101FC000204601F064FE00222946204601F05FFE13
:101FD0001E20FFF78BFD01222946204601F057FE07
:101FE0001E20FFF783FD00223946204601F04FFEF8
:101FF00000222946204601F04AFE1E20FFF776FD0A
:1020000001222946204601F042FE1E20FFF76EFD08
:1020100000223946204601F03AFE00222946204699
:1020200001F035FE1E20FFF761FD01222946204602
:1020300001F02DFE1E20FFF759FD012239462046F2
:1020400001F025FE00222946204601F020FE1E2038
:10205000FFF74CFD01222946204601F018FE1E2004
:10206000FFF744FD00223946204601F010FE002211
:102070002946204601F00BFE1E20FFF737FD012206
:102080002946204601F003FE1E20FFF72FFD012206
:102090003946204601F0FBFD00222946204601F08A
:1020A000F6FD1E20FFF722FD01222946204601F001
:1020B000EEFD1E20FFF71AFD00222946204601F002
:1020C000E6FD1E20FFF712FD00257F0001223946A4
:1020D000204601F0DCFD1E20FFF708FD300601D58B
:1020E000012200E0002201218902204601F0CFFDFB
:1020F0007006060E00223946204601F0C8FD1E205B
:10210000FFF7F4FC6D1CEDB2082DDFD30122394638
:10211000204601F0BCFD1E20FFF7E8FC00223946F6
:10212000204601F0B4FD1E20FFF7E0FC01208002F4
:1021300000900020694608710120C871204601F016
:1021400042FDFEBDFEB501210025880401F0E7FF38
:102150000127324CFF0200223946204601F097FD4C
:102160007D26F60001218902204601F07AFD0290C9
:102170000120FFF7D1FC6D1CADB2B5420ED9012292
:102180003946204601F083FD01229102204601F0EC
:102190007EFD29A003F0C6FC0120FEBD02980128A7
:1021A000E0D000263D4601222946204601F06FFD81
:1021B0001E20FFF79BFC00222946204601F067FD08
:1021C0001E20FFF793FC761CF6B2182EEBD30122EB
:1021D0002946204601F05BFD1E20FFF787FC002208
:1021E0002946204601F053FD1E20FFF77FFC012207
:1021F0002946204601F04BFD1E20FFF777FC002208
:102200002946204601F043FD1E20FFF76FFC012206
:102210002946204601F03BFD1E2019E0000400483D
:10222000436F6E66696720526567697374657220D3
:102230006572726F720D0A005265616420526567A3
:102240006973746572206572726F720D0A00000006
:10225000FFF74CFC00222946204601F018FD1E2005
:10226000FFF744FC01222946204601F010FD1E2004
:10227000FFF73CFC00222946204601F008FD1E2005
:10228000FFF734FC01222946204601F000FD1E2004
:10229000FFF72CFC00222946204601F0F8FC1E2006
:1022A000FFF724FC0126B602012768460096077155
:1022B0000021C1716946204601F085FC01222946B2
:1022C000204601F0E4FC1E20FFF710FC01223146FD
:1022D000204601F0DCFC00222946204601F0D7FC14
:1022E0001E20FFF703FC01222946204601F0CFFC07
:1022F0001E20FFF7FBFB00223146204601F0C7FC01
:1023000000222946204601F0C2FC1E20FFF7EEFB0A
:1023100001222946204601F0BAFC1E20FFF7E6FB09
:1023200001223146204601F0B2FC00222946204617
:1023300001F0ADFC1E20FFF7D9FB01222946204603
:1023400001F0A5FC1E20FFF7D1FB002231462046FC
:1023500001F09DFC00222946204601F098FC1E2039
:10236000FFF7C4FB01222946204601F090FC1E2005
:10237000FFF7BCFB01223146204601F088FC002219
:102380002946204601F083FC1E20FFF7AFFB012207
:102390002946204601F07BFC1E20FFF7A7FB012207
:1023A0003146204601F073FC00222946204601F008
:1023B0006EFC1E20FFF79AFB01222946204601F001
:1023C00066FC1E20FFF792FB00223146204601F0FA
:1023D0005EFC00222946204601F059FC1E20FFF732
:1023E00085FB01222946204601F051FC1E20FFF703
:1023F0007DFB00222946204601F049FC1E20FFF704
:1024000075FB0021684600960171C7716946204638
:1024100001F0D9FB0026374601222946204601F06B
:1024200036FC1E20FFF762FB00222946204601F001
:102430002EFC1E20FFF75AFB7006060E01218902B2
:10244000204601F00EFC012801D1761CF6B27F1C5B
:10245000FFB2082FE0D301222946204601F017FCE5
:102460001E20FFF743FB00222946204601F00FFC07
:102470001E20FFF73BFB01208002009000216846F0
:1024800001710121C1716946204601F09CFB304673
:10249000FEBDFEB501210025880401F040FE0127A4
:1024A000BF0200216846009701710121C171804C73
:1024B0006946204601F087FB00227900204601F0A2
:1024C000E6FB1DE001218902204601F0CAFB064619
:1024D0000120FFF721FB6D1C7D20ADB2C0008542BD
:1024E0000ED90122D102204601F0D1FB0122910236
:1024F000204601F0CCFB6FA003F014FB0120FEBDD1
:10250000012EDFD0002601253746ED0201222946A3
:10251000204601F0BCFB1E20FFF7E8FA0022294606
:10252000204601F0B4FB1E20FFF7E0FA1E20FFF763
:10253000DDFA012176008902204601F092FB012894
:1025400000D1761C1E20FFF7D1FA7F1CFFB2182F96
:10255000DCD3002701222946204601F098FB1E20EB
:10256000FFF7C4FA00222946204601F090FB1E2006
:10257000FFF7BCFA7F1CFFB2162FEBD301222946CE
:10258000204601F084FB1E20FFF7B0FA0022294606
:10259000204601F07CFB1E20FFF7A8FA01208002F4
:1025A00000900020694608710120C871204601F0A2
:1025B0000AFB3046FEBD10B5FFF743FCFFF7C2FD36
:1025C0000C2802D03FA003F0ADFA10BDF0B5424E8A
:1025D00085B0306803F00CF90546FFF75AFF03F0A9
:1025E00007F904466800000E22D0204603F02AF9BD
:1025F0003A4A3B4B0391029003F092F80746284673
:10260000049103F01FF93A4601910090049B03F0F6
:102610002DF90CD3334A344B0399029803F080F818
:1026200002460B460199009803F034F900D22C467B
:102630006000000E1AD0204603F004F92B4A2C4B00
:1026400003F06EF804460F46284603F0FBF8294ACB
:10265000294B03F065F822463B4602F0AFFF03F03A
:102660002DF903F0DBF8306005B0F0BD3068FBE712
:102670007CB50121880401F052FD0120C0020090C8
:10268000012469460A4E0C710025CD71304601F0D7
:102690009AFAA002009069460D71CC71304601F0A3
:1026A00092FA7CBDC0434002400A401C70470000C3
:1026B0000004004852656164204144206572726FD5
:1026C000720D0A00496E69745F435331323337200B
:1026D0006572726F720D0A00500000209A999999E4
:1026E0009999E93F333333333333F33FAE47E17ADC
:1026F00014AEEF3F7B14AE47E17A843FF8B5012674
:10270000E84FB60300223146384601F0C0FA902067
:1027100000F0F2F9002000F0EFF9002000F0ECF9F1
:10272000002000F0E9F9FF2000F0E6F90402FF20A4
:1027300000F0E2F92043054601223146384601F017
:10274000A6FA2846F8BD7CB50121880401F0E7FC13
:102750000124A403012069460094087100228A71B3
:1027600003224A71CF4DC871284601F02CFA214648
:10277000284601F088FA01222146284601F087FA0E
:1027800000F0DFF9002000F02FFAFFF7B7FFC6498D
:10279000C64A08800146904201D1C5A000E0CDA004
:1027A00003F0C0F97CBD70B50125BE4EAD0300221B
:1027B0002946304601F06BFA052000F09DF9FF2014
:1027C00000F09AF9044601222946304601F05FFAEA
:1027D000204670BD70B50124B24D0646A403002208
:1027E0002146284601F053FA012000F085F93046D1
:1027F00000F082F901222146284601F048FA70BD16
:1028000070B50124A74DA40300222146284601F0FB
:102810003EFA062000F070F901222146284601F018
:1028200036FA70BD70B501249E4DA40300222146E6
:10283000284601F02CFA042000F05EF9012221461E
:10284000284601F024FA70BDF8B5012715460C465C
:102850000646BF0300223946924801F018FA0320C9
:1028600000F04AF92002000E00F046F92004000EA4
:1028700000F042F9E0B200F03FF9002405E0FF204B
:1028800000F03AF93055641CA4B2AC42F7D30122EF
:102890003946844801F0FBF9F8BD10B5FFF783FF16
:1028A000C007FBD110BDF8B515460C460646FFF72C
:1028B000A7FF0127BF03002239467A4801F0E7F954
:1028C000022000F019F92002000E00F015F9200492
:1028D000000E00F011F9E0B200F00EF9002404E05F
:1028E000305D00F009F9641CA4B2AC42F8D30122B7
:1028F00039466C4801F0CBF9FFF7CFFFF8BDF8B5CA
:1029000007460E46FF20C9B20130441A1546A242BE
:1029100000D81446224631463846FFF7C4FFA54288
:1029200009D0281B3F193619FF2485B20134A5426E
:10293000F0D82C46EEE7F8BD70B50403FFF760FF52
:10294000FFF7ABFF0125574EAD0300222946304665
:1029500001F09DF9202000F0CFF82002000E00F0D9
:10296000CBF82004000E00F0C7F8E0B200F0C4F885
:1029700001222946304601F08AF9FFF78EFF70BD2B
:10298000F7B582B05B480090039815460605070B23
:102990000120360D0003841BA24200D814463903DF
:1029A0000122120301910098FFF74EFF002006E07C
:1029B00000993218895CFF2903D1401C80B2A042E3
:1029C000F6D3A04225D23846FFF7B6FF002006E036
:1029D00002998319095C009A401CD15480B2A0422C
:1029E000F6D30122120301990098FFF788FFA54250
:1029F00013D0029800260019029003987F1C00193A
:102A00000390281B012485B22403A542C7D82C4675
:102A1000C5E7224603990298E7E705B0F0BD70B517
:102A2000FFF7EEFEFFF739FF01241E4DA40300223D
:102A30002146284601F02BF9C72000F05DF801225D
:102A40002146284601F023F9FFF727FF70BD70B536
:102A50000124144DA40300222146284601F017F951
:102A6000B92000F049F801222146284601F00FF96B
:102A70000320FFF73BF870BD70B50124094DA40396
:102A800000222146284601F002F9AB2000F034F87C
:102A900001222146284601F0FAF80320FFF726F824
:102AA00070BD0000000400485400002014C800005D
:102AB0005732355158582049443D25782C573235E6
:102AC0005158585F545950453D7732357131360A67
:102AD000000000005732355158582049443D2563C5
:102AE0002C5732355158585F545950453D457272F4
:102AF0000A0000008800002070B506460024414D01
:102B000003E0641CE4B2C82C0FD80221284602F06E
:102B1000DBFB0028F5D03146284602F086FB002476
:102B200005E0641CE4B2C82C01D9002070BD01216D
:102B3000284602F0C9FB0028F3D0284602F079FBB2
:102B400070BDF0B5012187B0480401F0E8FA012119
:102B50000F03384601F0ECFAE020059002266846A3
:102B60000676002484760125C5764576092005A9D8
:102B7000C00601F028F8092000220521C00601F056
:102B80008EF8092000220621C00601F088F80920ED
:102B900000220721C00601F082F81A4802F04EFA1E
:102BA0006846FF21048005314180072109028180A8
:102BB000C68005816902418138218181C481072154
:102BC000018269460F4802F062FA39460D4802F068
:102BD000FCFA01210B4802F0D5FAFF20FFF78CFF29
:102BE0000949087007B0F0BD014610B505480288D4
:102BF00038239A43028002880A430280012102F0AE
:102C0000C1FA10BD003001405600002070B50446E6
:102C1000FE4DC00701D0012200E00022012128461C
:102C200001F035F86008C00701D0012200E0002261
:102C30000221284601F02BF8A008C00701D001228C
:102C400000E000220421284601F021F8E008C00736
:102C500001D0012200E000220821284601F017F8E7
:102C60002009C00701D0012200E0002210212846DF
:102C700001F00DF86009C00701D0012200E0002238
:102C80002021284601F003F8A009C00701D0012245
:102C900000E000224021284600F0F9FFE00901D0C1
:102CA000012200E000228021284600F0F0FF70BDE4
:102CB00070B50126D54D04467603002231462846DC
:102CC00000F0E5FFA88A000A00022043A882D04C49
:102CD00000223146204600F0DAFF0122314620462C
:102CE00000F0D5FF01223146284600F0D0FF70BD2C
:102CF00070B50122C54D044656033146284600F002
:102D0000C6FFA88A000A00022043A882C04C002205
:102D10003146204600F0BBFF01223146204600F03C
:102D2000B6FF70BDF8B50122B84C054656033146D2
:102D3000204600F0ACFFA08AE9B2000A0002084376
:102D4000A082B34F00223146384600F0A0FF012296
:102D50003146384600F09BFF01223146204600F004
:102D600096FFA08A290A000A00020843A0820022D6
:102D70003146384600F08BFF01223146384600F0DC
:102D800086FFF8BDF8B507461C4615460E462A20B4
:102D9000FFF78EFF3804000EFFF7AAFFF8B2FFF727
:102DA000A7FF2804000EFFF7A3FFE8B2FFF7A0FF7C
:102DB0002B20FFF77DFF3004000EFFF799FFF0B2E4
:102DC000FFF796FF2004000EFFF792FFE0B2FFF737
:102DD0008FFF2C20FFF76CFFF8BD70B501228C4DE2
:102DE00094032146284600F052FF0120FEF794FE8E
:102DF00000222146284600F04AFF0A20FEF78CFEFA
:102E000001222146284600F042FF7820FEF784FE8A
:102E100070BDFEB50121480401F081F9012188044B
:102E200001F07DF901217B4801F079F9002000F0E3
:102E3000DCFF03256D0300216846009541710124E4
:102E4000734E04716946304600F0BDFE2946304697
:102E500000F01BFF660368460096047103256B4F64
:102E600045716946384600F0AEFE3146384600F0FE
:102E70000CFF2002009068460471457109206946E4
:102E8000C00600F0A0FEFF20009068460471457166
:102E90006946384600F097FEFF21384600F0F5FEFF
:102EA000FEBD10B5FFF7B5FFFFF797FF3620FFF720
:102EB000FFFE0020FFF71CFF3A20FFF7F9FE052078
:102EC000FFF716FFB220FFF7F3FE0C20FFF710FF0D
:102ED0000C20FFF70DFF0020FFF70AFF3320FFF75C
:102EE00007FF3320FFF704FFB720FFF7E1FE35208F
:102EF000FFF7FEFEBB20FFF7DBFE1920FFF7F8FE11
:102F0000C020FFF7D5FE2C20FFF7F2FEC220FFF70E
:102F1000CFFE0120FFF7ECFEC320FFF7C9FE122011
:102F2000FFF7E6FEC420FFF7C3FE2020FFF7E0FE18
:102F3000C620FFF7BDFE0F20FFF7DAFED020FFF717
:102F4000B7FEA420FFF7D4FEA120FFF7D1FEE020BA
:102F5000FFF7AEFED020FFF7CBFE0420FFF7C8FE40
:102F60000D20FFF7C5FE1120FFF7C2FE1320FFF76B
:102F7000BFFE2B20FFF7BCFE3F20FFF7B9FE542019
:102F8000FFF7B6FE4C20FFF7B3FE1820FFF7B0FEA8
:102F90000D20FFF7ADFE0B20FFF7AAFE1F20FFF765
:102FA000A7FE2320FFF7A4FEE120FFF781FED0203B
:102FB000FFF79EFE0420FFF79BFE0C20FFF798FE14
:102FC0001120FFF795FE1320FFF792FE2C20FFF74C
:102FD0008FFE3F20FFF78CFE4420FFF789FE512033
:102FE000FFF786FE2F20FFF783FE1F20FFF780FEEE
:102FF0001F20FFF77DFE2020FFF77AFE2320FFF73A
:1030000077FE2120FFF754FE112005E00004004860
:103010000008004802000800FFF74AFE2920FFF7D9
:1030200047FE10BD70B50646EF2300211A4608463C
:10303000FFF7A8FE002400253046FFF773FE6D1C45
:10304000F02DF9D3641CF02CF5D370BDF8B51E46F5
:1030500017465B1E521EFFF795FE002508E0002470
:1030600003E00698FFF75EFE641CB442F9D36D1CC2
:10307000BD42F4D3F8BDFEB5D408099E550700D073
:1030800001256419F84D5C43AF68CB188218521EB5
:103090005B1E0097FFF776FE3146F4A002F042FD7A
:1030A00000276643019616E008990198C919465C05
:1030B0000025F00702D0EC48009901E0EA48416899
:1030C0008160E9488068FFF72DFE6D1C7608EDB23F
:1030D000082DEED37F1CA742E6D3E3490098886011
:1030E000FEBD10B50B460246FFF74CFEDE48806879
:1030F000FFF718FE10BDFFB5184658438BB0050901
:103100000024159ED8480694806859080790F0203E
:103110000891421A0B998A4259D3C11A0C988142DC
:1031200055D3C3180B9908985B1E4218521E0C9970
:103130000B98FFF727FE002E01D0002041E00D98EC
:1031400000266843019017E0149901988919475C9B
:103150000024F80703D0C4490798886002E0C248F9
:1031600041688160C0488068FFF7DCFD641C7F080F
:10317000E4B2082CEDD3761CAE42E5D324E00D98E2
:10318000009A149968438918475C08980026401EE5
:103190000590F80706D006990C9841180B9800196D
:1031A000FFF79FFF0598641CA04203D206980024F5
:1031B000401C0690761C7F08F6B2082EE9D30098D2
:1031C000401C0090A842DAD3A749079888600FB046
:1031D000F0BD0246012000E050430B46491EC9B233
:1031E000002BF9D17047FFB583B0002706983C4605
:1031F00045080D9E2EE0301B401EC1B20A20FFF78D
:10320000E8FF0146059802F069F90A2102F066F923
:103210000A46002F05D1701E844202DA002A0AD025
:1032200001270E990C98019100902846039960435C
:103230004018069B09E090480E990191009028469D
:10324000039960434018069B20220499FFF753FF1F
:10325000641CE4B2B442CED307B0F0BDFFB581B078
:103260001F4616460C460198FFF78CFD08E0019DAD
:1032700003E00A98FFF756FD6D1CB542F9D9641CAE
:10328000BC42F4D905B0F0BD08B5774A4B1D926831
:103290000092421D401F491FFFF7E0FF08BDF0B537
:1032A0008BB00024161A06905D1A601E27460494FF
:1032B0000591002E01DD012108E0002E05D07642A7
:1032C0000990002D04DD01200BE000210991F8E7B1
:1032D000002D05D06D420890AE4204DD344603E077
:1032E00000200890F8E72C4600200790601C0A9008
:1032F000079819E005990698FFF7F3FE04987F19DF
:1033000080190490A04205DD001B049009990698DD
:1033100040180690A74204DD089905983F1B401805
:1033200005900798401C07900A998842E2D90BB093
:10333000F0BDF8B51C4615460E4607460B46FFF78E
:10334000AEFF3A46234631461046FFF7A8FF234614
:103350002A4619463846FFF7A2FF2A462346314639
:103360001046FFF79CFFF8BDF0B50E460746002556
:103370005000032187B0081A144604903FE0711BE7
:10338000381B01910090FFF7ACFE381901990590A8
:10339000FFF7A7FE3119781B02910390FFF7A1FEFA
:1033A00001990098FFF79DFE311B01910398FFF7EB
:1033B00098FE711903910598FFF793FE781901990A
:1033C0000190FFF78EFE02990198FFF78AFE03999C
:1033D0000098FFF786FE04986D1C002804DAA90007
:1033E0000818801D049006E0281B81000498081826
:1033F0000A30641E049031197819FFF772FEA54255
:10340000BDDD29E7FEB502242046282148430025DA
:103410000190273000902846282148430246273251
:10342000009B0199FFF7AEFC4F2328211A4608465E
:10343000FFF7A8FC00261148770038184078FFF7FE
:1034400057FC0E48C05DFFF753FC19208001761C25
:103450008642F0DB6D1C062DDDDB641C062CD3DB05
:10346000014900200870FEBD58000020696E6465A7
:10347000783D25640A0000003460000874D5000817
:10348000F8B514465C43CB1882186400521E5B1ECC
:10349000069DFFF777FC0026640808E0770078199E
:1034A0004078FFF725FCE85DFFF722FC761CB4426C
:1034B000F4D8FF4900200870F8BDFFB587B0FC4E76
:1034C00004460490B0680390D8085A0700D001223F
:1034D0008018099ACB185043A21801902046521E1A
:1034E0005B1EFFF74FFC00251DE010980026475D8E
:1034F000F80703D0EE490398886002E0EC48416881
:103500008160EB488068FFF70DFC0498641C211A69
:1035100009987F08814201D1049C03E0761CF6B231
:10352000082EE5D36D1C01988542DED3E04903984F
:103530008860FCE638B5DF4C0D23DC220A21B4207C
:103540000094FFF78BFE2123DC221E21B42000947F
:10355000FFF784FE1E23B7220A21B4200094FFF750
:103560007DFE2123DF220A21DC200094FFF776FE76
:103570001823E2221221DF200094FFF76FFE38BDEE
:1035800038B5CD49884201D90A2436E09721C900CF
:10359000884201D9092430E0C7493739884201D926
:1035A00008242AE0C4495839884201D9072424E074
:1035B000C1497939884201D906241EE0BE499A39A9
:1035C000884201D9052418E0BB49BB39884201D99A
:1035D000042412E0B849DC39884201D903240CE004
:1035E000B549CF39884201D9022406E03B210901BF
:1035F000884201D9012400E00024002000901E230D
:10360000DC220D21B720FFF721FD022C02D83F203C
:10361000400100E0A9480090600022181C230F21FF
:10362000B920BC32FFF71AFE38BDF0B5A04E0546F2
:10363000707885B000280FD0284602F0E1F8A04A43
:10364000A04B02F06DF802F039F99F4901F05CFFE0
:1036500002F0E4F8074600E02F460A21384601F060
:103660003DFF049103909348B06098480024009077
:1036700020230F22082101943420FFF73CFD9348BA
:10368000009020231022082101944820FFF733FDE9
:103690008E48009020231122082101945C20FFF71E
:1036A0002AFD8A48009020231222082101947020CC
:1036B000FFF721FDFF208230854202D93F204001E3
:1036C00006E0FF207630854201D9814800E07B4842
:1036D000B060B423F022382100200094FFF7B6FC3C
:1036E00075493846E7390227884227D979480321A6
:1036F0006A4613C2602348210020039AFFF773FD36
:1037000003229A219720FFF72FFE02229A21972069
:10371000FFF72AFE01229A219720FFF725FE0022BB
:103720009A219720FFF720FE6A490120009160232B
:103730000190482102949E20049A2BE06648009054
:1037400080230197029438210020039AFFF74BFD54
:1037500004229A218720FFF707FE03229A2187205F
:10376000FFF702FE02229A218720FFF7FDFD0122CA
:103770009A218720FFF7F8FD00229A218720FFF782
:10378000F3FD0120544900910190802302943821D7
:103790008C20049AFFF727FD7078504E002804D043
:1037A00030230F22009601940DE004225821D020EE
:1037B000FFF7DAFD03225821D020FFF7D5FD302393
:1037C0000E22009601944E21D620FFF794FCC820CB
:1037D000FEF7A2F9FF208230854211D9404CFA2031
:1037E0002760FEF799F9FA202760FEF795F9FA208D
:1037F0002760FEF791F9FA202760FEF78DF9276020
:1038000040E5F3B585B00A2101F068FE0391054655
:1038100027492A4888600024B423F02264212046E6
:103820000094FFF713FC02262A4F60232A4619460C
:103830001020009701960294FFF7D5FC0322AA21DD
:103840007C20FFF791FD0222AA217C20FFF78CFD4E
:103850000122AA217C20FFF787FD0022AA217C20DB
:10386000FFF782FD01206023019000970294194622
:103870008820039AFFF7B7FC03227821C020FFF7C6
:1038800073FD02227821C020FFF76EFD13480090DF
:1038900030230E226E210194C820FFF72CFCE82370
:1038A000D422C821B4200094FFF7D0FB074D19E0C3
:1038B00058000020FFFF0000CE0400001FF80000A9
:1038C000CDCCCCCCCCCCFC3F0000A0433460000875
:1038D000FF0700003473000874990008346A000878
:1038E0004800002020231822C8219420009501942C
:1038F000FFF701FC20231922C821A4200095019480
:10390000FFF7F9FB0196202300950294C821B4200B
:10391000069AFFF768FC0122D221D820FFF724FD88
:103920000022D221D820FFF71FFD2846B038009092
:1039300010230A22CD210194DE20FFF7DCFB8BE46B
:10394000874910B5884208D144150121204600F06E
:103950000AFC0021204600F006FC10BD30B5C3680B
:10396000804A8C6813400A680D792243CC686D0345
:103970002C4322430C69496922430A431A43C2601B
:1039800030BD0021016001718160C1600161416150
:1039900070470029816801D0012200E00222114312
:1039A0008160704701617047002A026901D00A43B3
:1039B00000E08A43026170470122D2030029C168F6
:1039C00001D0114300E09143C1607047012292038E
:1039D0000029C16801D0114300E09143C1607047E4
:1039E0000122D2050029C16801D0114300E09143B2
:1039F000C16070470904114301627047C2681F2308
:103A00009B069A430A43C26070470122920500292F
:103A1000C16801D0114300E09143C16070470122A9
:103A20005149D2050028886801D0104300E0904336
:103A30008860704701224C4992050028886801D0AF
:103A4000104300E090438860704701224649120607
:103A50000028886801D0104300E0904388607047D8
:103A600000238362836A0B438362426170470122B1
:103A700052030029C16801D0114300E09143C160A5
:103A80007047012212040029C16801D0114300E0EF
:103A90009143C1607047012212030029C16801D01F
:103AA000114300E09143C160704782680021012307
:103AB000DB071A4382600F231B038268491CD20F65
:103AC000D207994201D0002AF7D18168002901DB91
:103AD000006C70470020704781681022114381609C
:103AE000704781680422114381607047006C80B286
:103AF00070470029C16802D00122114301E0490842
:103B00004900C1607047C26802239A43C260C2681C
:103B10000A43C2607047002A426801D00A4300E0AD
:103B20008A434260704702460020CB0104D5926868
:103B300001231B069A4300E012680A4200D00120CC
:103B400070470160704702465368002012680B40BE
:103B50000A4202D0002B00D001207047016070475C
:103B60000024014003D2FFFF00270140092110B5C6
:103B7000C906884202D101214C0404E05049884220
:103B800009D101210402204600F0E4FA0021204678
:103B900000F0E0FA10BD4B49884202D10121040235
:103BA000F1E74949884202D101210C05EBE7474979
:103BB000884202D101214402E5E745498842E9D122
:103BC00001218C05DFE7F0B50022012423460D68B2
:103BD00093401D409D422AD10D79012D01D0022D27
:103BE00012D1876855000326AE40B74387604E79EF
:103BF000AE4085682E43866085889D438580858894
:103C00008B7993401D438580066855000323AB40A4
:103C10009E4306600E790768AE403E430660C66864
:103C20009E43C660CB79AB40C5682B43C360521C32
:103C3000102ACBD3F0BD2749016000210171012278
:103C400042718171C1717047012208B512040A43A3
:103C50000092C261C1610099C161C169C0690090EF
:103C600008BD0246128A00200A4200D00120704797
:103C7000008A70470246928A00200A4200D0012042
:103C80007047808A70478161704701857047002ABC
:103C900001D08161704701857047818270474B0771
:103CA000DB0E9A40C90810B589000818016A0F2474
:103CB0009C40A1430162016A1143016210BD0000F2
:103CC0000004004800080048000C004800100048AC
:103CD00000140048FFFF0000F8480168012211436A
:103CE00001604168F64A114041600168F54A11409F
:103CF00001600168012292049143016041683F2202
:103D0000120491434160C16A09090901C162016B52
:103D1000ED4A11400163416B4908490041630021AC
:103D200081607047E54900228A70887070470346B9
:103D30000020E2495A090CD0012A0CD0022A0CD0EA
:103D4000496BDA06D20E012393400B4200D00120CA
:103D500070470968F5E7096AF3E7496AF1E718B5BA
:103D600000200524240300901120FFF7E0FF0099B4
:103D7000491C0091A14201D00028F5D01120FFF785
:103D8000D6FF002800D0012018BDCC4A1168F823C6
:103D90009943C000084310607047C849002808686C
:103DA00002D00122104301E0400840000860704743
:103DB000C24A516BF8239943C000084350637047CF
:103DC000BE490028486B02D00122104301E04008A0
:103DD000400048637047B94904220028486B01D06D
:103DE000904300E0104348637047B4490A6A5208A0
:103DF00052000A620A6A04239A430A620A6A024368
:103E00000A627047AD490A6A18239A430A620A6A2D
:103E100002430A627047A9490028486A02D0012279
:103E2000104301E0400840004862704710B5A34AC3
:103E300053687B24E403A34353605368084303435C
:103E4000536010BD01229D4912060028086801D068
:103E5000104300E090430860704701229749120424
:103E60000028486B01D0104300E09043486370473E
:103E7000924AD16A090909010143D16270470122BE
:103E80008E49D2040028086801D0104300E0904316
:103E900008607047894A53681B021B0A00060843E2
:103EA000184350607047854A51688908890001436A
:103EB00051607047814840680C21084070477F4A34
:103EC0005168F02399430143516070477B4A516820
:103ED00007231B02994301435160704777494A68A1
:103EE00001239B039A434A604A6883B21A434A609B
:103EF0000A6B8B159A430A630A6B000C02430A6330
:103F000070476E490A6B40239A430A630A6B024367
:103F10000A63704769490A6B10239A430A630A6B64
:103F200002430A637047020F6449012A0AD0022A39
:103F30000A6B0BD003239B049A430A630A6B024368
:103F40000A6370470A6B92089200F6E703231B048A
:103F5000F2E75A490A6B80239A430A630A6B0243C9
:103F60000A637047F8B5554D0446686800210C2275
:103F7000564E104005D0042803D0082803D00C2842
:103F80001AD026601AE06968686803228902D203A1
:103F90000F0F1040BF1C00280AD0E86A0107090F64
:103FA0003046491C01F09AFA78430146216005E049
:103FB000474839464143F9E7464820606868464F1C
:103FC0000006000F3B5C20680246DA4062606B68C6
:103FD0005B055B0FFB5CDA40A2602B6BDB0501D459
:103FE0003E4B05E06B685B0401D4530800E0930886
:103FF000E3602B6B5F063A4B03D4394F12372761CE
:1040000000E023612F6BFF0601D4666100E0606170
:104010002F6BBF070ED02F6BBF07BF0F012F0BD029
:104020002F6BBF07BF0F022F08D02F6BFF43BF07B7
:1040300006D006E0A26104E0A06102E0A36100E016
:10404000A6612F6BBF03BF0F0FD02F6BBF03BF0F36
:10405000012F0CD02F6BBF03BF0F022F09D02F6B86
:10406000BF03BF0F032F06D006E0E26104E0E0616A
:1040700002E0E36100E0E6612F6B3F03BF0F0FD06A
:104080002A6B1203920F012A0CD0286B0003800FB9
:10409000022809D0286B0003800F032806D006E011
:1040A000226204E0206202E0236200E02662286BC4
:1040B000000617D407486062F8BD000000100240F7
:1040C0000CB8FF08FFFFF6FEACFEF0FF00127A000E
:1040D00000093D00006CDC0264000020809FD500D8
:1040E000008000006162E7E735490A6A02430A621C
:1040F000704701223249D2030028086A01D01043D8
:1041000000E090430862704701222D491204002804
:10411000086A01D0104300E0904308627047284AC3
:104120000029516901D0014300E08143516170478A
:10413000234A0029916901D0014300E08143916144
:1041400070471F4A0029D16901D0014300E0814333
:10415000D16170471A4A0029916A01D0014300E0F9
:10416000814391627047164A0029D16801D001430A
:1041700000E08143D1607047114A0029116901D0E4
:10418000014300E08143116170470D4A0029517AD3
:1041900001D0014300E08143517270470848416AF1
:1041A00001221206114341627047054A0146926896
:1041B00000200A4200D001207047014988727047F0
:1041C00000100240F74910B5884207D101218C0345
:1041D0002046FFF7C8FF0021204627E0F249884229
:1041E00002D101214C0404E0F049884209D10121A7
:1041F0008C042046FFF7C0FF00212046FFF7BCFFDC
:1042000010BDEB49884202D10121CC04F1E7E94914
:10421000884202D101210C05EBE7E749884208D129
:1042200001212020FFF79FFF00212020FFF79BFFA7
:1042300010BDE249884206D101214020FFF793FFDB
:1042400000214020F2E7DE498842F1D1012180209F
:10425000FFF789FF00218020E8E730B504460068B9
:104260008BB00D46400840002060606803210903C0
:104270008843A968014361602068D249EA68084020
:10428000696811432A69024311432160A068032130
:104290000902884369690143A1606846FFF762FE2D
:1042A000C048844201D106980AE0BF48844201D147
:1042B000079805E0BD48844201D1089800E00298C3
:1042C00021680904296800D5400001F007F92A682F
:1042D00052088A4200D8401C2168090404D501070D
:1042E000B94A490F10400843A0810BB030BD4B21A3
:1042F000C90101600021416081600C22C16002613E
:104300004161704710B542680F231B029A4318C9D8
:1043100023430C6849680C4323431343436010BD97
:104320000021016041608160C1607047002901681F
:1043300002D00122114301E04908490001607047A1
:10434000002A026801D00A4300E08A4302607047F5
:104350000122D2030029016801D0114300E09143FA
:10436000016070470122D2020029816801D0114307
:1043700000E09143816070470122D2040029416826
:1043800001D0114300E09143416070470122920443
:104390000029416801D0114300E09143416070471A
:1043A000002A426801D00A4300E08A434260704715
:1043B0000122D2030029416801D0114300E091435A
:1043C000416070470122D2050029416801D01143A4
:1043D00000E09143416070474269120E120642614B
:1043E00042690A4342617047028A120A120202823B
:1043F000028A0A430282704702220029016801D022
:10440000114300E0914301607047826803231B055C
:104410009A43826082680A438260704701221205D3
:104420000029416801D0114300E091434160704789
:10443000426803235B059A43426042680A43426034
:104440007047C905C90D01857047808CC005C00D36
:10445000704742681202120A4260426809060A4323
:1044600042607047012252030029016801D01143C4
:1044700000E091430160704702680123DB029A4328
:10448000026002680A4302607047426810239A4340
:10449000426042680A4342607047426820239A4360
:1044A000426042680A434260704701229203002939
:1044B000416801D0114300E09143416070470822F8
:1044C0000029816801D0114300E091438160704769
:1044D000028AD2B20282028A09020A430282704729
:1044E00020220029816801D0114300E091438160BE
:1044F000704710220029816801D0114300E09143E8
:1045000081607047826807235B049A4382608268F7
:1045100049040A438260704742691202120A4261EA
:10452000426909060A4342617047826804239A433C
:10453000826082680A438260704702220029816893
:1045400001D0114300E09143816070470122920342
:104550000029816801D0114300E0914381607047D8
:1045600082680123DB039A43826082680A43826087
:10457000704702681F235B059A4302600268490581
:104580000A430260704702681F231B049A430260BB
:10459000026809040A4302607047002A826815D045
:1045A0000A4314E000380140004400400048004045
:1045B000004C004000500040001401400018014031
:1045C000001C0140F3E9FFFFF0FF00008A43826016
:1045D0007047826801235B039A43826082680A43C2
:1045E0008260704710B50B041C0E01238B40022C17
:1045F00002D0032C02D002E0001D00E00830016868
:10460000002A01D0194300E09943016010BD002A3F
:10461000028B01D00A4300E08A430283704782681C
:1046200001231B039A43826082680A4382607047B9
:104630000246D26900200A4200D001207047016280
:10464000704730B50A04130E0122144600258C4031
:10465000012B0ED0022B0ED08368090C2340C069B9
:104660008A401040002B02D0002800D001252846A7
:1046700030BD0368F1E74368EFE70A0C0121914080
:104680000162704730B5837801210278002B15D084
:104690009408174BA400E41823689207D50EFF2254
:1046A000AA40934342789207120EAA401A4322600E
:1046B0000078C006C00E81400E4804E0D006C00E4F
:1046C00081400C488030016030BD0B4A00291169DF
:1046D00001D0014300E08143116170470422074982
:1046E0000428086902D09043086170471043FBE733
:1046F00000E400E000E100E000ED00E000E000E0A8
:10470000F94910B5884202D10121C4143AE00121CF
:104710008907884206D101210846FFF72DFD0021B7
:10472000012008E0F149884208D101210220FFF769
:1047300023FD00210220FFF71FFD10BDEC49884238
:1047400006D101211020FFF717FD00211020F2E70C
:10475000E849884206D101212020FFF70DFD002104
:104760002020E8E7E449884207D18415012120464A
:10477000FFF702FD00212046DDE7E049884209D12C
:1047800001210C042046FFF7EEFC00212046FFF734
:10479000EAFC10BDDA49884202D101214C04F1E75C
:1047A000D8498842F5D101218C04EBE710B5028885
:1047B000CD4B984206D00124A407A04202D0CB4C96
:1047C000A04203D17024A2434C882243C84CA0428B
:1047D00003D0CD4C22400C89224302804A68C26239
:1047E0000A880285984208D0C44A904205D0C44A3B
:1047F000904202D0C34A904201D1897A01860121B8
:10480000818210BD0021C9434160002101800181E6
:1048100041808172704701858282704702887023CF
:104820009A430A430280704741627047C1627047F1
:10483000406A7047008D704702220029018801D02C
:10484000114300E091430180704704220029018850
:1048500001D0114300E0914301807047802200297C
:10486000018801D0114300E0914301807047028824
:1048700008239A43028002880A4302807047028814
:10488000A14B1A40028002880A4302807047002927
:10489000018802D00122114301E04908490001804A
:1048A000704710B50A884B88CC881A438B882343FD
:1048B0001A430B891A434B8989891A430A434030AA
:1048C000828010BD0021018041808180C1800181F2
:1048D00041818181704740300029818803D00122C5
:1048E000D203114301E04904490C8180704730B57F
:1048F000028C520852000284038C8288048B70253B
:10490000AC43A4080D88A40025430224A3438C894A
:104910001C434B882343744CA04208D0774CA042E0
:1049200005D0774CA04202D0764CA0420DD108248D
:10493000A343CC891C4304239C438B882343724CA0
:1049400022400C8A14434A8A224382800583896864
:104950004163038430BD70B5028C10239A430284F6
:10496000048C8288038B694D2B400D782D062D0C0D
:104970001D4320239C438B891B051E0C4B8826431B
:104980001B051B0C584C3343A04202D05B4EB04277
:1049900019D15F4E32400E8AB604360C3243A04223
:1049A00011D18024A343CC892405240C1C4340232B
:1049B0009C438B881B051B0C2343564C22404C8A7E
:1049C000A404240C224382800583896881630384C4
:1049D00070BD30B5028C504B1A400284038C828823
:1049E000848B7025AC43A4080D88A40025434B4C50
:1049F00023400C7B2406240C1C438B781B061B0CC9
:104A00002343394CA04215D1424C23408C7B2406D1
:104A1000240C1C433E4B1C400B791B061B0C2343F0
:104A20003F4C22400C8A2405240C14434A8A120568
:104A3000120C2243828085838968C163038430BD60
:104A400030B5028C374B1A400284048C8388828BE9
:104A50002E4D2A400D782D062D0C1543324A144058
:104A60000A7B1207120C22438C782407240C14436F
:104A70001D4A904205D12D4A13400A8A9205120C14
:104A800013438380858389680164048430BD0021D9
:104A900001804180818081608181C1810182418268
:104AA000704730B5034618330124058C8C40A5436C
:104AB0000584002910D008290ED0091F0804400CD5
:104AC000C018016807231B0399430160016812069F
:104AD000120C1143016030BD4808C01801687023F2
:104AE000994301600168F4E7002C01400004004094
:104AF0000010004000140040002000400040014031
:104B00000044014000480140FFFC0000FF8C000011
:104B1000FFFB0000FFF70000FFFE0000FFFD0000AC
:104B2000FFCF0000FFEF0000FFDF0000FFBF00002D
:104B30004163704781637047C16370470164704788
:104B4000028B70239A430A4302837047028BF64B11
:104B500009021A40114301837047828B70239A43E4
:104B60000A4382837047828BEF4B09021A4011433C
:104B7000818370470029818802D00122114301E01E
:104B80004908490081807047028B08239A430A43F1
:104B900002837047028BE54B09021A4011430183DF
:104BA0007047828B08239A430A4382837047828B23
:104BB000DE4B09021A40114381837047028B0423A4
:104BC0009A430A4302837047028BD94B09021A4069
:104BD000114301837047828B04239A430A438283E3
:104BE0007047828BD24B09021A4011438183704770
:104BF000028B80239A430A4302837047028B52043C
:104C0000520C0902114301837047828B80239A431F
:104C10000A4382837047828B5204520C090211436B
:104C200081837047028C02239A430A4302847047AF
:104C3000028C08239A430A4302847047028C202383
:104C40009A430901114301847047028C80239A43DF
:104C50000901114301847047028CB64B09021A40C6
:104C6000114301847047028CB04B09021A40114372
:104C700001847047028CB04B09031A401143018430
:104C80007047028908239A43028102890A430281FC
:104C9000704710B50123048C8B409C430484038C23
:104CA0008A401343038410BD10B50423048C8B4049
:104CB0009C430484038C8A401343038410BD042264
:104CC0000029818801D0114300E091438180704721
:104CD000828B9A4B1A408283828B09020A43828319
:104CE0007047828B0C239A438283828B0A43828390
:104CF0007047028B914B1A400283028B09020A43D0
:104D000002837047F0B5048C1026B4430484058BED
:104D1000048C8B4F1B0309013D402B4312021A43A5
:104D2000A0239C430C43344302830484F0BD028BD4
:104D30000C239A430283028B0A430283704770B5A7
:104D4000048C640864000484058B048C1B011343E9
:104D5000F3260A22B54394432B430C4301210C4311
:104D60000383048470BDF8B5044608884E888A8899
:104D70000B890D4600281DD0042824D00828208C3B
:104D80002AD0704908402084A08B278C31036C4EB8
:104D9000120230400243180310436B4AA0831740AD
:104DA0000F43012109030F432784E9882046FFF7B9
:104DB0008FFFF8BD31462046FFF7C1FFE988204646
:104DC000FFF7B5FFF8BD31462046FFF79BFFE988A6
:104DD0002046FFF78EFFF8BD5C4908402084A18B78
:104DE000208C3702F3261B01B14313430B43584970
:104DF000A3830840FF213843013108432084E98818
:104E00002046FFF76EFFF8BD00210180418001229E
:104E10008280C18001817047F8B50C464988002620
:104E200001250746002900D10226A288012A00D1C7
:104E30000225208823890028384610D0FFF762FF1A
:104E4000E1883846FFF755FF23892A463146384620
:104E5000FFF775FFE1883846FFF769FFF8BDFFF7F8
:104E60006EFFE1883846FFF762FF23892A46314604
:104E70003846FFF747FFE1883846FFF73AFFF8BDAD
:104E8000406B7047806B7047C06B7047006C704719
:104E9000002A828901D00A4300E08A438281704758
:104EA000818270470246128A00200A4200D0012007
:104EB0007047C943018270470246138A00209289D5
:104EC0000B400A40002B02D0002A00D0012070477E
:104ED000C943018270471143403001817047002A65
:104EE000828901D00A4300E08A4382817047082208
:104EF0000029818801D0114300E0914381807047EF
:104F00000189C908C90001817047028970239A4349
:104F10000A430281704710B50446FFF7F6FF208967
:104F200007210843208110BDFF8F0000FFF700001C
:104F3000FFFB0000FFFD0000FFDF0000FFF30000AB
:104F4000FF0C0000FFEF0000FF5F0000FFFE00000D
:104F5000FFF5000070B516460D46044660290CD0DA
:104F600001223146FFF7EBFE29462046FFF7CDFF31
:104F7000208907210843208170BD01223146FFF7B7
:104F8000C1FEF1E710B504891B021343E4B20B43E1
:104F90002343038110BD10B50446FFF7F3FF2089BA
:104FA000C108C900072001437020814301432181CA
:104FB00010BD10B50446FFF7E5FF208901218903E4
:104FC0000843208110BD828870239A4382808288A2
:104FD0000A43828070470289D208D2000281028986
:104FE0000A4302817047028980239A430281028921
:104FF0000A430281704770B50689048B058CF60858
:10500000F6000E430C4906810C40FF2102310C438F
:10501000AA218D431901114329430483018470BDE2
:1050200080220029818801D0114300E091438180D2
:105030007047403001827047FCFC0000B24910B557
:10504000884209D1841401212046FFF78CF8002101
:105050002046FFF788F810BDAC498842FBD1041404
:1050600001212046FFF788F800212046FFF784F849
:1050700010BD002101800722418012028280C18080
:10508000018141818181C18107210182704730B551
:105090000388C122920113400A88CC890D892243DA
:1050A000CC882C4322434C8922438C8922431A43C7
:1050B00002808288964B1A408B88134383800A8A29
:1050C00002820288042349889A4311430180818B1C
:1050D000904A1140818330BD002101804180818050
:1050E000C1800222826081817047F0B505460C467E
:1050F00002200021AA8B8BB00126854BBF3B1A40B2
:10510000AA832884AF8BA268022A24D0A088002812
:1051100000D002266846FEF725FFE1880098CA1FE6
:10512000FF3AFA3A29D0710100F0D8F90A21484330
:10513000A16800F0D3F9401D80B20A2100F0CEF939
:10514000C107C90F401AC003000C0902821EFE2AC3
:1051500001D302200021E288084302432A842088E8
:105160006188A2890843A18811430843012138437B
:10517000C9020843A8830BB0F0BD000A0A225043BD
:10518000A168D6E740220029018801D0114300E040
:1051900091430180704710220029818801D011437A
:1051A00000E09143818070470029818B03D0012268
:1051B0009202114301E0584A11408183704782886E
:1051C000534B1A400A43828070478288534B1A40DF
:1051D000828082880A438280704701229203914232
:1051E000018801D1114301E04D4A1140018070470F
:1051F0004C4A9142018803D0FF220132114300E062
:1052000011400180704704220029818801D0114398
:1052100000E091438180704708220029818801D0F5
:10522000114300E091438180704701737047818191
:105230007047007B7047808970470288354B1A4061
:10524000028002880A43028070470029018803D047
:1052500001225203114301E0334A1140018070479B
:10526000018801221203114301807047012901D0F6
:10527000008B7047808A7047008A7047002A8288B6
:1052800001D00A4300E08A43828070478288274B1E
:105290001A40828082880A4382807047090901236C
:1052A0008B40002A828899B201D00A4300E08A43E9
:1052B0008280704700890321C90208407047008935
:1052C00003214902084070470246128900200A4221
:1052D00000D001207047C9430181704730B50D07E8
:1052E00001222D0F14460346AC40002009098A40D4
:1052F00091B29A88A4B20A401989214202D0002AA8
:1053000000D0012030BD00000030014000380040D6
:10531000FFF00000FFF70000FFFB0000FFEF0000C0
:10532000FFBF0000FFFE0000FFDF0000FF9F000046
:1053300010B54D48016801221143016041684B4A94
:105340001140416001684A4A114001600168012230
:1053500092049143016041683F22120491434160ED
:10536000C16A09090901C162016BFF2254329143EC
:105370000163416B4908490041630021816000F0ED
:105380002EF810BD70B5384D69680C2001403948C1
:10539000394C03D0042901D0082901D0206014E041
:1053A0006A68696803239202DB03160F1940B61C72
:1053B000002907D0E96A0907090F491C00F08EF897
:1053C0007043EBE72D484643266068682A4900068B
:1053D000000F091D085C2168C140216070BD3CB50B
:1053E00000222148019200920168012319430160C3
:1053F00002210524240305680D400095019D6D1CC4
:105400000195009D002D02D1019DA542F3D10468B4
:10541000A40726D500931A4B11221A6042684260F5
:105420004268426042687B23DB039A4342604268E1
:105430000523DB041A434260026801231B061A435A
:10544000026002689201FCD54268920892004260B4
:1054500042680A43426041680907890F0229FAD16C
:105460003CBD00923CBD0000001002400CB8FF089B
:10547000FFFFF6FE00127A007400002000093D00D4
:10548000002002400C4880F308880C480168090E8F
:105490000B4A914205D10B480B4901600B480C495E
:1054A00001600C4880470C480047FEE7FEE7FEE736
:1054B000FEE7FEE7FEE7000088140020040000007D
:1054C0001F00000018100240010000000000014011
:1054D0000000000031530008B500000830B50B464D
:1054E000014600202022012409E00D46D5409D42BE
:1054F00005D31D469540491B254695404019154644
:10550000521E002DF1DC30BDF8B502464A40D40FE2
:1055100042004B0052085B089A4202D202460846FB
:1055200011464A0023D0C30D4A00DDB2120EAD1A57
:10553000202D35DA49020126490AF6058A19002C80
:1055400000D0524220214F1B1146B9402A41101869
:10555000C20D9A4221D0002C17D0012D08DCDA05AB
:10556000801AD20F8019D207DBB200F01EFAF8BD04
:10557000DA05801A012340001B06C01880185A4221
:105580008018CA0F1043490007E04908C2071143B9
:10559000DA05801A80194008801800F0FEF9F8BD7D
:1055A00061000122511A001BF7E70122D207514086
:1055B000AAE70122D2075040A6E70000F0B507464F
:1055C0000846584087B0C00F049048000E46590066
:1055D00040084908BC1A884105D2384631461E4663
:1055E00017460B4602465800400810434CD0300D79
:1055F000039040055900400D490D0590401A029056
:10560000402872DA18030121000B090508430190B4
:1056100004980092002805D0019952420020884148
:1056200000920190029840210A1A0199009800F016
:1056300091F905460C466B4607CB00F09BF9C01963
:105640007141039A0E0D0023D71756401A467A402F
:10565000164344D0049A002A2DD0029A012A039AB4
:1056600015DC1205C01A914101263605001C714156
:10567000D20F059ED2070093019202962A46234636
:1056800000F0D9F907B0F0BD38463146FAE7160503
:10569000224A0F46B218C01AB74101210905001C61
:1056A0004F4100187F41114618187941E20F10430D
:1056B0006D19644113E0E2076D0815436408C207E1
:1056C0001443039A01261205C01A91413605001CA5
:1056D0007141CE07400830434908C01851412A465D
:1056E000234600F09BF9CDE7FFE704980122400034
:1056F000C117121A00238B4104983146C417381A77
:10570000A141EEE730B40124E407634030BC55E723
:1057100030B40124E407614030BC4FE70000E0FFF3
:10572000F0B51FB488B00B99099800244840099936
:10573000C00F490049080991C0070B990090490022
:1057400049080B9109990898A64608431CD00B9963
:105750000A98084318D0099801244000420D4800D7
:10576000410D099824050003000B204309900B9874
:105770000003000B20430B9050181C4940180022D6
:1057800001901446104605E0002001460DB0F0BD22
:10579000032801DA034600E003239C46C11A0AAE3F
:1057A0000AE05F0008ADED5B4F00F75B7D4300272B
:1057B000AA187C41491C5B1E6145F2DD410004AB27
:1057C0005A522104120C0A43240C401C0828DFDB27
:1057D000019802900099704601910090059B049AEF
:1057E0000799069800F027F9D0E700000DFCFFFFAD
:1057F00010B500229623114600F0D7F810BD000026
:105800000EB505490291002100910A460B4601910F
:1058100000F011F903B000BD330400004100400264
:105820000122400AD205090E80187F2901DA0020E2
:105830007047962903DC9622511AC8407047963962
:1058400088407047C20FD207400040080BD0C10DFE
:105850000723DB01C91840020905400A1143C208A9
:1058600040071143704700200146704710B50029DA
:1058700004DB0124E40740428C412146002B04DB79
:105880001C460123DB075242A3418B4200D18242D6
:1058900010BD000010B5002904DB0124E4074042DC
:1058A0008C412146002B04DB1C460123DB075242BE
:1058B000A341994200D1904210BD0000CB0FDB07FD
:1058C000490010B5490802460A4307D00A0D0724CB
:1058D0000903E401090B121B002A01DC002010BDA2
:1058E000C900440F0C43C100E018D205801800F035
:1058F00054F810BDF0B51FB40646002082B005462E
:105900004024019100901BE0019922460F46304649
:1059100000F0F6F8049A059B801A994110D31046BE
:105920001946224600F016F8361A8F410197224692
:1059300001200021009F00F00DF838184D41009023
:105940002046641E0028DFDC019B00982946324671
:1059500007B0F0BD10B5202A04DB0146203A914083
:10596000002010BD914020239C1A0346E3401943B8
:10597000904010BD10B5202A06DBCB170846203A10
:105980001041C1170B4306E00B461341D0402024C1
:10599000A21A91400843194610BD002904DA401CA0
:1059A000490001D140084000704770B40024050C44
:1059B00005D11024000402D1002921D01124050EA4
:1059C00001D100020834050F01D10001241D850F0B
:1059D00001D18000A41C002801DB4000641C0029C8
:1059E00008D020252E1B0D46F540A14000D00121F6
:1059F0002943084301061B1B000ADB1D02D50020BA
:105A000070BC7047DB05181880180029F8DA401CB4
:105A10004900F5D170BC40084000704710B5002B1C
:105A200008DA0024401C614192185B411A4301D1FD
:105A30004008400010BDF0B51FB482B005460C0010
:105A400003D0084600F07EF802E000F07BF820303A
:105A50000246009021462846FFF77CFF049B059AEA
:105A600004460F4618431143084314D01846104308
:105A70001BD0009840210A1A1846059900F040F8FA
:105A800005460E46009A05990498FFF763FF084300
:105A900005D0012004E02046394607B0F0BD0020C3
:105AA000C11705430E432C43374300990E986305F5
:105AB000401A7905E40A00220C43FD0A0A3002D597
:105AC00000200146E9E70105101969410C9C0D9D74
:105AD00000196941FFF7A2FFDFE70000064C01252E
